:020000040800F2
:10000000584400201D20000841200008432000081B
:10001000472000084B2000084F2000080000000087
:100020000000000000000000000000004501000882
:100030005320000800000000890100080732000872
:100040003720000837200008372000083720000834
:100050003720000837200008372000083720000824
:100060003720000837200008372000083720000814
:1000700037200008372000088B25000837200008AB
:1000800037200008372000083720000837200008F4
:1000900037200008372000083720000837200008E4
:1000A00037200008372000083720000837200008D4
:1000B00037200008372000083720000837200008C4
:1000C00037200008372000083720000837200008B4
:1000D00037200008AF250008372000083720000827
:1000E0003720000837200008372000083720000894
:1000F0003720000837200008372000083720000884
:100100003720000837200008372000083720000873
:100110003720000837200008BF21000837200008DA
:100120003720000837200008372000083720000853
:10013000DFF80CD005F048F8004800471921000806
:1001400058440020204B19680868B0E8F00F80F38D
:100150000988BFF36F8F4FF0000080F311884EF0D5
:100160000D0E70470000000006480068006880F32C
:10017000088862B661B6BFF34F8FBFF36F8F00DFA1
:1001800000BF00BF08ED00E0EFF30980BFF36F8F01
:100190000D4B1A6820E9F00F106008B54FF0100001
:1001A00080F3118804F02FF84FF0000080F31188DD
:1001B000BDE8084019680868B0E8F00F80F30988C6
:1001C000BFF36F8F704700BFF8000020EFF311807E
:1001D0004FF0100181F31188704780F31188704748
:1001E000EFF30580704700000CB5002001900090EF
:1001F0006C48006840F480306A49086000BF694874
:10020000006800F4003000900198401C01900098B4
:1002100018B90198B0F5A06FF1D16248006800F4F8
:10022000003010B10120009001E000200090009803
:10023000012843D15C48006840F010005A4908602A
:100240000846006820F0030008600846006840F097
:1002500002000860534840685249486008464068B8
:1002600048600846406840F480604860084640683E
:1002700020F47C1048600846406840F4E81048606C
:100280000846006840F08070086000BF454800687C
:1002900000F000700028F9D04248406820F00300C8
:1002A000404948600846406840F00200486000BF8E
:1002B0003C48406800F00C000828F9D10CBD10B58E
:1002C000FFF792FF10BD10B53648006840F00100FE
:1002D000344908600846406834490840314948605C
:1002E00008460068324908402E4908600846006800
:1002F00020F4802008600846406820F4FE00486032
:100300004FF41F008860FFF7DAFF4FF000602949C3
:10031000086010BD10B5002100200022214B5B6851
:1003200003F00C0121B1042906D0082928D107E0E7
:10033000214B224C236027E01F4B204C236023E0FD
:10034000184B5B6803F47010164B5B6803F4803243
:10035000022303EB904022B9194B4343174C23600F
:100360000DE0104B5B6803F4003323B1144B43439F
:10037000124C236003E0104B4343104C236003E016
:100380000D4B0E4C236000BF00BF064B5B68C3F3F0
:1003900003130C4CE15C094B1B68CB40074C2360FA
:1003A00010BD000000100240002002400000FFF8D5
:1003B000FFFFF6FE08ED00E000127A0000000020CA
:1003C00000093D000400002031490143314A116019
:1003D000704770B5002100230F22C47804B32D4C60
:1003E000246804F4E064C4F5E064210AC1F1040364
:1003F000CA40447804FA03F1847814402143090187
:10040000254C0678A155047804F01F050124AC4062
:1004100005786D11AD0005F1E025C5F8004109E052
:10042000047804F01F050124AC401C4D06787611B9
:1004300045F8264070BD1A4A0A400243154B1B1F5F
:100440001A60704739B1134A121D12680243114BEA
:100450001B1D1A6006E00F4A121D126882430D4BE5
:100460001B1D1A607047042808D14FF0E02109696C
:1004700041F004014FF0E022116107E04FF0E0216C
:10048000096921F004014FF0E0221161704700007A
:100490000000FA050CED00E000E400E080E100E07F
:1004A00080FFFF1F01684FF6FE72114001600021BE
:1004B000016041608160C1608D49884208D18C49EA
:1004C0000839496841F00F01894A083A51608AE0C9
:1004D00087491431884208D185490839496841F073
:1004E000F001834A083A51607DE081492831884211
:1004F00008D17F490839496841F470617C4A083A5B
:10050000516070E07A493C31884208D17849083915
:10051000496841F47041764A083A516063E0744991
:100520005031884208D172490839496841F4702134
:100530006F4A083A516056E06D496431884208D1EB
:100540006B490839496841F47001694A083A5160B9
:1005500049E067497831884208D1654908394968D6
:1005600041F07061624A083A51603CE0614988425A
:1005700006D1011F096841F00F01021F116032E02E
:100580005C491431884208D15A49091F096841F071
:10059000F001584A121F116025E05649283188425F
:1005A00008D15449091F096841F47061514A121F6A
:1005B000116018E04F493C31884208D14D49091F6C
:1005C000096841F470414B4A121F11600BE0494920
:1005D0005031884207D14749091F096841F4702109
:1005E000444A121F1160704710B50022026847F696
:1005F000F0739A430C6A8B6823430C6923434C695C
:1006000023438C692343CC6923434C6A23438C6A7C
:1006100023431A430260CB6843600B6883604B68D6
:10062000C36010BD0021016041608160C160016153
:1006300041618161C161016241628162704721B1A2
:10064000026842F00102026004E002684FF6FE73A5
:100650001A40026070471AB103680B43036002E05E
:1006600003688B43036070474160704701464868E8
:1006700080B2704701460020002201F080531BB178
:100680001C4B083B1A6802E0194B083B1A6802EA47
:1006900001030BB1012000E00020704700F0805101
:1006A00019B11449091F086002E01149083948606E
:1006B000704701460020002201F080531BB10D4B12
:1006C000083B1A6802E00A4B083B1A6802EA010379
:1006D0000BB1012000E00020704700F0805119B1FB
:1006E0000449091F086002E0014908394860704761
:1006F000080002400804024010B50446CC48844279
:1007000008D10121042000F02DFB0021042000F07D
:1007100029FB46E0C748844208D10121082000F0A7
:1007200021FB0021082000F01DFB3AE0C248844272
:1007300008D10121102000F015FB0021102000F04D
:1007400011FB2EE0BD48844208D10121202000F099
:1007500009FB0021202000F005FB22E0B84884427C
:1007600008D10121402000F0FDFA0021402000F0D6
:10077000F9FA16E0B348844208D10121802000F044
:10078000F1FA0021802000F0EDFA0AE0AE48844240
:1007900007D10121801500F0E5FA0021A01500F035
:1007A000E1FA10BD10B50121084600F0DBFA002186
:1007B000012000F0D7FA10BD2DE9F04102460025D6
:1007C0000026002000230024002791F803C00CF02D
:1007D0000F0591F803C00CF0100CBCF1000F03D012
:1007E00091F802C04CEA050591F800C0BCF1000F79
:1007F00031D0146800202BE04FF0010C0CFA00F30C
:10080000B1F800C00CEA03069E4220D183004FF0ED
:100810000F0C0CFA03F7BC4305FA03FC4CEA040482
:1008200091F803C0BCF1280F06D14FF0010C0CFA6F
:1008300000FCC2F814C00AE091F803C0BCF1480FF4
:1008400005D14FF0010C0CFA00FCC2F810C0401C9E
:100850000828D1D31460B1F800C0BCF1FF0F34DD1B
:10086000546800202EE000F1080C4FF0010808FA4F
:100870000CF3B1F800C00CEA03069E4221D18300BC
:100880004FF00F0C0CFA03F7BC4305FA03FC4CEADB
:10089000040491F803C0BCF1280F05D100F1080C45
:1008A00008FA0CF8C2F8148091F803C0BCF1480FA4
:1008B00007D100F1080C4FF0010808FA0CF8C2F853
:1008C0001080401C0828CED35460BDE8F0814FF65C
:1008D000FF710180022181700421C17070470246BE
:1008E000002093680B400BB1012000E0002070470E
:1008F0000146886880B2704702460020D3680B40EA
:100900000BB1012000E0002070470146C86880B2AA
:10091000704701617047416170470AB1016100E0B1
:1009200041617047C16070474FF480320A43826171
:100930008161826182698269704702460020434B6F
:1009400018684FF68073184040EA021008433F4B86
:10095000186070473E49C8617047F0B50A460023E9
:1009600000240021002500F00046B6F1004F02D11E
:10097000364EF16901E0354E7168C0F3034583B22C
:1009800000F44016B6F5401F08D121F070612F4EDB
:10099000766826F070662D4F7E6012E000F48016B7
:1009A000B6F5801F06D1032606FA05F4A14341F0EF
:1009B000706106E0460D360103FA06F6B14341F0D8
:1009C000706122B1460D360103FA06F6314300F09C
:1009D0000046B6F1004F02D11C4EF16101E01B4E02
:1009E0007160F0BD30B500228B071C0F0F2303FA96
:1009F00004F2164B08338C1053F824309343134CF5
:100A000008348D1044F8253023468C1053F82430D8
:100A10008C07240F00FA04F423430C4C08348D1087
:100A200044F8253030BD0A49DC31086070470000C9
:100A300000080140000C014000100140001401407A
:100A400000180140001C014000200140000001404E
:100A500000002042DF48006840F00100DD490860E6
:100A600008464068DC490840DA49486008460068A2
:100A7000DA490840D74908600846006820F4802019
:100A800008600846406820F4FE0048604FF41F00EC
:100A900088607047CF49096821F48031CD4A1160E0
:100AA0001146096821F480211160B0F5803F03D020
:100AB000B0F5802F0ED106E0C649096841F48031B7
:100AC000C44A116007E0C349096841F4A021C14A42
:100AD000116000E000BF00BF704710B50146002262
:100AE000002300204A11012A02D1BA4C236806E0F3
:100AF000022A02D1B74C236A01E0B64C636A01F0C6
:100B00001F02012494401C400CB1012000E0002091
:100B100010BD38B5002000900024002500BF312012
:100B2000FFF7DBFF05460098401C00900098B0F5E9
:100B3000A06F01D0002DF2D03120FFF7CEFF08B119
:100B4000012400E00024204638BD01460020A14ACF
:100B5000106820F0F80040EAC10010607047A0491A
:100B600008607047024600209A4B586820F47C10B9
:100B700042EA01031843974B58607047984908664A
:100B8000704701460020934A506820F00300084354
:100B9000506070478F48406800F00C007047014675
:100BA00000208C4A506820F0F000084350607047E5
:100BB00001460020874A506820F4E06008435060F6
:100BC000704701460020834A506820F4605040EA94
:100BD000C1005060704729B17E4A527A02437D4B72
:100BE0005A7204E07B4A527A82437A4B5A727047B7
:100BF0007B49D8310860704701460020754A50682B
:100C000020F440400843506070470021714A203270
:100C10001170704A82F82010012802D004280AD1ED
:100C200004E001216B4A2032117005E00521694A78
:100C30002032117000E000BF00BF704769490860B2
:100C400070476449096A0143624A11627047654905
:100C500044390860704730B5002100220024002389
:100C60005C4D6D6805F00C0121B1042905D00829FF
:100C700023D105E05C4D056022E05B4D05601FE07F
:100C8000544D6D6805F47012524D6D6805F4803452
:100C9000022505EB92421CB9544D554305600BE00B
:100CA0004C4D6D6805F400351DB1504D5543056040
:100CB00002E04D4D5543056002E04B4D056000BF1D
:100CC00000BF444D6D6805F0F0010909484D6B5CAB
:100CD0000568DD4045603F4D6D6805F4E061090A37
:100CE000434D6B5C4568DD4085603A4D6D6805F4A9
:100CF0006051C90A3E4D6B5C4568DD40C560354DAD
:100D00006D6805F44041890B3A4D6B5CC568B5FBD5
:100D1000F3F5056130BD29B12E4A526902432D4BCE
:100D20005A6104E02B4A526982432A4B5A61704748
:100D300029B1284A92690243264B9A6104E0254A68
:100D400092698243234B9A61704729B1214AD26943
:100D50000243204BDA6104E01E4AD26982431D4BF4
:100D6000DA61704729B11B4AD2680243194BDA6035
:100D700004E0184AD2688243164BDA60704729B102
:100D8000144A12690243134B1A6104E0114A1269B2
:100D90008243104B1A61704712494039086070470E
:100DA0000F49C86470470B49C87170470948406AC9
:100DB00040F0807007494862704701460020054AAC
:100DC00092680A400AB1012000E000207047014902
:100DD00088727047001002400000FFF8FFFFF6FE27
:100DE000000042428004424200127A0000093D00A5
:100DF000140000202400002010B50446FE48844260
:100E000008D10121C014FFF7ADFF0021E014FFF766
:100E1000A9FFC4E0B4F1804F08D101210846FFF7D3
:100E2000AEFF00210120FFF7AAFFB8E0F34884429B
:100E300008D101210220FFF7A2FF00210220FFF7C5
:100E40009EFFACE0EE48844208D101210420FFF768
:100E500096FF00210420FFF792FFA0E0E9488442BA
:100E600008D101210820FFF78AFF00210820FFF7A1
:100E700086FF94E0E448844208D101211020FFF766
:100E80007EFF00211020FFF77AFF88E0DF488442D0
:100E900008D101212020FFF772FF00212020FFF759
:100EA0006EFF7CE0DA48844208D101214014FFF74C
:100EB00059FF00216014FFF755FF70E0D5488442C8
:100EC00009D10121C804FFF74DFF00214FF4002094
:100ED000FFF748FF63E0D048844209D101210805AB
:100EE000FFF740FF00214FF48010FFF73BFF56E073
:100EF000CA48844209D101214805FFF733FF002188
:100F00004FF40010FFF72EFF49E0C548844208D196
:100F100001214020FFF733FF00214020FFF72FFF82
:100F20003DE0C048844208D101218020FFF727FF1F
:100F300000218020FFF723FF31E0BB48844208D125
:100F400001218015FFF71BFF0021A015FFF717FFF8
:100F500025E0B648844209D101210804FFF702FFC9
:100F600000214FF48030FFF7FDFE18E0B0488442C6
:100F700009D101214804FFF7F5FE00214FF40030AC
:100F8000FFF7F0FE0BE0AB48844208D10121880452
:100F9000FFF7E8FE00214FF48020FFF7E3FE10BDCD
:100FA00000220288944B98420ED0994B98420BD065
:100FB000B0F1804F08D0914B984205D0904B9842A9
:100FC00002D0904B984204D14FF68F731A404B8851
:100FD0001A438D4B984207D08C4B984204D04FF661
:100FE000FF431A40CB881A4302808B8883850B8885
:100FF0000385814B98420BD0854B984208D08B4B90
:10100000984205D08A4B984202D08A4B984201D12F
:101010000B7A038601238382704770B50024002277
:101020000023058C4FF6FE7635400584028C8388BC
:10103000048B4FF68F752C40B51E2C400D882C4329
:10104000751E2A400D892A434D882A436A4DA842BD
:101050000BD06F4DA84208D0744DA84205D0744DF6
:10106000A84202D0734DA84213D14FF6F7752A401B
:101070004D892A434FF6FB752A408D882A434FF647
:10108000FF652B404FF6FF552B408D892B43CD89B3
:101090002B4383800483CD888586028470BD70B520
:1010A000002400220023058C4FF6EF76354005849E
:1010B000028C8388048B48F6FF752C404FF6FF4561
:1010C0002C400D884FF6FF7606EA05252C434FF697
:1010D000DF752A400D8906EA05152A434D8806EA80
:1010E00005152A43444DA84202D0494DA8421DD1BE
:1010F0004FF67F752A404D894FF6FF7606EA0515B3
:101100002A434FF6BF752A408D8806EA05152A4303
:101110004FF6FF352B404FF2FF752B408D8906EAC5
:1011200085052B43CD8906EA85052B4383800483FF
:10113000CD880587028470BD70B50024002200238D
:10114000058C4FF6FF6635400584028C8388848BBE
:101150004FF68F752C404FF6FC752C400D882C43B4
:101160004FF6FF552A400D894FF6FF7606EA052512
:101170002A434D8806EA05252A431F4DA84202D07E
:10118000234DA8421DD14FF2FF752A404D894FF6DD
:10119000FF7606EA05252A434FF6FF352A408D885B
:1011A00006EA05252A434EF6FF752B404DF6FF75DE
:1011B0002B408D8906EA05152B43CD8906EA0515D6
:1011C0002B4383808483CD888587028470BD70B56E
:1011D000002200230024058C4EF6FF76354005845E
:1011E000038C8488828B48F6FF752A404FF6FF45B2
:1011F0002A400D8820E00000002C0140000400403F
:1012000000080040000C00400010004000140040A6
:1012100000340140004C01400050014000540140A6
:1012200000180040001C0040002000400040014029
:1012300000440140004801404FF6FF7606EA0525CC
:101240002A434DF6FF752B400D8906EA05352B43E1
:101250004D8806EA05352B43FA4DA84202D0FA4DD7
:10126000A84208D14BF6FF752C408D894FF6FF76CA
:1012700006EA85152C4384808283CD88A0F84050EF
:10128000038470BD828B4FF2FF331A408283828BBE
:101290004FF6FF7303EA01231A4382837047F0B5C8
:1012A0000C461546002200210026078C4EF6FF7CD6
:1012B00007EA0C070784828B018C4FF6FF7707EA59
:1012C000043640F6FF473A404FF6FF7707EA052716
:1012D0003A434FF6FF7707EA03373A43D94FB8420C
:1012E0000ED0D94FB8420BD0B0F1804F08D0D74FB5
:1012F000B84205D0D64FB84202D0D64FB84206D138
:101300004DF6FF77394046F48057394305E047F6FC
:10131000FF57394044F48057394382830184F0BD3C
:10132000828B4FF6F3731A408283828B0A43828347
:101330007047F0B50C461546002200210026078CA8
:101340004FF6FF6C07EA0C070784828B018C4FF67F
:10135000FF7707EA04264FF60C773A404FF6FF77FF
:1013600007EA03172F433A43B64FB8420ED0B64FA1
:10137000B8420BD0B0F1804F08D0B44FB84205D07E
:10138000B34FB84202D0B34FB84206D14FF6FF5721
:10139000394046F48077394305E04FF2FF57394032
:1013A00044F48077394382830184F0BD028B4FF28D
:1013B000FF331A400283028B4FF6FF7303EA0123C7
:1013C0001A4302837047F0B50C46154600220021EF
:1013D0000026078C4FF6EF7C07EA0C070784028B88
:1013E000018C4FF6FF7707EA041640F6FF473A40B4
:1013F0004FF6FF7707EA03373A434FF6FF7707EADE
:1014000005273A438F4FB8420ED08F4FB8420BD0CA
:10141000B0F1804F08D08D4FB84205D08C4FB84204
:1014200002D08C4FB84206D14FF6DF77394046F0F4
:101430001007394305E04FF65F77394044F0100755
:10144000394302830184F0BD028B4FF6F3731A40D7
:101450000283028B0A4302837047F0B50C4615469F
:1014600000220021068C4FF6FE773E400684028B58
:10147000018C4FF60C7632407E1C06EA03162E4392
:101480003243704EB0420ED06F4EB0420BD0B0F12E
:10149000804F08D06D4EB04205D06D4EB04202D0A4
:1014A0006C4EB04206D14FF6FD76314044F0010655
:1014B000314305E04FF6F576314044F00106314303
:1014C00002830184F0BD70B505460C465D48854237
:1014D0000ED05D4885420BD0B5F1804F08D05B48F7
:1014E000854205D05A48854202D05A48854200D1EB
:1014F00000E000BF208850B92389A288618828466F
:10150000FFF7ABFFE1882846FFF79EFF25E0208824
:1015100004280AD12389A28861882846FFF753FF4F
:10152000E1882846FFF742FF17E0208808280AD103
:101530002389A28861882846FFF7FBFEE1882846B8
:10154000FFF7EEFE09E02389A28861882846FFF7AD
:10155000A6FEE1882846FFF795FE70BD2DE9F04113
:1015600005460C4600260127608808B9022600E0DF
:101570000026A088012801D1022700E00127208849
:10158000A0B92389A28861882846FFF766FFE18811
:101590002846FFF759FF23893A4631462846FFF788
:1015A00012FFE1882846FFF701FF13E02389A28894
:1015B00061882846FFF707FFE1882846FFF7F6FE17
:1015C00023893A4631462846FFF747FFE1882846F7
:1015D000FFF73AFFBDE8F0810A884B881A438B88F1
:1015E0001A43CB881A430B891A434B891A438B89B8
:1015F0001A43A0F8442070474FF6FF718180002104
:101600000180C180418001727047002101804180CA
:101610008180C180018141818181C1817047002128
:1016200001804180012181800021C18001817047BA
:101630000021018041808180C180018141818181BF
:1016400070470000002C01400034014000040040BD
:1016500000080040000C004021B1028842F0010265
:10166000028004E002884FF6FE731A400280704741
:1016700031B1B0F8442042F40042A0F8442005E023
:10168000B0F84420C2F30E02A0F8442070471AB10B
:1016900083890B43838102E083898B438381704775
:1016A0008182704741EA0203A0F8483070471AB1BE
:1016B00083890B43838102E083898B438381704755
:1016C00001894FF6F8721140018170470A460021E6
:1016D00001894FF68F73194011430181704730B56E
:1016E00004460D4629462046FFF7F0FF208940F0CA
:1016F0000700208130BD2DE9F04104460D46164615
:101700001F46602D06D13B46012231462046FFF799
:101710005AFE05E03B46012231462046FFF79DFE7A
:1017200029462046FFF7D2FF208940F0070020819C
:10173000BDE8F08130B50C4600210189C9B24FF6F1
:10174000FF7505EA0325154325432943018130BD73
:101750002DE9F04105460E461746984600244346BB
:101760003A4631462846FFF7E5FF2C894FF6F870D8
:10177000044044F007044FF68F70044044F07004B6
:101780002C81BDE8F081F0B504460D4616461F4693
:101790003B46324629462046FFF7CCFF208940F4DD
:1017A00080402081F0BD0185828270470A46002179
:1017B00001884FF68F731940114301807047F0B5CF
:1017C0000C4615461E460021002200230189028B8B
:1017D000038C4FF6F877394021434FF6FC473A40E7
:1017E00040F201173A434FF6DD773B404FF6FF7763
:1017F00007EA06172F433B43018102830384F0BDB0
:101800000A460021018B4FF68F7319401143018363
:1018100070470A460021018B48F6FF7319404FF6C6
:10182000FF7303EA02231943018370470A4600212C
:10183000818B4FF68F7319401143818370470A469D
:101840000021818B48F6FF7319404FF6FF7303EABE
:10185000022319438183704721B1028842F080023C
:10186000028004E002884FF67F731A4002807047BE
:1018700021B1828842F00402828004E082884FF61F
:10188000FB731A408280704721B1828842F00802BF
:10189000828004E082884FF6F7731A408280704796
:1018A00021B1828842F00102828004E082884FF6F2
:1018B000FE731A40828070470A460021018B4FF662
:1018C000F77319401143018370470A460021018BC9
:1018D0004FF2FF7319404FF6FF7303EA02231943D7
:1018E000018370470A460021818B4FF6F773194038
:1018F0001143818370470A460021818B4FF2FF73A9
:1019000019404FF6FF7303EA02231943818370479E
:101910000A460021018B4FF6FB73194011430183E6
:1019200070470A460021018B4FF6FF3319404FF6EE
:10193000FF7303EA02231943018370470A4600211B
:10194000818B4FF6FB7319401143818370470A4620
:101950000021818B4FF6FF3319404FF6FF7303EAE6
:1019600002231943818370470A460021018B4FF6F9
:101970007F7319401143018370470A460021018B90
:10198000C1F30E014FF6FF7303EA022319430183EB
:1019900070470A460021818B4FF67F73194011432F
:1019A000818370470A460021818BC1F30E014FF6F7
:1019B000FF7303EA02231943818370470A4600211B
:1019C000018C4FF6FD7319401143018470470A469C
:1019D0000021018C4FF6F7731940114301847047C1
:1019E0000A460021018C4FF6DF7319404FF6FF7352
:1019F00003EA02131943018470470A460021018C4F
:101A00004FF67F7319404FF6FF7303EA0213194331
:101A1000018470470A460021018C4FF6FF5319409C
:101A20004FF6FF7303EA02231943018470470A4605
:101A30000021018C4FF2FF7319404FF6FF7303EA48
:101A400002231943018470470A460021018C4DF698
:101A5000FF7319404FF6FF7303EA02331943018401
:101A6000704730B5002301248C40A3B2048C9C4302
:101A70000484048C02FA01F5ADB22C43048430BD19
:101A800030B5002304248C40A3B2048C9C4304840E
:101A9000048C02FA01F5ADB22C43048430BD70B55C
:101AA0000346002000241846183001258D40ACB2B2
:101AB0001D8CA5431D8409B1082909D100EB6100E3
:101AC000056825F0700505600568154305600EE0A2
:101AD0000D1FC5F34E052844056825F4E045056053
:101AE00005684FF6FF7606EA02263543056070BDAD
:101AF00021B1028842F00202028004E002884FF61F
:101B0000FD731A400280704721B1028842F004023E
:101B1000028004E002884FF6FB731A40028070478F
:101B200021B1828842F08002828004E082884FF6F0
:101B30007F731A408280704702884FF6F7731A400D
:101B4000028002880A430280704782884FF68F73B2
:101B50001A40828082880A438280704702894FF649
:101B6000F8731A40028102890A4302817047028990
:101B70004FF67F731A40028102890A43028170473F
:101B800081847047818570478186704701877047DF
:101B900081877047A0F84010704702884FF6FF43D6
:101BA0001A40028002880A43028070470146888EEC
:101BB00070470146088F70470146888F704701467D
:101BC000B1F8400070470146888C70470146088D87
:101BD000704702460020138A0B400BB1012000E041
:101BE00000207047CA430282704730B50246002089
:101BF00000230024158A05EA0103958905EA0104FA
:101C000013B10CB1012000E0002030BDCA430282B4
:101C10007047000010B50446FB48844209D10121F9
:101C20008803FFF79FF800214FF48040FFF79AF8F0
:101C300032E0F648844209D101214804FFF79FF8B9
:101C400000214FF40030FFF79AF825E0F048844275
:101C500009D101218804FFF792F800214FF4802078
:101C6000FFF78DF818E0EB48844209D10121C80440
:101C7000FFF785F800214FF40020FFF780F80BE014
:101C8000E548844208D101210805FFF778F80021D2
:101C90004FF48010FFF773F810BD2DE9F04786B0C0
:101CA00005460E460024A24600BFA1460027B08983
:101CB00000B100BF2F462C8A4CF6FF700440F0881C
:101CC00004432C82AC894EF6F3100440B08831896D
:101CD0000843718908430443AC81AC8A4FF6FF4046
:101CE0000440B0890443AC8201A8FEF7B4FFC648A3
:101CF000874202D1DDF810A001E0DDF80CA0A88930
:101D000000F4004040B10AEBCA0000EB0A10316851
:101D10004900B0FBF1F807E00AEBCA0000EB0A103B
:101D200031688900B0FBF1F86420B8FBF0F00401E1
:101D30002009642101FB1089A88900F4004040B10A
:101D4000322000EBC900B0FBF1F000F007000443C3
:101D500008E0322000EB09106421B0FBF1F000F044
:101D60000F0004432C8106B0BDE8F0874FF41651F4
:101D7000016000218180C18001810C21418100210D
:101D80008181704710B502460020108A4FF2FF0390
:101D900018400B884C8823438C882343CC882343EA
:101DA0001843108210BD0021018041808180C180D4
:101DB000704721B1828942F40052828104E0828915
:101DC0004DF6FF731A4082817047F0B50346002438
:101DD00000260025002040F66A17B94200D100BF56
:101DE0001846C1F3421401F01F06012707FA06F551
:101DF000012C01D10C3004E0022C01D1103000E0A4
:101E000014301AB107682F43076002E00768AF4338
:101E10000760F0BD1AB1838A0B43838202E0838A94
:101E20008B4383827047028A4FF6F0731A40028216
:101E3000028A0A430282704782894FF2FF731A4076
:101E4000828182890A438281704721B1828942F06E
:101E50000202828104E082894FF6FD731A4082817A
:101E60007047028A4FF6DF731A400282028A0A43E1
:101E70000282704721B1028A42F48042028204E069
:101E8000028A4BF6FF731A4002827047C1F30802C0
:101E90008280704701468888C0F3080070478189B6
:101EA00041F0010181817047028BD2B20283028B23
:101EB00042EA012202837047028B02F47F420283CE
:101EC000028B0A430283704721B1828A42F02002CA
:101ED000828204E0828A4FF6DF731A408282704762
:101EE00021B1828A42F01002828204E0828A4FF697
:101EF000EF731A408282704721B1828A42F0080251
:101F0000828204E0828A4FF6F7731A408282704719
:101F100021B1828942F40042828103E08289C2F3C6
:101F20000E028281704721B1828A42F4006282826D
:101F300004E0828A4FF2FF731A4082827047828ADD
:101F40004FF6FB731A408282828A0A43828270476C
:101F500021B1828A42F00202828204E0828A4FF634
:101F6000FD731A408282704702460020B1F5007F5F
:101F700000D100BF13880B400BB1012000E000200E
:101F8000704701F40072B2F5007F00D100BFCA4370
:101F90000280704770B5024600240023002500200F
:101FA00040F66A16B14200D100BFC1F3421501F0FC
:101FB0001F03012606FA03F3012D02D1968933404F
:101FC00006E0022D02D1168A334001E0968A3340A2
:101FD0000C12012606FA04F41688344013B10CB131
:101FE000012000E0002070BD10B50022002340F663
:101FF0006A14A14200D100BF0A1201249440A3B286
:10200000DC43048010BD0000003801400044004063
:1020100000480040004C0040005000400648804707
:1020200006480047FEE7FEE7FEE7FEE7FEE7FEE7BD
:10203000FEE7FEE7FEE7FEE7C70200083101000801
:10204000704700BFFEE700BFFEE700BFFEE700BF2E
:10205000FEE7704710B500220421052001F09EF92B
:102060003549086000220421052001F097F9334921
:1020700008603148006838B10846006820B14FF068
:10208000FF312FA000F0DCFA10BD1FB50020314A4F
:102090000623CDE9012000930390034680222EA160
:1020A000304801F066FD00202F4A0323CDE90120CE
:1020B0000093039003464FF480722CA12E4801F048
:1020C00058FD00202D4A0723CDE9012000930390FD
:1020D00003464FF480722AA12C4801F04AFD0020EB
:1020E0002B4A0B23CDE901200093039003464FF4C4
:1020F000807228A12B4801F03CFD0020244A0C23CB
:10210000CDE901200093039003464FF4807221A192
:10211000254801F02EFD1FBD012080F3108800BF6F
:1021200000F0C2F800F042F8FFF7AFFFFFF792FFB0
:1021300002F0FFF900BFFEE7380000203C0000205D
:10214000B4B4BDA8CFFBCFA2B6D3C1D0B3C9B9A692
:10215000210D0A00280000205461736B204C656437
:1021600000000000D54F00082C0000205461736B64
:10217000204370750000000051500008300000201E
:102180005461736B204B657900000000AF4F00086D
:10219000340000205461736B2055617274315278A1
:1021A00000000000055000082950000810B5002369
:1021B000012244F620610A4800F03EFD10BD10B532
:1021C00001210748FFF711FD40B106480068401C97
:1021D0000449086001210248FFF718FD10BD000006
:1021E000001000404000002038B504460121E0689E
:1021F000FEF79EFDA08A80B2ADF8000010208DF899
:10220000030003208DF8020069462069FEF7D4FA26
:1022100038BD10B52048FFF7E7FF2048FFF7E4FF7F
:102220001F48FFF7E1FF1F48FFF7DEFF1A4A928AB7
:1022300091B2194A1069FEF76CFB184A928A91B262
:10224000164A1069FEF765FB154A928A91B2144A44
:102250001069FEF75EFB134A928A91B2114A106927
:10226000FEF757FB10BD19B9D0E90423136112E042
:10227000002903DAD0E9042353610CE08268521C80
:1022800082608A4207DB0269D26843695A40036967
:10229000DA60002282607047440000205C00002069
:1022A000740000208C00002010B54FF44070FEF741
:1022B0008BF8FFF7AEFF00F017F8052000F001F9EA
:1022C00010BD000038B504460121A068FEF730FDBE
:1022D000208A80B2ADF8000028208DF803006946FE
:1022E000E068FEF769FA38BD10B53248FFF7EAFF3B
:1022F0003148FFF7E7FF10BD10B50446A088401C29
:10230000A080607820B1012812D002284FD120E0AF
:10231000228A91B2E068FEF7E2FA30B901206070DB
:102320000020A080A071A07001E00020A0803FE00C
:10233000228A91B2E068FEF7D2FA10B902206070EA
:1023400006E0002060701D490870A070A080A07198
:102350002EE0228A91B2E068FEF7C1FA012819D175
:10236000A088322805DA2078144908700120A0706E
:1023700003E0002011490870A070E079012802D123
:102380000020E07101E00120E07100206070A08079
:10239000A0710BE0A088322801DD0220A070A08887
:1023A00041F28831884201DD0846A08000E000BF8C
:1023B00000BF10BDA8000020BC000020A400002029
:1023C00038B504460E208DF8000006208DF8010077
:1023D00000208DF8020001208DF803006846FDF70B
:1023E000F8FF25208DF800008DF8014000208DF8C1
:1023F000020001208DF803006846FDF7EAFF38BDB2
:1024000000B58BB001210846FEF785FC0021BA48D3
:10241000FEF715F9B848FEF745F8B8480090B848F7
:102420000190102002903220039000200490802020
:10243000059000200690079008904FF440500990B6
:1024400000200A906946AC48FEF7CEF84FF4805061
:10245000FEF724F90021A848FEF7F1F80122022135
:10246000A548FEF7F8F80021A3481430FEF7E7F876
:10247000A1481430FEF716F8A0480090A14801903A
:1024800000200290322003900020049080200590CC
:1024900000200690079008904FF4405009900020CB
:1024A0000A90694694481430FEF79EF84FF4803045
:1024B000FEF7F4F8012190481430FEF7C0F80BB095
:1024C00000BD10B586B0044601210420FEF730FCA3
:1024D00001218803FEF72CFC4FF40070ADF81400C6
:1024E00018208DF8170003208DF8160005A98648DE
:1024F000FEF762F94FF48060ADF8140004208DF807
:10250000170005A98048FEF757F92046FFF758FF46
:10251000FFF776FF4FF4E13001900020ADF808009E
:10252000ADF80A00ADF80C00ADF810000C20ADF8C5
:102530000E0001A97148001FFFF7AFFB012240F216
:1025400024416E48001FFFF740FC01216B48001F2B
:10255000FFF72FFC012280216848001FFFF75AFC7B
:10256000012240216548001FFFF754FC06B010BD52
:1025700010B504460120654908705F4844388464FA
:1025800001215D48FEF75BF810BD10B54FF4805097
:10259000FEF78FF850B100205C4908704FF480506E
:1025A000FEF77CF800215448FEF749F810BD08B545
:1025B0000020009040F224415048001FFFF7EAFC41
:1025C000B8B340F224414D48001FFFF70DFD4B48C2
:1025D000001FFFF75FFC10214848001FFFF7D1FCE8
:1025E000002145481430FEF72AF84FF48030FEF7FA
:1025F00055F841481430FEF739F8C0F1320044492B
:10260000087032203C494439C86500236A463D4978
:102610004048006801F010F83A48374944394866A4
:10262000012135481430FEF70AF83448001FFFF73F
:1026300031FC009818B14FF080503749086008BD50
:1026400070B505460C46002C03DA284602F096FDCC
:1026500004B200BF2D4800780028FBD1284921444E
:10266000487022462946264802F064FDA0B2FFF7D2
:102670007FFF70BD70B504460D4629462046FFF722
:1026800005FC00BF80212046FFF76EFC0028F9D032
:1026900070BD70B506460C46002500BF615D304632
:1026A000FFF7E8FF6D1C605D0028F7D100BF4021F7
:1026B0003046FFF759FC0028F9D070BD2DE9F041F4
:1026C00005460C46260AE7B231462846FFF7DEFBF0
:1026D00000BF80212846FFF747FC0028F9D0394683
:1026E0002846FFF7D3FB00BF80212846FFF73CFCBC
:1026F0000028F9D0BDE8F0814400024004380140D0
:10270000380100206A01002000080140D0000020AC
:10271000D10000203C00002004ED00E00146002034
:10272000FE4A914201D104201CE0FD4A914201D1B0
:10273000082017E0FB4A914201D1102012E0FA4A2A
:10274000914201D120200DE0F84A914201D1402070
:1027500008E0F74A914201D1802003E0F54A914216
:1027600000D18815704701460020F34A914201D1FB
:10277000C81442E0F14A914201D148143DE0F04AC8
:10278000914202D14FF4002037E0EE4A914202D14B
:102790004FF4801031E0EC4A914202D14FF4001026
:1027A0002BE0B1F1804F01D1012026E0E74A9142B0
:1027B00001D1022021E0E64A914201D104201CE02F
:1027C000E44A914201D1082017E0E34A914201D145
:1027D000102012E0E14A914201D120200DE0E04AB0
:1027E000914201D1402008E0DE4A914201D180208F
:1027F00003E0DD4A914200D1881570472DE9F84386
:1028000006460D46144698463046FFF787FF0746B2
:102810000121FEF78DFAC848844202D0C74884429D
:1028200007D12046FFF79FFF07460121FEF780FAF8
:1028300006E02046FFF797FF07460121FEF785FADD
:10284000ADF8005018208DF8030003208DF8020029
:1028500069463046FDF7B0FFBDE8F883F8B5054698
:102860000C462846FFF75AFF06460121FEF760FA9C
:10287000ADF8004010208DF8030003208DF8020011
:1028800069462846FDF798FFF8BD2DE9FF4F87B050
:10289000834614461D46DDE9146ABAF1000F0FD1D4
:1028A00000212046FEF7D8FE58460899FFF7D6FFCC
:1028B000002258460899FEF730F80BB0BDE8F08FBB
:1028C00042F2107082450DD100212046FEF7C4FE71
:1028D00058460899FFF7C2FF012258460899FEF7AB
:1028E0001CF8EAE72B46224658460899FFF786FF70
:1028F000914884420BD09148844208D09048844249
:1029000005D09048844202D08F48844203D1974832
:10291000D0F8008002E09548D0F80080642E0AD2FA
:1029200042F20F7942F21070B8FBF0F0B0FBF6F013
:10293000401E87B213E040F6B830864209D24FF00D
:1029400063096420B8FBF0F0B0FBF6F0401E87B2DC
:1029500005E04FF00009B8FBF6F0401E87B2ADF875
:102960001470ADF810900020ADF81600ADF812000C
:102970008DF8180004A92046FEF712FB6846FEF702
:1029800044FE6020ADF800000120ADF802000AFB13
:1029900007F042F21071B0FBF1F080B2ADF8060022
:1029A0000020ADF80800ADF80400ADF80A00ADF85D
:1029B0000C00ADF80E00012D08D169462046FEF747
:1029C0002CFB08212046FEF777FF1FE0022D08D1DF
:1029D00069462046FEF763FB08212046FEF775FF97
:1029E00014E0032D08D169462046FEF7A5FB082117
:1029F0002046FEF777FF09E0042D07D169462046FF
:102A0000FEF7E5FB08212046FEF775FF0121204671
:102A1000FEF722FF01212046FEF71EFE46488442B3
:102A200002D04648844203D101212046FEF720FE11
:102A300000BF42E72DE9FF4F87B0834614461D468D
:102A4000DDE9146ABAF1000F0FD100212046FEF72C
:102A500003FE58460899FFF701FF002258460899DF
:102A6000FDF75BFF0BB0BDE8F08F42F210708245BE
:102A70000DD100212046FEF7EFFD58460899FFF7DB
:102A8000EDFE012258460899FDF747FFEAE72B467D
:102A9000224658460899FFF7B1FE274884420BD0DA
:102AA0002648844208D02648844205D025488442DE
:102AB00002D02548844203D12C48D0F8008002E09F
:102AC0002A48D0F80080642E0AD242F20F7942F2EE
:102AD0001070B8FBF0F0B0FBF6F0401E87B213E0C8
:102AE00040F6B830864209D24FF063096420B8FB43
:102AF000F0F0B0FBF6F0401E87B205E04FF00009A1
:102B0000B8FBF6F0401E87B2ADF81470ADF8109027
:102B10000020ADF81600ADF8120029E000080140D1
:102B2000000C014000100140001401400018014059
:102B3000001C014000200140002C014000340140F5
:102B4000004C01400050014000540140000400408E
:102B500000080040000C004000100040001400403D
:102B600000180040001C0040002000400000002031
:102B70008DF8180004A92046FEF712FA6846FEF701
:102B800044FD6020ADF800000020ADF802000AFB13
:102B900007F042F21071B0FBF1F080B2ADF8060020
:102BA0000020ADF808000420ADF804000020ADF8C6
:102BB0000A00ADF80C00ADF80E00012D08D16946F1
:102BC0002046FEF72AFA08212046FEF775FE1FE090
:102BD000022D08D169462046FEF761FA08212046F9
:102BE000FEF773FE14E0032D08D169462046FEF778
:102BF000A3FA08212046FEF775FE09E0042D07D14F
:102C000069462046FEF7E3FA08212046FEF773FEE8
:102C100001212046FEF720FE01212046FEF71CFD83
:102C20007D48844202D07D48844203D10121204660
:102C3000FEF71EFD00BF15E72DE9FF5F04460D46B8
:102C400091469A467448844202D07448844207D11F
:102C50002046FFF788FD83460121FEF769F806E06C
:102C60002046FFF780FD83460121FEF76EF8002D18
:102C700041D100212046FEF7EFFCAB466648844276
:102C800002D14FF0190B28E0B4F1804F02D14FF080
:102C90001C0B22E06248844202D14FF01D0B1CE065
:102CA0006048844202D14FF01E0B16E05E48844219
:102CB00002D14FF0320B10E05C48844202D14FF059
:102CC000360B0AE05A48844202D14FF0370B04E039
:102CD0005248844201D14FF02C0B8DF800B08DF892
:102CE00001908DF802A000208DF803006846FDF7E2
:102CF00070FBBDE8FF9F484884420BD047488442A0
:102D000008D04C48844205D04B48844202D04B48FE
:102D1000844202D14A48066801E049480668642DA9
:102D20000AD242F20F7842F21070B6FBF0F0B0FB1C
:102D3000F5F0401E87B213E040F6B830854209D264
:102D40004FF063086420B6FBF0F0B0FBF5F0401ED6
:102D500087B205E04FF00008B6FBF5F0401E87B2E1
:102D6000ADF80870ADF804800020ADF80A00ADF8A9
:102D700006008DF80C0001A92046FEF711F901218B
:102D80002046FEF769FD012211462046FEF77FFC32
:102D900001212046FEF760FC4FF0000B1E488442E4
:102DA00002D14FF0190B28E0B4F1804F02D14FF05F
:102DB0001C0B22E01A48844202D14FF01D0B1CE08C
:102DC0001848844202D14FF01E0B16E01648844288
:102DD00002D14FF0320B10E01448844202D14FF080
:102DE000360B0AE01248844202D14FF0370B04E060
:102DF0000A48844201D14FF02C0B8DF800B08DF8B9
:102E000001908DF802A001208DF803006846FDF7BF
:102E1000E0FA00BF6DE70000002C014000340140E3
:102E20000004004000080040000C0040001000407A
:102E300000140040004C014000500140005401408B
:102E40000000002010B501468E4800E000680368CD
:102E50008B42FBD30246436813448B4204D1436840
:102E60004C682344436001460A464B681344046897
:102E7000A34211D1844C03682468A34208D04B6854
:102E80000468646823444B6003681B680B6005E0BA
:102E90007D4B1B680B6001E003680B60884200D02B
:102EA000016010BD30B54FF47053784800F007044E
:102EB0002CB1C01D20F00700744C041B1B1B0246E4
:102EC000704C226000246F4D6C60D018083820F0E0
:102ED00007006D4C206000246B4D2D686C606A4DBE
:102EE0002D682C601146441A4C60674C24680C60B5
:102EF000674D4C682C60674D4C682C604FF0004467
:102F0000654D2C6030BD2DE9F04104464FF00008BE
:102F100001F058F85C48006808B9FFF7C3FF5E4845
:102F20000068204000285DD19CB1083404F00700FF
:102F300078B104F00700C0F10800044404F0070071
:102F400008B9012000E0002018B9FDF73FF900BFE3
:102F5000FEE7002C46D04F480068844242D8494ED4
:102F60003046056801E02E462D686868A04202D20E
:102F700028680028F7D144480068854232D030687C
:102F800000F10808286830606868001B102812D912
:102F90002F1907F0070008B9012000E0002018B938
:102FA000FDF714F900BFFEE76868001B78606C60ED
:102FB0003846FFF747FF374968680968081A3549F6
:102FC00008600846006832490968884203D23148DF
:102FD00000682F49086030496868096808436860DC
:102FE0000020286000F042FF08F0070008B9012027
:102FF00000E0002018B9FDF7E9F800BFFEE7404601
:10300000BDE8F08170B506463546002E31D0083D4A
:103010002C46214960680968084008B1012000E099
:10302000002018B9FDF7D2F800BFFEE7206808B904
:10303000012000E0002018B9FDF7C8F800BFFEE746
:10304000154960680968084098B1206888B9124934
:10305000606809688843606000F0B4FF0D496068EB
:10306000096808440B4908602046FFF7EBFE00F0B2
:10307000FDFE70BD0748006870470548006870474E
:1030800070470000D4000020DC0000209C010020DC
:10309000E4000020E0000020E800002075480068FF
:1030A000401C08B9012000E0002018B9FDF78EF897
:1030B00000BFFEE7FDF78AF800BFFEE7001F4FF0F4
:1030C00080730360001F0160001F6B4B03601438A6
:1030D00002602038704769484FF0E02148610720BE
:1030E000086170471CB56648014609780191FF21C7
:1030F000024611700146097800919DF8001001F018
:103100001001604A117007215F4A116009E05E49B1
:103110000968491E5C4A11609DF800104906090EB5
:1031200000919DF8001001F080018029EFD05649F0
:1031300009680902544A11601146098801F4E061E6
:1031400011604F4A019911705048006840F47000B6
:103150004E4908600846006840F070400860FFF77C
:10316000BAFF002043490860FCF7FEFF00201CBDA9
:1031700010B540480068B0F57A7F01D1012000E029
:10318000002018B9FDF722F800BFFEE710BD4FF090
:1031900080503E491C390860BFF34F8FBFF36F8FDB
:1031A000704710B5FDF712F832480068401C3149ED
:1031B0000860BFF34F8FBFF36F8F08460068012888
:1031C0000CD132481C380068C0B208B9012000E0B8
:1031D000002018B9FCF7FAFF00BFFEE710BD10B5DC
:1031E0002448006818B9FCF7F1FF00BFFEE721484A
:1031F0000068401E1F4908600846006810B900209A
:10320000FCF7EBFF10BD10B5FCF7E0FF00F0A6FDEA
:1032100020B14FF080501D491C3908600020FCF798
:10322000DCFF10BD70B5FCF7DBFF0546102D0FD39A
:1032300005F1E02090F8F04312480078844201DB69
:10324000012000E0002018B9FCF7C0FF00BFFEE736
:103250000E481438006800F4E0600B4909688842A1
:1032600001D8012000E0002018B9FCF7AFFF00BF33
:10327000FEE770BDEC0000209D3000083F19010002
:1032800000E400E0F0000020F400002020ED00E069
:1032900000F1080141604FF0FF31816000F1080149
:1032A000C160016100210160704700210161704728
:1032B00042684A6093688B609368596091600861C6
:1032C00003685B1C0360704710B502460B685C1C0A
:1032D0000CB9106907E002F1080000E0406844689A
:1032E00024689C42FAD944684C604C68A1608860AC
:1032F00041600A611468641C146010BD01460A69CB
:10330000D1E901309860D1E90103586050688842E2
:1033100001D188685060002008611068401E10606C
:103320001068704770B505460E462C461CB9FCF770
:103330004DFF00BFFEE7FFF734FFD4E90F1220680E
:1033400001FB020060600020A0632068A060E06BC9
:10335000401E226C216800FB0210E0604FF0FF303D
:103360006064A06476B9206908B9012000E00020FB
:1033700080B904F1100001F054FA01280AD1FFF7D6
:1033800006FF07E004F11000FFF782FF04F12400BC
:10339000FFF77EFFFFF723FF012070BD2DE9F04707
:1033A00006460D4690464FF000090EB1012000E0A0
:1033B000002018B9FCF70AFF00BFFEE70DB900278F
:1033C00002E006FB05F0471C07F15400FFF79BFDE8
:1033D000044674B10DB9246002E004F15400206089
:1033E000E663256401212046FFF79CFF84F85080A6
:1033F000A146B9F1000F03D1FCF7E8FE00BFFEE7DC
:103400004846BDE8F08710B50446FFF7CAFE11E054
:10341000606A08B9012000E0002038B904F12400F6
:1034200001F0FFF918B101F0B8FA00E005E0A06C76
:10343000401EA064A06C0028EADC00BF4FF0FF3003
:10344000A064FFF7CCFEFFF7ACFE11E0206908B9DD
:10345000012000E0002050B904F1100001F0E1F972
:1034600008B101F09AFA606C401E606400E002E06E
:10347000606C0028EADC00BF4FF0FF306064FFF7AB
:10348000AEFE10BD70B50546FFF78BFEA86BE96B6D
:10349000884201D1012400E00024FFF7A0FE20466D
:1034A00070BD2DE9F04104460E4615460027206CFC
:1034B00040B37DB93146226CA06801F03BFE216C1F
:1034C000A0680844A060D4E9011088421AD320689B
:1034D000A06017E03146226CE06801F02BFE216C01
:1034E000E068401AE0602168E068884203D2216CFD
:1034F0006068401AE060022D04D1A06B10B1A06B8F
:10350000401EA063A06B401CA0633846BDE8F0815C
:103510002DE9FF4383B0064688461D464FF000095B
:1035200034461CB9FCF752FE00BFFEE7B8F1000FAD
:1035300001D1206C08B9012000E0002018B9FCF787
:1035400045FE00BFFEE7022D02D1E06B012801D14C
:10355000012000E0002018B9FCF738FE00BFFEE7AC
:1035600000BFFFF71EFEA06BE16B884201D3022D66
:103570001DD12A4641462046FFF793FF0746606A61
:1035800008B9012000E0002040B904F1240001F056
:1035900048F9012805D1FFF7FAFD02E00FB1FFF766
:1035A000F6FDFFF71CFE012007B0BDE8F08305988B
:1035B00018B9FFF714FE0020F6E7B9F1000F04D1A7
:1035C00001A801F0A6F94FF00109FFF708FE00F08D
:1035D000F9FCFFF7E6FD606C401C08B90020606450
:1035E000A06C401C08B90020A064FFF7F8FD05A9F5
:1035F00001A801F09CF9C0B92046FFF743FF70B164
:1036000004F11000059901F09BF82046FFF7FBFE3E
:1036100000F02CFC0028A4D1FFF7B9FDA1E720465B
:10362000FFF7F1FE00F022FC9BE72046FFF7EBFEE0
:1036300000F01CFC0020B7E72DE9F047064689465C
:1036400017461D4634461CB9FCF7C0FD00BFFEE717
:10365000B9F1000F01D1206C08B9012000E0002071
:1036600018B9FCF7B3FD00BFFEE7022D02D1E06BF5
:10367000012801D1012000E0002018B9FCF7A6FDC7
:1036800000BFFEE7FFF7CEFDFCF7A0FD8246A06B72
:10369000E16B884201D3022D1CD12A4649462046BF
:1036A000FFF7FFFEA06C401C70B9606A08B90120EA
:1036B00000E0002058B904F1240001F0B2F830B164
:1036C0002FB10120386002E0A06C401CA0644FF0D4
:1036D000010801E04FF000085046FCF77EFD40462F
:1036E000BDE8F0872DE9F04105460E462C461CB991
:1036F000FCF76CFD00BFFEE7206C08B9012000E07C
:10370000002018B9FCF762FD00BFFEE7206808B989
:10371000606808B9012000E0002018B9FCF756FDE8
:1037200000BFFEE7FFF77EFDFCF750FD8046A06B73
:10373000E16B884219D2A06B401CA063A06C401CB6
:1037400070B9606A08B9012000E0002058B904F19E
:10375000240001F066F830B12EB10120306002E0A3
:10376000A06C401CA064012700E000274046FCF745
:1037700034FD3846BDE8F08170B50546FFF711FD10
:10378000A86B08B9012400E00024FFF728FD2046BB
:1037900070BD70B504460D46206C70B1216CE068B8
:1037A0000844E0606168E068884201D32068E06016
:1037B0002846226CE16801F0BDFC70BD2DE9FF4395
:1037C00083B005460E461F464FF000092C461CB933
:1037D000FCF7FCFC00BFFEE70EB9206C08B9012025
:1037E00000E0002018B9FCF7F1FC00BFFEE700BFC5
:1037F000FFF7D7FCA06B68B3D4F80C8031462046A5
:10380000FFF7C7FF8FB9A06B401EA063206908B9FE
:10381000012000E00020B8B904F1100001F001F827
:10382000012811D1FFF7B3FC0EE0C4F80C80606AE8
:1038300008B9012000E0002030B904F1240000F0B4
:10384000F0FF08B1FFF7A3FCFFF7C9FC012007B0A8
:10385000BDE8F083059818B9FFF7C1FC0020F6E732
:10386000B9F1000F04D101A801F053F84FF001099C
:10387000FFF7B5FC00F0A6FBFFF793FC606C401C63
:1038800008B900206064A06C401C08B90020A06446
:10389000FFF7A5FC05A901A801F049F8C0B9204629
:1038A000FFF76AFF70B104F12400059900F048FFAA
:1038B0002046FFF7A8FD00F0D9FA002898D1FFF7BD
:1038C00066FC95E72046FFF79EFD00F0CFFA8FE7F4
:1038D0002046FFF798FD00F0C9FA0020B7E72DE970
:1038E000F0470546884616462C461CB9FCF76EFC88
:1038F00000BFFEE7B8F1000F01D1206C08B901202C
:1039000000E0002018B9FCF761FC00BFFEE7FFF7FC
:1039100089FCFCF75BFC8146A06BE8B14146204680
:10392000FFF737FFA06B401EA063606C401C70B9AE
:10393000206908B9012000E0002058B904F1100006
:1039400000F06FFF30B12EB10120306002E0606CFA
:10395000401C6064012700E000274846FCF73DFC5E
:103960003846BDE8F0872DE9F04705460F462C465E
:103970001CB9FCF72BFC00BFFEE70FB9206C08B99F
:10398000012000E0002018B9FCF720FC00BFFEE792
:10399000206C08B1012000E0002018B9FCF716FCEB
:1039A00000BFFEE7FFF73EFCFCF710FC8146A06B72
:1039B00048B1D4F80C8039462046FFF7EAFEC4F837
:1039C0000C80012600E000264846FCF706FC304645
:1039D000BDE8F08770B504461CB9FCF7F7FB00BFE3
:1039E000FEE7FFF7DEFBA56BFFF7F9FB284670BD8E
:1039F00070B5044625461DB9FCF7E8FB00BFFEE79D
:103A0000FFF7CFFBD5E90E10461AFFF7E8FB30466B
:103A100070BD70B504461CB9FCF7D8FB00BFFEE7CB
:103A2000A56B284670BD70B5044625461DB9FCF748
:103A3000CDFB00BFFEE72846FFF7E4FA70BD014664
:103A4000C86C7047C1647047014691F850007047D8
:103A500070B505461DB9FCF7B9FB00BFFEE7A86BC2
:103A600008B9012400E00024204670BD70B504466A
:103A70001CB9FCF7ABFB00BFFEE7A06BE16B884213
:103A800001D1012500E00025284670BD10B50024B5
:103A900007E004EB8401FA4A02EB8100FFF7F8FB30
:103AA000641C1E2CF5D3F748FFF7F2FBF648FFF72E
:103AB000EFFBF648FFF7ECFBF548FFF7E9FBF548AD
:103AC000FFF7E6FBEF48F4490860EF48F349086068
:103AD00010BD2DE9F04704460F4616469946DDF81D
:103AE0002080002507E0795D04F134004155785DC0
:103AF00000B902E06D1C102DF5D300BF002143205A
:103B000001551E2E00D31D26E662201DFFF7CDFBBA
:103B100004F11800FFF7C9FB2461C6F11E00A06183
:103B200064620020E064206584F85400BDE8F087FA
:103B30002DE9F04105460F461FB9A800FFF7E3F94C
:103B400000E03846064656B15820FFF7DCF9044637
:103B50000CB1266304E03046FFF754FA00E000247D
:103B600024B1A900A522206B01F0F6FA2046BDE899
:103B7000F0812DE9FF4F81B0804616469A46DDE977
:103B80000E5BB8F1000F03D1FCF720FB00BFFEE78E
:103B90001E2D01D2012000E0002018B9FCF716FB11
:103BA00000BFFEE730461099FFF7C2FF0446002C25
:103BB0005DD0701E216B01EB800929F0070909F027
:103BC000070008B9012000E0002018B9FCF7FEFA50
:103BD00000BFFEE700962A462046119B0299FFF798
:103BE00078FF524641464846FFF768FA2060BBF12D
:103BF000000F01D0CBF80040FFF7D3FAA8480068C7
:103C0000401CA7490860A748006840B9A54804605F
:103C10000846006801280CD1FFF738FF09E0A248E8
:103C2000006830B99F480068C06AA84201D89D4822
:103C300004609E480068401C9C4908600846006873
:103C4000606494F82C100120884099490968084361
:103C500097490860E16A01EB8101894A02EB810022
:103C6000211DFFF725FB0127FFF7B9FA01E04FF00F
:103C7000FF37012F09D18C48006830B189480068AE
:103C8000C06AA84201D2FFF782FA384605B0BDE803
:103C9000F08F81490968096809B9012100E0002114
:103CA00021B14FF0FF31834A116006E07A4909687B
:103CB000C968C8687F4A41681160704770B5054699
:103CC000FFF76FFA15B97748006800E02846044608
:103CD000201DFFF713FB78B9E06A00EB800068490C
:103CE00051F8200040B994F82C1001208840704908
:103CF000096881436E480160A06A18B104F1180098
:103D0000FFF7FCFA211D6248FFF7D2FA6A48006803
:103D1000401C6949086065480068401C63490860A8
:103D2000FFF75DFA60480068B8B15E4800688442F9
:103D30000DD16248006808B9012000E0002018B9E0
:103D4000FCF744FA00BFFEE7FFF721FA05E0FFF7B2
:103D500028FAFFF79EFFFFF742FA70BD2DE9F04108
:103D60004FF0000855480068002872D15448006898
:103D7000401C5349086008460668DEB9464800689A
:103D8000006808B9012000E0002018B9FCF71EFA0D
:103D900000BFFEE740480768404800683E490860A9
:103DA0003E48076047480068401C46490860FFF7E6
:103DB00070FF00BF3F48006886423CD300BF3648D2
:103DC0000068006808B9012000E0002020B14FF031
:103DD000FF30384908602DE02F480068C068C4688B
:103DE0006568AE4202D23348056023E0201DFFF72C
:103DF00085FAA06A18B104F11800FFF77FFA94F869
:103E00002C10012088402A49096808432849086085
:103E1000E16A01EB81011A4A02EB8100211DFFF7E3
:103E200047FA2049E06A0968C96A8842C7D34FF057
:103E30000108C4E700BF1B480068C06A00EB8000AF
:103E40000F4951F82000012808D94FF0010805E07A
:103E5000FFE71D480068401C1B4908601B480068BC
:103E600008B14FF001084046BDE8F08170B500256B
:103E70001248006818B9FCF7A9F900BFFEE727E06F
:103E80009C3D0020F43F0020084000201C40002002
:103E90003040002044400020FC00002000010020B1
:103EA00008010020F8000020140100202401002057
:103EB0001001002028010020040100202C01002016
:103EC0000C01002020010020180100201C0100200E
:103ED000FFF767F9F7480068401EF6490860084692
:103EE000006800284BD1F4480068002847D024E03F
:103EF000F248C068C46804F11800FFF7FFF9201DFC
:103F0000FFF7FCF994F82C1001208840EC4909686F
:103F10000843EB490860E16A01EB8101E94A02EBE1
:103F20008100211DFFF7C4F9E749E06A0968C96A01
:103F3000884202D30120E5490860E048006808B9DA
:103F4000012000E000200028D2D0E148006878B1CC
:103F50000AE0FFF703FF10B10120DC490860DC48EC
:103F60000068401EDA490860D94800680028F0D18E
:103F7000D6480068012802D10125FFF708F9FFF7AC
:103F80002EF9284670BD10B50446CF48006844603D
:103F9000D0480068844207D2CB480168091DCE484A
:103FA0000068FFF791F90CE0C7480168091DCB488C
:103FB0000068FFF789F9CA480068844201D2C848FE
:103FC000046010BDBB480068401CBA4908607047D7
:103FD0002DE9F04704460E464FF000091CB9FCF7E6
:103FE000F5F800BFFEE70EB1012000E0002018B98F
:103FF000FCF7ECF800BFFEE7AE48006808B9012006
:1040000000E0002018B9FCF7E1F800BFFEE7FFF779
:10401000D9FFB048D0F80080206885192068404555
:1040200007D92068A8420BD9454509D94FF00109A5
:1040300006E02068A84201D8454501D94FF00109A2
:104040002560B9F1000F13D09F480068001DFFF7ED
:1040500055F950B99C48006890F82C100120884010
:10406000974909688143964801602846FFF78BFF0E
:10407000FFF7FCFE07460FB9FFF789F8BDE8F087A8
:1040800070B50446002634B38A48006808B9012098
:1040900000E0002018B9FCF799F800BFFEE7FFF731
:1040A00091FF8C480068051987480068001DFFF7DC
:1040B00025F950B98448006890F82C1001208840F8
:1040C0007F49096881437E4801602846FFF75BFF0E
:1040D000FFF7CCFE06460EB9FFF759F870BD70B574
:1040E0000446FFF75EF814B97748006800E0204600
:1040F0000646F56AFFF773F8284670BD2DE9F041D2
:104100000446FFF78FF8FCF761F8064614B96E48CD
:10411000006800E020460746FD6A3046FCF75DF87F
:104120002846BDE8F0812DE9F04780460D464FF066
:1041300000091E2D01D2012000E0002018B9FCF773
:1041400045F800BFFEE71E2D00D31D25FFF729F817
:10415000B8F1000F02D15C48006800E04046044618
:10416000E66AAE424BD0B5420BD95748006884424C
:104170000DD055480068C06AA84208D84FF0010920
:1041800005E051480068844201D14FF00109E76A17
:10419000E562A06900F0004010B9C5F11E00A06101
:1041A00007EB8701474A02EB81016069884201D130
:1041B000012000E00020E0B1201DFFF79FF830B99A
:1041C0000120B8403E49096881433D48016094F8A8
:1041D0002C10012088403A49096808433849086092
:1041E000E16A01EB8101374A02EB8100211DFFF7F3
:1041F0005FF8B9F1010F01D1FEF7C9FF00BFFEF76B
:10420000EEFFBDE8F08710B52A48006818B101201C
:104210002E49086045E000202C49086031480068BC
:1042200031490860084600683049096888420BD95E
:104230002549096801F14C00C96C2B4A12682B4BC7
:104240001B68D21A1144016027480068274908609A
:104250001B480068B0FA80F0C0F11F0404EB840032
:10426000184951F8200008B1012000E0002018B9D9
:10427000FBF7ACFF00BFFEE704EB8401114A02EB41
:10428000810041684968416000F1080142688A4242
:1042900002D14168496841604168C9680A4A1160B1
:1042A00000BF10BD70B50546FEF77BFF05BB064895
:1042B00000681EE02C010020080100201C400020A6
:1042C000100100209C3D0020F80000201C0100206F
:1042D000180100200C01002000010020FC0000203B
:1042E000280100204000002034010020300100207F
:1042F00028460446201DFFF701F878B9E06A00EB74
:104300008000FD4951F8200040B994F82C1001209C
:104310008840FA4909688143F8480160A06A18B1E9
:1043200004F11800FEF7EAFF211DF548FEF7C0FF73
:10433000FEF755FFF348006884421DD1F24800683B
:1043400068B1F248006808B9012000E0002018B9FF
:10435000FBF73CFF00BFFEE7FEF719FF15E0E8485A
:104360000068EB490968884203D10020E5490860EC
:104370000BE0FFF748FF08E0E348006828B1FEF7CC
:1043800010FFFFF786FCFEF72AFF70BD70B50546EB
:1043900000262C461DB9FBF719FF00BFFEE7D849E0
:1043A0006069884201D1012000E0002070B1D94944
:1043B000A06A884201D1012000E0002030B9A06A43
:1043C00008B9012000E0002000B10126304670BD90
:1043D00070B505462C461DB9FBF7F8FE00BFFEE799
:1043E0004CB3C8480068844225D0FEF7DAFE204668
:1043F000FFF7CCFF01281CD1201DFEF77FFF94F8AA
:104400002C1001208840BD4909680843BB49086059
:10441000E16A01EB8101B84A02EB8100211DFEF740
:1044200047FFB849E06A0968C96A884201D3FEF7C4
:10443000AEFEFEF7D4FE70BD2DE9F0410546002624
:104440002C461DB9FBF7C2FE00BFFEE7FEF7EAFEF1
:10445000FBF7BCFE07462046FFF798FF012824D152
:10446000AA480068E0B9A749E06A0968C96A8842B1
:1044700000D30126201DFEF741FF94F82C100120E7
:1044800088409E49096808439C490860E16A01EB3D
:104490008101994A02EB8100211DFEF709FF04E02A
:1044A00004F118019B48FEF703FF3846FBF795FE21
:1044B0003046BDE8F08110B50446206BFEF7A2FD42
:1044C0002046FEF79FFD10BD70B523E0FFF77AFD93
:1044D0009148006808B9012000E000200546FFF778
:1044E000C5FCBDB9FEF75DFE8B48C068C468201DE1
:1044F000FEF704FF86480068401E8549086087482B
:104500000068401E85490860FEF769FE2046FFF7F7
:10451000D2FF00BF814800680028D7D170BD00BF1E
:10452000FFF7D2FF744800680128F9D9FEF72FFE83
:10453000F6E71FB50020009001900290034680220C
:1045400077A103907848FFF714FB0446012C0FD1A4
:10455000FBF73CFEA01E7549086001206A4908600F
:1045600000207349086073490860FEF7BBFD04E052
:104570001CB9FBF72BFE00BFFEE71FBD10B5FBF714
:1045800025FE002060490860FEF7F2FD10BD684975
:104590000868704770B5FEF745FE0025644804685A
:1045A000204670BD5A48006870470246002101E06D
:1045B000521C491C1078A528FAD0890888B2704787
:1045C0002DE9F04706460C46904600252068002855
:1045D0004BD0204641684968416000F108014268BB
:1045E0008A4202D14168496841604168D1F80C9023
:1045F00000BF204641684968416000F108014268F7
:104600008A4202D14168496841604168CF6806EB3F
:104610004510076007F1340006EB45114860786CDF
:1046200006EB4511886006EB451080F80C80F86AAF
:1046300006EB45110861B8F1030F05D1B86A18B14E
:10464000022006EB45110873002006EB4511486176
:10465000F86C06EB45118861386BFFF7A6FF06EB97
:10466000451188836D1C4F45C3D12846BDE8F087AE
:104670002DE9F04105468846164600241E27FFF71F
:10468000A1FC23480068804530D300BF7F1E07EBA4
:104690008702194B03EB820105EB44100122FFF75F
:1046A0008FFF0444002FF1D105EB44100222224970
:1046B0000968FFF785FF044405EB441002221F49F7
:1046C0000968FFF77DFF044405EB441004221249FA
:1046D000FFF776FF044405EB441003220849FFF777
:1046E0006FFF044416B1134800683060FFF7BEFB4B
:1046F0002046BDE8F08100009C3D00201001002014
:1047000044400020F8000020140100202C0100206B
:10471000080100201C40002030400020040100203F
:1047200049444C45000000001F45000828010020B6
:104730000C01002040000020FC00002000010020AF
:1047400070B505460C461DB9FBF740FD00BFFEE7FE
:10475000F948016818312846FEF7B6FDF6480068AA
:10476000001DFEF7CBFD50B9F348006890F82C10FF
:1047700001208840F14909688143F0480160601CCC
:1047800030B9ED480168091DED48FEF791FD05E0DF
:10479000EC48006806193046FFF7F5FB70BD2DE9BF
:1047A000F04105460E4614461DB9FBF70FFD00BF4C
:1047B000FEE7E548006808B1012000E0002018B9D4
:1047C000FBF704FD00BFFEE746F00040DA49096848
:1047D0008861D948016818312846FEF769FDD64836
:1047E0000068001DFEF78AFD50B9D348006890F8B4
:1047F0002C1001208840D14909688143CF480160CD
:10480000601C30B9CC480168091DCD48FEF750FD49
:1048100005E0CC48006807193846FFF7B4FBBDE84F
:10482000F08170B50646F068C4681CB9FBF7CEFC91
:1048300000BFFEE704F11800FEF760FDC248006803
:10484000A8B9201DFEF75AFD94F82C1001208840CD
:10485000BA4909680843B9490860E16A01EB810176
:10486000BA4A02EB8100211DFEF722FD04E004F1AB
:104870001801B748FEF71CFDAF49E06A0968C96A2C
:10488000884204D901250120B249086000E00025D2
:10489000284670BD2DE9F04105460F46AA4800683C
:1048A00008B1012000E0002018B9FBF78FFC00BF21
:1048B000FEE747F000402860EC681CB9FBF786FC77
:1048C00000BFFEE72846FEF719FD201DFEF716FD86
:1048D00094F82C10012088409849096808439749AA
:1048E0000860E16A01EB8101984A02EB8100211D19
:1048F000FEF7DEFC9049E06A0968C96A884204D97B
:10490000012601209349086000E000263046BDE8FA
:10491000F08110B504461CB9FBF758FC00BFFEE758
:104920008D480068206087480068606010BD2DE9F0
:10493000F04104460D461CB9FBF748FC00BFFEE7FA
:104940001DB9FBF743FC00BFFEE7FEF72AFC7D48DC
:1049500007682868401C08B9002619E07E492068CD
:104960000968884204D06068B84201D801260FE087
:104970006068381A2968884209D228686168791AFB
:10498000401A28602046FFF7C4FF002600E00126F9
:10499000FEF725FC3046BDE8F08101206D49086036
:1049A0007047014611B10A46906C00E00020704744
:1049B00008B102469164704770B505460E4631460F
:1049C000284600F0E2FB284600F0D8FB044602E04F
:1049D00020202855641C0F2CFAD3002028552819B4
:1049E00070BD7FB50546002028705C4800680390C4
:1049F0005A4909684801FEF786FA0446002C49D056
:104A0000002220460399FFF733FE03900020029016
:104A100039E0029804EB4010007B012806D0022800
:104A200006D0032806D0042808D105E0522607E066
:104A3000422605E0532603E0442601E0002600BF9D
:104A400000BF029804EB401041682846FFF7B4FF0E
:104A50000546029804EB40108068029904EB41116E
:104A6000898BCDE90010029804EB401032463CA13E
:104A70000369284600F0E6FB284600F07FFB05446A
:104A80000298401C0290DDE902018842C1D3204611
:104A9000FEF7B8FA7FBDFEB50546002028702F4806
:104AA000006802902D4909684801FEF72CFA044677
:104AB000002C40D06A4620460299FFF7D9FD0290AB
:104AC00064210098B0FBF1F00090009800282FD0EE
:104AD0000020019028E0019804EB401080690099C3
:104AE000B0FBF1F6019804EB401041682846FFF74F
:104AF00063FF05464EB1019804EB401033461CA1FC
:104B00008269284600F09EFB07E0019804EB401004
:104B10001AA18269284600F095FB284600F02EFB7A
:104B200005440198401C0190DDE901018842D2D37F
:104B30002046FEF767FAFEBDF800002010010020B5
:104B4000444000200C0100202C0100209C3D00204E
:104B50001C4000201C010020200100200801002032
:104B60000925630925750925750925750D0A0000B4
:104B70000925750909257525250D0A0009257509D9
:104B8000093C3125250D0A00F84909688869F7496B
:104B90000968C96AC1F11E01F44A1268916170473F
:104BA0002DE9F04106460C46FEF7FBFAEF48006897
:104BB000006D38BB0120ED49096881F854000CB341
:104BC000EA480068001DFEF799FB50B9E748006805
:104BD00090F82C1001208840E54909688143E44899
:104BE0000160601C30B9E1480168091DE148FEF729
:104BF0005FFB05E0E048006807193846FFF7C3F996
:104C0000FEF7C5FAFEF7EBFAFEF7CBFAD7480068D5
:104C1000056D65B126B10020D4490968086506E034
:104C2000D249096801F15000096D491E0160002058
:104C3000CE49096881F85400FEF7D1FA2846BDE84C
:104C4000F0812DE9F0470746884615461C46FEF7D9
:104C5000A8FAC648006890F8540002282FD0C3492B
:104C6000096801F15000096DB94301600120BF4995
:104C7000096881F8540014B3BC480068001DFEF7B1
:104C80003DFB50B9B948006890F82C1001208840CD
:104C9000B74909688143B6480160601C30B9B34820
:104CA0000168091DB348FEF703FB06E0B24800683F
:104CB00000EB04094846FFF766F9FEF768FAFEF7CD
:104CC0008EFAFEF76EFA1DB1A8480068006D2860E4
:104CD000A648006890F85400012801D1002608E099
:104CE000A249096801F15000096D21EA080101603B
:104CF000012600209D49096881F85400FEF76FFAEB
:104D00003046BDE8F0872DE9F04706460D461746C8
:104D100098464FF0010A1EB9FBF758FA00BFFEE7AC
:104D20003446FEF73EFAB8F1000F02D0206DC8F805
:104D3000000094F85490022084F85400052F17D2F4
:104D4000DFE807F01503070B0D00206D28432065F1
:104D50000EE0206D401C20650AE0256508E0B9F1F1
:104D6000020F01D0256501E04FF0000A00E000BF0E
:104D700000BFB9F1010F26D1201DFEF7BFFA94F84C
:104D80002C10012088407A49096808437849086056
:104D9000E16A01EB8101794A02EB8100211DFEF7F6
:104DA00087FAA06A08B9012000E0002018B9FBF7D3
:104DB0000DFA00BFFEE76D49E06A0968C96A8842DA
:104DC00001D9FEF7E4F9FEF70AFA5046BDE8F0878C
:104DD0002DE9F84F06460D4617469846DDF828A0FF
:104DE0004FF0010B1EB9FBF7F1F900BFFEE7FEF72C
:104DF00019FA3446FBF7EAF90090B8F1000F02D037
:104E0000206DC8F8000094F85490022084F85400F3
:104E1000052F17D2DFE807F01503070B0D00206DF3
:104E2000284320650EE0206D401C20650AE02565C2
:104E300008E0B9F1020F01D0256501E04FF0000B49
:104E400000E000BF00BFB9F1010F33D1A06A08B97B
:104E5000012000E0002018B9FBF7B8F900BFFEE719
:104E600047480068A8B9201DFEF748FA94F82C10AE
:104E7000012088403E49096808433D490860E16ACD
:104E800001EB81013D4A02EB8100211DFEF710FA82
:104E900004E004F118013B48FEF70AFA3349E06ADE
:104EA0000968C96A884205D9BAF1000F02D0012009
:104EB000CAF800000098FBF790F95846BDE8F88F53
:104EC0002DE9F04105460E461DB9FBF77FF900BFFD
:104ED000FEE7FEF7A7F92C46FBF778F9804694F831
:104EE0005470022084F85400206D401C2065012F6E
:104EF00030D1A06A08B9012000E0002018B9FBF702
:104F000065F900BFFEE71E480068A8B9201DFEF73E
:104F1000F5F994F82C1001208840154909680843D8
:104F200013490860E16A01EB8101144A02EB810038
:104F3000211DFEF7BDF904E004F118011148FEF748
:104F4000B7F90A49E06A0968C96A884202D90EB10C
:104F5000012030604046FBF740F9BDE8F08170B5B4
:104F60000446264686B9014800680EE0F800002095
:104F700010010020444000200C0100209C3D002036
:104F80002C0100201C40002030460646FEF709F99F
:104F900096F85400022804D1002086F85400012518
:104FA00000E00025FEF71BF9284670BD70470BE0B6
:104FB0000648FDF7A1F90648FDF79EF9FFF7F6FF51
:104FC0004FF47A70FFF75CF8F2E70000A8000020C9
:104FD000BC0000200EE001210748FDF744F90A213A
:104FE0000648FDF740F964210548FDF73CF96420C7
:104FF000FFF746F8EFE70000440000205C000020C7
:10500000740000208EB000BF0DE000235A1E01A9DD
:105010000D480068FEF7D2FB00231A4601A90B4891
:105020000068FEF775FAF0E78EB000BF0BE00023D2
:105030005A1E01A905480068FEF7C0FB4FF0FF317A
:1050400001A8FDF7FDFAF2E7380000203C0000203F
:10505000FEB000BF21E011A11D48FDF71AFB1DA104
:105060001B48FDF716FB01A8FFF7BBFC01A9184878
:10507000FDF70FFB23A11648FDF70BFB01A8FFF777
:105080000AFD01A91248FDF704FB29A11048FDF70C
:1050900000FB4FF47A70FEF7F3FFDCE73D3D3D3D4A
:1050A0003D3D3D3D3D3D3D3D3D3D3D3D3D3D3D3D30
:1050B0003D3D3D3D3D3D3D3D3D3D3D3D3D3D3D3D20
:1050C0003D3D3D3D3D3D3D3D3D3D3D3D3D0D0A00B0
:1050D00000380140C8CECEF1C3FB20202020202084
:1050E000C8CECEF1D7B4CCAC20D3C5CFC8BCB62087
:1050F0002020CAA3D3E0D5BB20C8CECEF1D0F2BACF
:10510000C50D0A000D0AC8CECEF1C3FB2020202019
:10511000202020D4CBD0D0BCC6CAFD202020202007
:1051200020202020CAB9D3C3C2CA0D0A0000000043
:105130000D0A000040EA01039B0703D009E008C9FB
:10514000121F08C0042AFAD203E011F8013B00F84C
:10515000013B521EF9D27047D2B201E000F8012B98
:10516000491EFBD270470022F6E710B513460A46E7
:1051700004461946FFF7F0FF204610BD421C10F808
:10518000011B0029FBD1801A7047034611F8012B3F
:1051900000F8012B002AF9D11846704730B50B46AC
:1051A000014600202022012409E021FA02F59D4257
:1051B00005D303FA02F5491B04FA02F52844151E2B
:1051C000A2F10102F1DC30BD064C074D06E0E068BB
:1051D00040F0010394E8070098471034AC42F6D33E
:1051E000FAF7AAFF505400087054000870B58C18E4
:1051F00010F8015B15F0070301D110F8013B2A11EB
:1052000006D110F8012B03E010F8016B01F8016BD7
:105210005B1EF9D12B0705D40023521E0DD401F8D3
:10522000013BFAE710F8013BCB1A921C03E013F89C
:10523000015B01F8015B521EF9D5A142D8D30020D1
:1052400070BD00000FB4084B10B504A902AA039862
:1052500000F01CF8044602A9002000F0F3F82046F4
:1052600010BC5DF814FB00004554000802E008C8BB
:10527000121F08C1002AFAD170477047002001E0D0
:1052800001C1121F002AFBD1704700002DE9FF4F1A
:105290008BB09A460F460546002606E025280BD01F
:1052A00052460D9990476D1C761C28780028F5D140
:1052B0000FB03046BDE8F08F0024A04601226049BF
:1052C00000E0044315F8013F203B02FA03F00842D6
:1052D000F7D128782E2817D115F8010F44F00404CF
:1052E0002A280ED06FF02F022878A0F1300109296A
:1052F0000AD808EB880102EB410100EB01086D1CA4
:10530000F2E757F8048B6D1C287869283ED006DC3C
:105310000028CDD063280BD0642804D136E0732850
:1053200010D075284BD052460D999047761C85E0D9
:1053300017F8040B8DF8000000208DF80100E946F5
:10534000012003E057F8049B4FF0FF3061074FF056
:10535000000401D40AE0641C44450DDA8442FADBFF
:1053600019F804100029F6D106E0641C8442FCDB25
:1053700019F804100029F8D1264404E019F8010BAB
:1053800052460D999047641EF8D257E001CF4FF076
:105390000A0B002802DA40422D2102E0210504D543
:1053A0002B218DF82410012103E0E10705D02021F5
:1053B000F7E70DF1200908910CE00021F9E701CF92
:1053C0004FF00A0BF9E75946FFF7E8FE01F130020A
:1053D00009F8012D0028F6D1ADEB090000F1200BF2
:1053E000600701D44FF00108D84502DDA8EB0B009F
:1053F00000E000208046002406E009A85246005D37
:105400000D999047641C761C08988442F5DB04E0F3
:10541000302052460D999047761CB8F10001A8F152
:105420000108F5DC05E019F8010B52460D9990478B
:10543000761CBBF10001ABF1010BF4DC6D1C34E711
:10544000092801000A68531C0B60107070470000A7
:10545000705400080000002038010000EC510008E2
:10546000B854000838010020204300007C52000896
:105470001184A24A04680901020304060708090C02
:10548000691005280204060839292D0C0140204422
:1054900009111829140A11021829140A110318698C
:1054A00045694C39ADCA08483A1005192C297501CF
:0854B0001B1AAA0101480000CB
:0400000508000131BD
:00000001FF
