:020000040800F2
:10000000504800201D20000841200008432000081F
:10001000472000084B2000084F2000080000000087
:100020000000000000000000000000004501000882
:10003000532000080000000089010008D3310008A7
:100040003720000837200008372000083720000834
:100050003720000837200008372000083720000824
:100060003720000837200008372000083720000814
:1000700037200008372000085725000837200008DF
:1000800037200008372000083720000837200008F4
:1000900037200008372000083720000837200008E4
:1000A00037200008372000083720000837200008D4
:1000B00037200008372000083720000837200008C4
:1000C00037200008372000083720000837200008B4
:1000D000372000087B25000837200008372000085B
:1000E0003720000837200008372000083720000894
:1000F0003720000837200008372000083720000884
:100100003720000837200008372000083720000873
:1001100037200008372000088B210008372000080E
:100120003720000837200008372000083720000853
:10013000DFF80CD004F0CEFD00480047FD20000899
:1001400050480020204B19680868B0E8F00F80F391
:100150000988BFF36F8F4FF0000080F311884EF0D5
:100160000D0E70470000000006480068006880F32C
:10017000088862B661B6BFF34F8FBFF36F8F00DFA1
:1001800000BF00BF08ED00E0EFF30980BFF36F8F01
:100190000D4B1A6820E9F00F106008B54FF0100001
:1001A00080F3118804F001F84FF0000080F311880B
:1001B000BDE8084019680868B0E8F00F80F30988C6
:1001C000BFF36F8F704700BFF4000020EFF3118082
:1001D0004FF0100181F31188704780F31188704748
:1001E000EFF30580704700000CB5002001900090EF
:1001F0006C48006840F480306A49086000BF694874
:10020000006800F4003000900198401C01900098B4
:1002100018B90198B0F5A06FF1D16248006800F4F8
:10022000003010B10120009001E000200090009803
:10023000012843D15C48006840F010005A4908602A
:100240000846006820F0030008600846006840F097
:1002500002000860534840685249486008464068B8
:1002600048600846406840F480604860084640683E
:1002700020F47C1048600846406840F4E81048606C
:100280000846006840F08070086000BF454800687C
:1002900000F000700028F9D04248406820F00300C8
:1002A000404948600846406840F00200486000BF8E
:1002B0003C48406800F00C000828F9D10CBD10B58E
:1002C000FFF792FF10BD10B53648006840F00100FE
:1002D000344908600846406834490840314948605C
:1002E00008460068324908402E4908600846006800
:1002F00020F4802008600846406820F4FE00486032
:100300004FF41F008860FFF7DAFF4FF000602949C3
:10031000086010BD10B5002100200022214B5B6851
:1003200003F00C0121B1042906D0082928D107E0E7
:10033000214B224C236027E01F4B204C236023E0FD
:10034000184B5B6803F47010164B5B6803F4803243
:10035000022303EB904022B9194B4343174C23600F
:100360000DE0104B5B6803F4003323B1144B43439F
:10037000124C236003E0104B4343104C236003E016
:100380000D4B0E4C236000BF00BF064B5B68C3F3F0
:1003900003130C4CE15C094B1B68CB40074C2360FA
:1003A00010BD000000100240002002400000FFF8D5
:1003B000FFFFF6FE08ED00E000127A0000000020CA
:1003C00000093D000400002031490143314A116019
:1003D000704770B5002100230F22C47804B32D4C60
:1003E000246804F4E064C4F5E064210AC1F1040364
:1003F000CA40447804FA03F1847814402143090187
:10040000254C0678A155047804F01F050124AC4062
:1004100005786D11AD0005F1E025C5F8004109E052
:10042000047804F01F050124AC401C4D06787611B9
:1004300045F8264070BD1A4A0A400243154B1B1F5F
:100440001A60704739B1134A121D12680243114BEA
:100450001B1D1A6006E00F4A121D126882430D4BE5
:100460001B1D1A607047042808D14FF0E02109696C
:1004700041F004014FF0E022116107E04FF0E0216C
:10048000096921F004014FF0E0221161704700007A
:100490000000FA050CED00E000E400E080E100E07F
:1004A00080FFFF1F01684FF6FE72114001600021BE
:1004B000016041608160C1608D49884208D18C49EA
:1004C0000839496841F00F01894A083A51608AE0C9
:1004D00087491431884208D185490839496841F073
:1004E000F001834A083A51607DE081492831884211
:1004F00008D17F490839496841F470617C4A083A5B
:10050000516070E07A493C31884208D17849083915
:10051000496841F47041764A083A516063E0744991
:100520005031884208D172490839496841F4702134
:100530006F4A083A516056E06D496431884208D1EB
:100540006B490839496841F47001694A083A5160B9
:1005500049E067497831884208D1654908394968D6
:1005600041F07061624A083A51603CE0614988425A
:1005700006D1011F096841F00F01021F116032E02E
:100580005C491431884208D15A49091F096841F071
:10059000F001584A121F116025E05649283188425F
:1005A00008D15449091F096841F47061514A121F6A
:1005B000116018E04F493C31884208D14D49091F6C
:1005C000096841F470414B4A121F11600BE0494920
:1005D0005031884207D14749091F096841F4702109
:1005E000444A121F1160704710B50022026847F696
:1005F000F0739A430C6A8B6823430C6923434C695C
:1006000023438C692343CC6923434C6A23438C6A7C
:1006100023431A430260CB6843600B6883604B68D6
:10062000C36010BD0021016041608160C160016153
:1006300041618161C161016241628162704721B1A2
:10064000026842F00102026004E002684FF6FE73A5
:100650001A40026070471AB103680B43036002E05E
:1006600003688B43036070474160704701464868E8
:1006700080B2704701460020002201F080531BB178
:100680001C4B083B1A6802E0194B083B1A6802EA47
:1006900001030BB1012000E00020704700F0805101
:1006A00019B11449091F086002E01149083948606E
:1006B000704701460020002201F080531BB10D4B12
:1006C000083B1A6802E00A4B083B1A6802EA010379
:1006D0000BB1012000E00020704700F0805119B1FB
:1006E0000449091F086002E0014908394860704761
:1006F000080002400804024010B50446CC48844279
:1007000008D10121042000F02DFB0021042000F07D
:1007100029FB46E0C748844208D10121082000F0A7
:1007200021FB0021082000F01DFB3AE0C248844272
:1007300008D10121102000F015FB0021102000F04D
:1007400011FB2EE0BD48844208D10121202000F099
:1007500009FB0021202000F005FB22E0B84884427C
:1007600008D10121402000F0FDFA0021402000F0D6
:10077000F9FA16E0B348844208D10121802000F044
:10078000F1FA0021802000F0EDFA0AE0AE48844240
:1007900007D10121801500F0E5FA0021A01500F035
:1007A000E1FA10BD10B50121084600F0DBFA002186
:1007B000012000F0D7FA10BD2DE9F04102460025D6
:1007C0000026002000230024002791F803C00CF02D
:1007D0000F0591F803C00CF0100CBCF1000F03D012
:1007E00091F802C04CEA050591F800C0BCF1000F79
:1007F00031D0146800202BE04FF0010C0CFA00F30C
:10080000B1F800C00CEA03069E4220D183004FF0ED
:100810000F0C0CFA03F7BC4305FA03FC4CEA040482
:1008200091F803C0BCF1280F06D14FF0010C0CFA6F
:1008300000FCC2F814C00AE091F803C0BCF1480FF4
:1008400005D14FF0010C0CFA00FCC2F810C0401C9E
:100850000828D1D31460B1F800C0BCF1FF0F34DD1B
:10086000546800202EE000F1080C4FF0010808FA4F
:100870000CF3B1F800C00CEA03069E4221D18300BC
:100880004FF00F0C0CFA03F7BC4305FA03FC4CEADB
:10089000040491F803C0BCF1280F05D100F1080C45
:1008A00008FA0CF8C2F8148091F803C0BCF1480FA4
:1008B00007D100F1080C4FF0010808FA0CF8C2F853
:1008C0001080401C0828CED35460BDE8F0814FF65C
:1008D000FF710180022181700421C17070470246BE
:1008E000002093680B400BB1012000E0002070470E
:1008F0000146886880B2704702460020D3680B40EA
:100900000BB1012000E0002070470146C86880B2AA
:10091000704701617047416170470AB1016100E0B1
:1009200041617047C16070474FF480320A43826171
:100930008161826182698269704702460020434B6F
:1009400018684FF68073184040EA021008433F4B86
:10095000186070473E49C8617047F0B50A460023E9
:1009600000240021002500F00046B6F1004F02D11E
:10097000364EF16901E0354E7168C0F3034583B22C
:1009800000F44016B6F5401F08D121F070612F4EDB
:10099000766826F070662D4F7E6012E000F48016B7
:1009A000B6F5801F06D1032606FA05F4A14341F0EF
:1009B000706106E0460D360103FA06F6B14341F0D8
:1009C000706122B1460D360103FA06F6314300F09C
:1009D0000046B6F1004F02D11C4EF16101E01B4E02
:1009E0007160F0BD30B500228B071C0F0F2303FA96
:1009F00004F2164B08338C1053F824309343134CF5
:100A000008348D1044F8253023468C1053F82430D8
:100A10008C07240F00FA04F423430C4C08348D1087
:100A200044F8253030BD0A49DC31086070470000C9
:100A300000080140000C014000100140001401407A
:100A400000180140001C014000200140000001404E
:100A500000002042DF48006840F00100DD490860E6
:100A600008464068DC490840DA49486008460068A2
:100A7000DA490840D74908600846006820F4802019
:100A800008600846406820F4FE0048604FF41F00EC
:100A900088607047CF49096821F48031CD4A1160E0
:100AA0001146096821F480211160B0F5803F03D020
:100AB000B0F5802F0ED106E0C649096841F48031B7
:100AC000C44A116007E0C349096841F4A021C14A42
:100AD000116000E000BF00BF704710B50146002262
:100AE000002300204A11012A02D1BA4C236806E0F3
:100AF000022A02D1B74C236A01E0B64C636A01F0C6
:100B00001F02012494401C400CB1012000E0002091
:100B100010BD38B5002000900024002500BF312012
:100B2000FFF7DBFF05460098401C00900098B0F5E9
:100B3000A06F01D0002DF2D03120FFF7CEFF08B119
:100B4000012400E00024204638BD01460020A14ACF
:100B5000106820F0F80040EAC10010607047A0491A
:100B600008607047024600209A4B586820F47C10B9
:100B700042EA01031843974B58607047984908664A
:100B8000704701460020934A506820F00300084354
:100B9000506070478F48406800F00C007047014675
:100BA00000208C4A506820F0F000084350607047E5
:100BB00001460020874A506820F4E06008435060F6
:100BC000704701460020834A506820F4605040EA94
:100BD000C1005060704729B17E4A527A02437D4B72
:100BE0005A7204E07B4A527A82437A4B5A727047B7
:100BF0007B49D8310860704701460020754A50682B
:100C000020F440400843506070470021714A203270
:100C10001170704A82F82010012802D004280AD1ED
:100C200004E001216B4A2032117005E00521694A78
:100C30002032117000E000BF00BF704769490860B2
:100C400070476449096A0143624A11627047654905
:100C500044390860704730B5002100220024002389
:100C60005C4D6D6805F00C0121B1042905D00829FF
:100C700023D105E05C4D056022E05B4D05601FE07F
:100C8000544D6D6805F47012524D6D6805F4803452
:100C9000022505EB92421CB9544D554305600BE00B
:100CA0004C4D6D6805F400351DB1504D5543056040
:100CB00002E04D4D5543056002E04B4D056000BF1D
:100CC00000BF444D6D6805F0F0010909484D6B5CAB
:100CD0000568DD4045603F4D6D6805F4E061090A37
:100CE000434D6B5C4568DD4085603A4D6D6805F4A9
:100CF0006051C90A3E4D6B5C4568DD40C560354DAD
:100D00006D6805F44041890B3A4D6B5CC568B5FBD5
:100D1000F3F5056130BD29B12E4A526902432D4BCE
:100D20005A6104E02B4A526982432A4B5A61704748
:100D300029B1284A92690243264B9A6104E0254A68
:100D400092698243234B9A61704729B1214AD26943
:100D50000243204BDA6104E01E4AD26982431D4BF4
:100D6000DA61704729B11B4AD2680243194BDA6035
:100D700004E0184AD2688243164BDA60704729B102
:100D8000144A12690243134B1A6104E0114A1269B2
:100D90008243104B1A61704712494039086070470E
:100DA0000F49C86470470B49C87170470948406AC9
:100DB00040F0807007494862704701460020054AAC
:100DC00092680A400AB1012000E000207047014902
:100DD00088727047001002400000FFF8FFFFF6FE27
:100DE000000042428004424200127A0000093D00A5
:100DF000140000202400002010B50446FE48844260
:100E000008D10121C014FFF7ADFF0021E014FFF766
:100E1000A9FFC4E0B4F1804F08D101210846FFF7D3
:100E2000AEFF00210120FFF7AAFFB8E0F34884429B
:100E300008D101210220FFF7A2FF00210220FFF7C5
:100E40009EFFACE0EE48844208D101210420FFF768
:100E500096FF00210420FFF792FFA0E0E9488442BA
:100E600008D101210820FFF78AFF00210820FFF7A1
:100E700086FF94E0E448844208D101211020FFF766
:100E80007EFF00211020FFF77AFF88E0DF488442D0
:100E900008D101212020FFF772FF00212020FFF759
:100EA0006EFF7CE0DA48844208D101214014FFF74C
:100EB00059FF00216014FFF755FF70E0D5488442C8
:100EC00009D10121C804FFF74DFF00214FF4002094
:100ED000FFF748FF63E0D048844209D101210805AB
:100EE000FFF740FF00214FF48010FFF73BFF56E073
:100EF000CA48844209D101214805FFF733FF002188
:100F00004FF40010FFF72EFF49E0C548844208D196
:100F100001214020FFF733FF00214020FFF72FFF82
:100F20003DE0C048844208D101218020FFF727FF1F
:100F300000218020FFF723FF31E0BB48844208D125
:100F400001218015FFF71BFF0021A015FFF717FFF8
:100F500025E0B648844209D101210804FFF702FFC9
:100F600000214FF48030FFF7FDFE18E0B0488442C6
:100F700009D101214804FFF7F5FE00214FF40030AC
:100F8000FFF7F0FE0BE0AB48844208D10121880452
:100F9000FFF7E8FE00214FF48020FFF7E3FE10BDCD
:100FA00000220288944B98420ED0994B98420BD065
:100FB000B0F1804F08D0914B984205D0904B9842A9
:100FC00002D0904B984204D14FF68F731A404B8851
:100FD0001A438D4B984207D08C4B984204D04FF661
:100FE000FF431A40CB881A4302808B8883850B8885
:100FF0000385814B98420BD0854B984208D08B4B90
:10100000984205D08A4B984202D08A4B984201D12F
:101010000B7A038601238382704770B50024002277
:101020000023058C4FF6FE7635400584028C8388BC
:10103000048B4FF68F752C40B51E2C400D882C4329
:10104000751E2A400D892A434D882A436A4DA842BD
:101050000BD06F4DA84208D0744DA84205D0744DF6
:10106000A84202D0734DA84213D14FF6F7752A401B
:101070004D892A434FF6FB752A408D882A434FF647
:10108000FF652B404FF6FF552B408D892B43CD89B3
:101090002B4383800483CD888586028470BD70B520
:1010A000002400220023058C4FF6EF76354005849E
:1010B000028C8388048B48F6FF752C404FF6FF4561
:1010C0002C400D884FF6FF7606EA05252C434FF697
:1010D000DF752A400D8906EA05152A434D8806EA80
:1010E00005152A43444DA84202D0494DA8421DD1BE
:1010F0004FF67F752A404D894FF6FF7606EA0515B3
:101100002A434FF6BF752A408D8806EA05152A4303
:101110004FF6FF352B404FF2FF752B408D8906EAC5
:1011200085052B43CD8906EA85052B4383800483FF
:10113000CD880587028470BD70B50024002200238D
:10114000058C4FF6FF6635400584028C8388848BBE
:101150004FF68F752C404FF6FC752C400D882C43B4
:101160004FF6FF552A400D894FF6FF7606EA052512
:101170002A434D8806EA05252A431F4DA84202D07E
:10118000234DA8421DD14FF2FF752A404D894FF6DD
:10119000FF7606EA05252A434FF6FF352A408D885B
:1011A00006EA05252A434EF6FF752B404DF6FF75DE
:1011B0002B408D8906EA05152B43CD8906EA0515D6
:1011C0002B4383808483CD888587028470BD70B56E
:1011D000002200230024058C4EF6FF76354005845E
:1011E000038C8488828B48F6FF752A404FF6FF45B2
:1011F0002A400D8820E00000002C0140000400403F
:1012000000080040000C00400010004000140040A6
:1012100000340140004C01400050014000540140A6
:1012200000180040001C0040002000400040014029
:1012300000440140004801404FF6FF7606EA0525CC
:101240002A434DF6FF752B400D8906EA05352B43E1
:101250004D8806EA05352B43FA4DA84202D0FA4DD7
:10126000A84208D14BF6FF752C408D894FF6FF76CA
:1012700006EA85152C4384808283CD88A0F84050EF
:10128000038470BD828B4FF2FF331A408283828BBE
:101290004FF6FF7303EA01231A4382837047F0B5C8
:1012A0000C461546002200210026078C4EF6FF7CD6
:1012B00007EA0C070784828B018C4FF6FF7707EA59
:1012C000043640F6FF473A404FF6FF7707EA052716
:1012D0003A434FF6FF7707EA03373A43D94FB8420C
:1012E0000ED0D94FB8420BD0B0F1804F08D0D74FB5
:1012F000B84205D0D64FB84202D0D64FB84206D138
:101300004DF6FF77394046F48057394305E047F6FC
:10131000FF57394044F48057394382830184F0BD3C
:10132000828B4FF6F3731A408283828B0A43828347
:101330007047F0B50C461546002200210026078CA8
:101340004FF6FF6C07EA0C070784828B018C4FF67F
:10135000FF7707EA04264FF60C773A404FF6FF77FF
:1013600007EA03172F433A43B64FB8420ED0B64FA1
:10137000B8420BD0B0F1804F08D0B44FB84205D07E
:10138000B34FB84202D0B34FB84206D14FF6FF5721
:10139000394046F48077394305E04FF2FF57394032
:1013A00044F48077394382830184F0BD028B4FF28D
:1013B000FF331A400283028B4FF6FF7303EA0123C7
:1013C0001A4302837047F0B50C46154600220021EF
:1013D0000026078C4FF6EF7C07EA0C070784028B88
:1013E000018C4FF6FF7707EA041640F6FF473A40B4
:1013F0004FF6FF7707EA03373A434FF6FF7707EADE
:1014000005273A438F4FB8420ED08F4FB8420BD0CA
:10141000B0F1804F08D08D4FB84205D08C4FB84204
:1014200002D08C4FB84206D14FF6DF77394046F0F4
:101430001007394305E04FF65F77394044F0100755
:10144000394302830184F0BD028B4FF6F3731A40D7
:101450000283028B0A4302837047F0B50C4615469F
:1014600000220021068C4FF6FE773E400684028B58
:10147000018C4FF60C7632407E1C06EA03162E4392
:101480003243704EB0420ED06F4EB0420BD0B0F12E
:10149000804F08D06D4EB04205D06D4EB04202D0A4
:1014A0006C4EB04206D14FF6FD76314044F0010655
:1014B000314305E04FF6F576314044F00106314303
:1014C00002830184F0BD70B505460C465D48854237
:1014D0000ED05D4885420BD0B5F1804F08D05B48F7
:1014E000854205D05A48854202D05A48854200D1EB
:1014F00000E000BF208850B92389A288618828466F
:10150000FFF7ABFFE1882846FFF79EFF25E0208824
:1015100004280AD12389A28861882846FFF753FF4F
:10152000E1882846FFF742FF17E0208808280AD103
:101530002389A28861882846FFF7FBFEE1882846B8
:10154000FFF7EEFE09E02389A28861882846FFF7AD
:10155000A6FEE1882846FFF795FE70BD2DE9F04113
:1015600005460C4600260127608808B9022600E0DF
:101570000026A088012801D1022700E00127208849
:10158000A0B92389A28861882846FFF766FFE18811
:101590002846FFF759FF23893A4631462846FFF788
:1015A00012FFE1882846FFF701FF13E02389A28894
:1015B00061882846FFF707FFE1882846FFF7F6FE17
:1015C00023893A4631462846FFF747FFE1882846F7
:1015D000FFF73AFFBDE8F0810A884B881A438B88F1
:1015E0001A43CB881A430B891A434B891A438B89B8
:1015F0001A43A0F8442070474FF6FF718180002104
:101600000180C180418001727047002101804180CA
:101610008180C180018141818181C1817047002128
:1016200001804180012181800021C18001817047BA
:101630000021018041808180C180018141818181BF
:1016400070470000002C01400034014000040040BD
:1016500000080040000C004021B1028842F0010265
:10166000028004E002884FF6FE731A400280704741
:1016700031B1B0F8442042F40042A0F8442005E023
:10168000B0F84420C2F30E02A0F8442070471AB10B
:1016900083890B43838102E083898B438381704775
:1016A0008182704741EA0203A0F8483070471AB1BE
:1016B00083890B43838102E083898B438381704755
:1016C00001894FF6F8721140018170470A460021E6
:1016D00001894FF68F73194011430181704730B56E
:1016E00004460D4629462046FFF7F0FF208940F0CA
:1016F0000700208130BD2DE9F04104460D46164615
:101700001F46602D06D13B46012231462046FFF799
:101710005AFE05E03B46012231462046FFF79DFE7A
:1017200029462046FFF7D2FF208940F0070020819C
:10173000BDE8F08130B50C4600210189C9B24FF6F1
:10174000FF7505EA0325154325432943018130BD73
:101750002DE9F04105460E461746984600244346BB
:101760003A4631462846FFF7E5FF2C894FF6F870D8
:10177000044044F007044FF68F70044044F07004B6
:101780002C81BDE8F081F0B504460D4616461F4693
:101790003B46324629462046FFF7CCFF208940F4DD
:1017A00080402081F0BD0185828270470A46002179
:1017B00001884FF68F731940114301807047F0B5CF
:1017C0000C4615461E460021002200230189028B8B
:1017D000038C4FF6F877394021434FF6FC473A40E7
:1017E00040F201173A434FF6DD773B404FF6FF7763
:1017F00007EA06172F433B43018102830384F0BDB0
:101800000A460021018B4FF68F7319401143018363
:1018100070470A460021018B48F6FF7319404FF6C6
:10182000FF7303EA02231943018370470A4600212C
:10183000818B4FF68F7319401143818370470A469D
:101840000021818B48F6FF7319404FF6FF7303EABE
:10185000022319438183704721B1028842F080023C
:10186000028004E002884FF67F731A4002807047BE
:1018700021B1828842F00402828004E082884FF61F
:10188000FB731A408280704721B1828842F00802BF
:10189000828004E082884FF6F7731A408280704796
:1018A00021B1828842F00102828004E082884FF6F2
:1018B000FE731A40828070470A460021018B4FF662
:1018C000F77319401143018370470A460021018BC9
:1018D0004FF2FF7319404FF6FF7303EA02231943D7
:1018E000018370470A460021818B4FF6F773194038
:1018F0001143818370470A460021818B4FF2FF73A9
:1019000019404FF6FF7303EA02231943818370479E
:101910000A460021018B4FF6FB73194011430183E6
:1019200070470A460021018B4FF6FF3319404FF6EE
:10193000FF7303EA02231943018370470A4600211B
:10194000818B4FF6FB7319401143818370470A4620
:101950000021818B4FF6FF3319404FF6FF7303EAE6
:1019600002231943818370470A460021018B4FF6F9
:101970007F7319401143018370470A460021018B90
:10198000C1F30E014FF6FF7303EA022319430183EB
:1019900070470A460021818B4FF67F73194011432F
:1019A000818370470A460021818BC1F30E014FF6F7
:1019B000FF7303EA02231943818370470A4600211B
:1019C000018C4FF6FD7319401143018470470A469C
:1019D0000021018C4FF6F7731940114301847047C1
:1019E0000A460021018C4FF6DF7319404FF6FF7352
:1019F00003EA02131943018470470A460021018C4F
:101A00004FF67F7319404FF6FF7303EA0213194331
:101A1000018470470A460021018C4FF6FF5319409C
:101A20004FF6FF7303EA02231943018470470A4605
:101A30000021018C4FF2FF7319404FF6FF7303EA48
:101A400002231943018470470A460021018C4DF698
:101A5000FF7319404FF6FF7303EA02331943018401
:101A6000704730B5002301248C40A3B2048C9C4302
:101A70000484048C02FA01F5ADB22C43048430BD19
:101A800030B5002304248C40A3B2048C9C4304840E
:101A9000048C02FA01F5ADB22C43048430BD70B55C
:101AA0000346002000241846183001258D40ACB2B2
:101AB0001D8CA5431D8409B1082909D100EB6100E3
:101AC000056825F0700505600568154305600EE0A2
:101AD0000D1FC5F34E052844056825F4E045056053
:101AE00005684FF6FF7606EA02263543056070BDAD
:101AF00021B1028842F00202028004E002884FF61F
:101B0000FD731A400280704721B1028842F004023E
:101B1000028004E002884FF6FB731A40028070478F
:101B200021B1828842F08002828004E082884FF6F0
:101B30007F731A408280704702884FF6F7731A400D
:101B4000028002880A430280704782884FF68F73B2
:101B50001A40828082880A438280704702894FF649
:101B6000F8731A40028102890A4302817047028990
:101B70004FF67F731A40028102890A43028170473F
:101B800081847047818570478186704701877047DF
:101B900081877047A0F84010704702884FF6FF43D6
:101BA0001A40028002880A43028070470146888EEC
:101BB00070470146088F70470146888F704701467D
:101BC000B1F8400070470146888C70470146088D87
:101BD000704702460020138A0B400BB1012000E041
:101BE00000207047CA430282704730B50246002089
:101BF00000230024158A05EA0103958905EA0104FA
:101C000013B10CB1012000E0002030BDCA430282B4
:101C10007047000010B50446FB48844209D10121F9
:101C20008803FFF79FF800214FF48040FFF79AF8F0
:101C300032E0F648844209D101214804FFF79FF8B9
:101C400000214FF40030FFF79AF825E0F048844275
:101C500009D101218804FFF792F800214FF4802078
:101C6000FFF78DF818E0EB48844209D10121C80440
:101C7000FFF785F800214FF40020FFF780F80BE014
:101C8000E548844208D101210805FFF778F80021D2
:101C90004FF48010FFF773F810BD2DE9F04786B0C0
:101CA00005460E460024A24600BFA1460027B08983
:101CB00000B100BF2F462C8A4CF6FF700440F0881C
:101CC00004432C82AC894EF6F3100440B08831896D
:101CD0000843718908430443AC81AC8A4FF6FF4046
:101CE0000440B0890443AC8201A8FEF7B4FFC648A3
:101CF000874202D1DDF810A001E0DDF80CA0A88930
:101D000000F4004040B10AEBCA0000EB0A10316851
:101D10004900B0FBF1F807E00AEBCA0000EB0A103B
:101D200031688900B0FBF1F86420B8FBF0F00401E1
:101D30002009642101FB1089A88900F4004040B10A
:101D4000322000EBC900B0FBF1F000F007000443C3
:101D500008E0322000EB09106421B0FBF1F000F044
:101D60000F0004432C8106B0BDE8F0874FF41651F4
:101D7000016000218180C18001810C21418100210D
:101D80008181704710B502460020108A4FF2FF0390
:101D900018400B884C8823438C882343CC882343EA
:101DA0001843108210BD0021018041808180C180D4
:101DB000704721B1828942F40052828104E0828915
:101DC0004DF6FF731A4082817047F0B50346002438
:101DD00000260025002040F66A17B94200D100BF56
:101DE0001846C1F3421401F01F06012707FA06F551
:101DF000012C01D10C3004E0022C01D1103000E0A4
:101E000014301AB107682F43076002E00768AF4338
:101E10000760F0BD1AB1838A0B43838202E0838A94
:101E20008B4383827047028A4FF6F0731A40028216
:101E3000028A0A430282704782894FF2FF731A4076
:101E4000828182890A438281704721B1828942F06E
:101E50000202828104E082894FF6FD731A4082817A
:101E60007047028A4FF6DF731A400282028A0A43E1
:101E70000282704721B1028A42F48042028204E069
:101E8000028A4BF6FF731A4002827047C1F30802C0
:101E90008280704701468888C0F3080070478189B6
:101EA00041F0010181817047028BD2B20283028B23
:101EB00042EA012202837047028B02F47F420283CE
:101EC000028B0A430283704721B1828A42F02002CA
:101ED000828204E0828A4FF6DF731A408282704762
:101EE00021B1828A42F01002828204E0828A4FF697
:101EF000EF731A408282704721B1828A42F0080251
:101F0000828204E0828A4FF6F7731A408282704719
:101F100021B1828942F40042828103E08289C2F3C6
:101F20000E028281704721B1828A42F4006282826D
:101F300004E0828A4FF2FF731A4082827047828ADD
:101F40004FF6FB731A408282828A0A43828270476C
:101F500021B1828A42F00202828204E0828A4FF634
:101F6000FD731A408282704702460020B1F5007F5F
:101F700000D100BF13880B400BB1012000E000200E
:101F8000704701F40072B2F5007F00D100BFCA4370
:101F90000280704770B5024600240023002500200F
:101FA00040F66A16B14200D100BFC1F3421501F0FC
:101FB0001F03012606FA03F3012D02D1968933404F
:101FC00006E0022D02D1168A334001E0968A3340A2
:101FD0000C12012606FA04F41688344013B10CB131
:101FE000012000E0002070BD10B50022002340F663
:101FF0006A14A14200D100BF0A1201249440A3B286
:10200000DC43048010BD0000003801400044004063
:1020100000480040004C0040005000400648804707
:1020200006480047FEE7FEE7FEE7FEE7FEE7FEE7BD
:10203000FEE7FEE7FEE7FEE7C70200083101000801
:10204000704700BFFEE700BFFEE700BFFEE700BF2E
:10205000FEE7704710B500220421052001F084F945
:102060002D49086000220421052001F07DF92B494B
:1020700008602948006838B10846006820B14FF070
:10208000FF3127A000F0C2FA10BD1FB50020294A79
:102090000623CDE90120009303900346802226A168
:1020A000284801F03BFD0020274A0723CDE9012005
:1020B0000093039003464FF4807224A1264801F058
:1020C0002DFD0020254A0B23CDE90120009303902C
:1020D00003464FF4807222A1254801F01FFD002025
:1020E0001E4A0C23CDE901200093039003464FF4D0
:1020F00080721BA11F4801F011FD1FBD012080F35C
:10210000108800BF00F0B6F8FFF7BFFFFFF7A2FF8F
:1021100002F0C3F900BFFEE73400002038000020C1
:10212000B4B4BDA8CFFBCFA2B6D3C1D0B3C9B9A6B2
:10213000210D0A00280000205461736B204C656457
:1021400000000000254C00082C0000205461736B37
:10215000204B657900000000FF4B00083000002094
:102160005461736B20556172743152780000000025
:10217000554C0008794C000810B50023012244F6A4
:1021800020610A4800F03EFD10BD10B5012107484E
:10219000FFF72BFD40B106480068401C0449086069
:1021A00001210248FFF732FD10BD00000010004081
:1021B0003C00002038B504460121E068FEF7B8FD78
:1021C000A08A80B2ADF8000010208DF80300032033
:1021D0008DF8020069462069FEF7EEFA38BD10B5A9
:1021E0002048FFF7E7FF2048FFF7E4FF1F48FFF70D
:1021F000E1FF1F48FFF7DEFF1A4A928A91B2194A9F
:102200001069FEF786FB184A928A91B2164A106945
:10221000FEF77FFB154A928A91B2144A1069FEF7C5
:1022200078FB134A928A91B2114A1069FEF771FB4A
:1022300010BD19B9D0E90423136112E0002903DAB3
:10224000D0E9042353610CE08268521C82608A4208
:1022500007DB0269D26843695A400369DA600022E9
:10226000826070474000002058000020700000206D
:102270008800002010B54FF44070FEF7A5F8FFF776
:10228000AEFF00F017F8052000F001F910BD0000C6
:1022900038B504460121A068FEF74AFD208A80B2C5
:1022A000ADF8000028208DF803006946E068FEF7CD
:1022B00083FA38BD10B53248FFF7EAFF3148FFF71F
:1022C000E7FF10BD10B50446A088401CA0806078D0
:1022D00020B1012812D002284FD120E0228A91B2E9
:1022E000E068FEF7FCFA30B9012060700020A080A1
:1022F000A071A07001E00020A0803FE0228A91B28E
:10230000E068FEF7ECFA10B90220607006E00020E9
:1023100060701D490870A070A080A0712EE0228A14
:1023200091B2E068FEF7DBFA012819D1A0883228C3
:1023300005DA2078144908700120A07003E000201D
:1023400011490870A070E079012802D10020E071E5
:1023500001E00120E07100206070A080A0710BE01E
:10236000A088322801DD0220A070A08841F28831C7
:10237000884201DD0846A08000E000BF00BF10BD1C
:10238000A4000020B8000020A000002038B50446BA
:102390000E208DF8000006208DF8010000208DF839
:1023A000020001208DF803006846FEF712F8252090
:1023B0008DF800008DF8014000208DF8020001200A
:1023C0008DF803006846FEF704F838BD00B58BB001
:1023D00001210846FEF79FFC0021BA48FEF72FF9BD
:1023E000B848FEF75FF8B8480090B8480190102050
:1023F000029032200390002004908020059000205D
:102400000690079008904FF44050099000200A90E1
:102410006946AC48FEF7E8F84FF48050FEF73EF905
:102420000021A848FEF70BF901220221A548FEF77A
:1024300012F90021A3481430FEF701F9A148143025
:10244000FEF730F8A0480090A148019000200290CB
:1024500032200390002004908020059000200690F8
:10246000079008904FF44050099000200A90694668
:1024700094481430FEF7B8F84FF48030FEF70EF9A8
:10248000012190481430FEF7DAF80BB000BD10B50A
:1024900086B0044601210420FEF74AFC012188038E
:1024A000FEF746FC4FF40070ADF8140018208DF8CC
:1024B000170003208DF8160005A98648FEF77CF961
:1024C0004FF48060ADF8140004208DF8170005A9C2
:1024D0008048FEF771F92046FFF758FFFFF776FFB7
:1024E0004FF4E13001900020ADF80800ADF80A008B
:1024F000ADF80C00ADF810000C20ADF80E0001A9ED
:102500007148001FFFF7C9FB012240F224416E48C9
:10251000001FFFF75AFC01216B48001FFFF749FC21
:10252000012280216848001FFFF774FC012240212E
:102530006548001FFFF76EFC06B010BD10B50446DD
:102540000120654908705F484438846401215D4872
:10255000FEF775F810BD10B54FF48050FEF7A9F8DE
:1025600050B100205C4908704FF48050FEF796F897
:1025700000215448FEF763F810BD08B50020009014
:1025800040F224415048001FFFF704FDB8B340F269
:1025900024414D48001FFFF727FD4B48001FFFF760
:1025A00079FC10214848001FFFF7EBFC002145484B
:1025B0001430FEF744F84FF48030FEF76FF84148CE
:1025C0001430FEF753F8C0F132004449087032204D
:1025D0003C494439C86500236A463D494048006883
:1025E00001F00EF83A483749443948660121354828
:1025F0001430FEF724F83448001FFFF74BFC009816
:1026000018B14FF080503749086008BD70B50546D5
:102610000C46002C03DA284602F054FB04B200BF3B
:102620002D4800780028FBD12849214448702246D3
:102630002946264802F034FBA0B2FFF77FFF70BDA9
:1026400070B504460D4629462046FFF71FFC00BF23
:1026500080212046FFF788FC0028F9D070BD70B5B6
:1026600006460C46002500BF615D3046FFF7E8FFD7
:102670006D1C605D0028F7D100BF40213046FFF798
:1026800073FC0028F9D070BD2DE9F04105460C46D9
:10269000260AE7B231462846FFF7F8FB00BF802143
:1026A0002846FFF761FC0028F9D039462846FFF795
:1026B000EDFB00BF80212846FFF756FC0028F9D02B
:1026C000BDE8F08144000240043801402C010020A4
:1026D0005E01002000080140CC000020CD00002059
:1026E0003800002004ED00E001460020FE4A91423F
:1026F00001D104201CE0FD4A914201D1082017E0DD
:10270000FB4A914201D1102012E0FA4A914201D1D4
:1027100020200DE0F84A914201D1402008E0F74A1C
:10272000914201D1802003E0F54A914200D1881501
:10273000704701460020F34A914201D1C81442E09B
:10274000F14A914201D148143DE0F04A914202D150
:102750004FF4002037E0EE4A914202D14FF480104E
:1027600031E0EC4A914202D14FF400102BE0B1F17C
:10277000804F01D1012026E0E74A914201D1022099
:1027800021E0E64A914201D104201CE0E44A914252
:1027900001D1082017E0E34A914201D1102012E054
:1027A000E14A914201D120200DE0E04A914201D15D
:1027B000402008E0DE4A914201D1802003E0DD4A5A
:1027C000914200D1881570472DE9F84306460D4621
:1027D000144698463046FFF787FF07460121FEF76B
:1027E000A7FAC848844202D0C748844207D120468D
:1027F000FFF79FFF07460121FEF79AFA06E0204601
:10280000FFF797FF07460121FEF79FFAADF800504A
:1028100018208DF8030003208DF802006946304629
:10282000FDF7CAFFBDE8F883F8B505460C46284613
:10283000FFF75AFF06460121FEF77AFAADF800408D
:1028400010208DF8030003208DF802006946284609
:10285000FDF7B2FFF8BD2DE9FF4F87B08346144660
:102860001D46DDE9146ABAF1000F0FD100212046A0
:10287000FEF7F2FE58460899FFF7D6FF00225846A9
:102880000899FEF74AF80BB0BDE8F08F42F21070DD
:1028900082450DD100212046FEF7DEFE58460899FC
:1028A000FFF7C2FF012258460899FEF736F8EAE71B
:1028B0002B46224658460899FFF786FF91488442E6
:1028C0000BD09148844208D09048844205D090486B
:1028D000844202D08F48844203D19748D0F80080C8
:1028E00002E09548D0F80080642E0AD242F20F79B7
:1028F00042F21070B8FBF0F0B0FBF6F0401E87B269
:1029000013E040F6B830864209D24FF063096420E4
:10291000B8FBF0F0B0FBF6F0401E87B205E04FF0D8
:102920000009B8FBF6F0401E87B2ADF81470ADF8A0
:1029300010900020ADF81600ADF812008DF81800C8
:1029400004A92046FEF72CFB6846FEF75EFE6020D9
:10295000ADF800000120ADF802000AFB07F042F2DA
:102960001071B0FBF1F080B2ADF806000020ADF8B8
:102970000800ADF80400ADF80A00ADF80C00ADF8A1
:102980000E00012D08D169462046FEF746FB0821BE
:102990002046FEF791FF1FE0022D08D16946204630
:1029A000FEF77DFB08212046FEF78FFF14E0032D84
:1029B00008D169462046FEF7BFFB08212046FEF7F6
:1029C00091FF09E0042D07D169462046FEF7FFFB81
:1029D00008212046FEF78FFF01212046FEF73CFF2D
:1029E00001212046FEF738FE4648844202D0464880
:1029F000844203D101212046FEF73AFE00BF42E7A0
:102A00002DE9FF4F87B0834614461D46DDE9146A61
:102A1000BAF1000F0FD100212046FEF71DFE5846E7
:102A20000899FFF701FF002258460899FDF775FF46
:102A30000BB0BDE8F08F42F2107082450DD100213D
:102A40002046FEF709FE58460899FFF7EDFE0122E1
:102A500058460899FDF761FFEAE72B46224658469B
:102A60000899FFF7B1FE274884420BD026488442DC
:102A700008D02648844205D02548844202D0254803
:102A8000844203D12C48D0F8008002E02A48D0F8D4
:102A90000080642E0AD242F20F7942F21070B8FB25
:102AA000F0F0B0FBF6F0401E87B213E040F6B8300D
:102AB000864209D24FF063096420B8FBF0F0B0FB06
:102AC000F6F0401E87B205E04FF00009B8FBF6F0C3
:102AD000401E87B2ADF81470ADF810900020ADF82C
:102AE0001600ADF8120029E000080140000C01407A
:102AF000001001400014014000180140001C01407A
:102B000000200140002C014000340140004C0140F5
:102B10000050014000540140000400400008004003
:102B2000000C00400010004000140040001800405D
:102B3000001C004000200040000000208DF818001C
:102B400004A92046FEF72CFA6846FEF75EFD6020D9
:102B5000ADF800000020ADF802000AFB07F042F2D9
:102B60001071B0FBF1F080B2ADF806000020ADF8B6
:102B700008000420ADF804000020ADF80A00ADF80C
:102B80000C00ADF80E00012D08D169462046FEF775
:102B900044FA08212046FEF78FFE1FE0022D08D1DF
:102BA00069462046FEF77BFA08212046FEF78DFE97
:102BB00014E0032D08D169462046FEF7BDFA08212E
:102BC0002046FEF78FFE09E0042D07D16946204616
:102BD000FEF7FDFA08212046FEF78DFE0121204672
:102BE000FEF73AFE01212046FEF736FD7D4884427D
:102BF00002D07D48844203D101212046FEF738FDF2
:102C000000BF15E72DE9FF5F04460D4691469A4641
:102C10007448844202D07448844207D12046FFF7AA
:102C200088FD83460121FEF783F806E02046FFF782
:102C300080FD83460121FEF788F8002D41D1002157
:102C40002046FEF709FDAB466648844202D14FF0AC
:102C5000190B28E0B4F1804F02D14FF01C0B22E099
:102C60006248844202D14FF01D0B1CE06048844250
:102C700002D14FF01E0B16E05E48844202D14FF0A5
:102C8000320B10E05C48844202D14FF0360B0AE070
:102C90005A48844202D14FF0370B04E05248844234
:102CA00001D14FF02C0B8DF800B08DF801908DF80C
:102CB00002A000208DF803006846FDF78AFBBDE8FE
:102CC000FF9F484884420BD04748844208D04C4874
:102CD000844205D04B48844202D04B48844202D102
:102CE0004A48066801E049480668642D0AD242F263
:102CF0000F7842F21070B6FBF0F0B0FBF5F0401E1A
:102D000087B213E040F6B830854209D24FF063082D
:102D10006420B6FBF0F0B0FBF5F0401E87B205E092
:102D20004FF00008B6FBF5F0401E87B2ADF8087012
:102D3000ADF804800020ADF80A00ADF806008DF86B
:102D40000C0001A92046FEF72BF901212046FEF7D1
:102D500083FD012211462046FEF799FC0121204601
:102D6000FEF77AFC4FF0000B1E48844202D14FF070
:102D7000190B28E0B4F1804F02D14FF01C0B22E078
:102D80001A48844202D14FF01D0B1CE018488442BF
:102D900002D14FF01E0B16E01648844202D14FF0CC
:102DA000320B10E01448844202D14FF0360B0AE097
:102DB0001248844202D14FF0370B04E00A488442A3
:102DC00001D14FF02C0B8DF800B08DF801908DF8EB
:102DD00002A001208DF803006846FDF7FAFA00BF53
:102DE0006DE70000002C0140003401400004004069
:102DF00000080040000C004000100040001400409B
:102E0000004C0140005001400054014000000020EF
:102E100010B501468E4800E0006803688B42FBD382
:102E20000246436813448B4204D143684C682344F0
:102E3000436001460A464B6813440468A34211D11B
:102E4000844C03682468A34208D04B680468646813
:102E500023444B6003681B680B6005E07D4B1B68D7
:102E60000B6001E003680B60884200D0016010BD78
:102E700030B54FF48043784800F007042CB1C01DF2
:102E800020F00700744C041B1B1B0246704C226090
:102E900000246F4D6C60D018083820F007006D4C8E
:102EA000206000246B4D2D686C606A4D2D682C608D
:102EB0001146441A4C60674C24680C60674D4C689E
:102EC0002C60674D4C682C604FF00044654D2C60C1
:102ED00030BD2DE9F04104464FF0000801F044F800
:102EE0005C48006808B9FFF7C3FF5E4800682040EF
:102EF00000285DD19CB1083404F0070078B104F0DB
:102F00000700C0F10800044404F0070008B90120DC
:102F100000E0002018B9FDF759F900BFFEE7002CCA
:102F200046D04F480068844242D8494E3046056832
:102F300001E02E462D686868A04202D22868002869
:102F4000F7D144480068854232D0306800F1080863
:102F5000286830606868001B102812D92F1907F004
:102F6000070008B9012000E0002018B9FDF72EF98C
:102F700000BFFEE76868001B78606C603846FFF7AA
:102F800047FF374968680968081A354908600846E4
:102F9000006832490968884203D2314800682F49E5
:102FA0000860304968680968084368600020286044
:102FB00000F02EFF08F0070008B9012000E0002013
:102FC00018B9FDF703F900BFFEE74046BDE8F08100
:102FD00070B506463546002E31D0083D2C462149B5
:102FE00060680968084008B1012000E0002018B9B5
:102FF000FDF7ECF800BFFEE7206808B9012000E00B
:10300000002018B9FDF7E2F800BFFEE71549606837
:103010000968084098B1206888B912496068096851
:103020008843606000F0A0FF0D49606809680844AB
:103030000B4908602046FFF7EBFE00F0E9FE70BD8B
:1030400007480068704705480068704770470000EF
:10305000D0000020D800002090010020E0000020D7
:10306000DC000020E400002075480068401C08B91E
:10307000012000E0002018B9FDF7A8F800BFFEE726
:10308000FDF7A4F800BFFEE7001F4FF08073036058
:10309000001F0160001F6B4B036014380260203872
:1030A000704769484FF0E021486107200861704788
:1030B0001CB56648014609780191FF21024611704E
:1030C0000146097800919DF8001001F01001604A56
:1030D000117007215F4A116009E05E490968491EC5
:1030E0005C4A11609DF800104906090E00919DF898
:1030F000001001F080018029EFD0564909680902CB
:10310000544A11601146098801F4E06111604F4A88
:10311000019911705048006840F470004E490860F1
:103120000846006840F070400860FFF7BAFF0020D2
:1031300043490860FDF718F800201CBD10B5404851
:103140000068B0F57A7F01D1012000E0002018B9B5
:10315000FDF73CF800BFFEE710BD4FF080503E4940
:103160001C390860BFF34F8FBFF36F8F704710B5E6
:10317000FDF72CF832480068401C31490860BFF365
:103180004F8FBFF36F8F0846006801280CD132487B
:103190001C380068C0B208B9012000E0002018B94E
:1031A000FDF714F800BFFEE710BD10B52448006815
:1031B00018B9FDF70BF800BFFEE721480068401E74
:1031C0001F4908600846006810B90020FDF705F89F
:1031D00010BD10B5FCF7FAFF00F092FD20B14FF0E2
:1031E00080501D491C3908600020FCF7F6FF10BD17
:1031F00070B5FCF7F5FF0546102D0FD305F1E02063
:1032000090F8F04312480078844201DB012000E08E
:10321000002018B9FCF7DAFF00BFFEE70E481438AB
:10322000006800F4E0600B490968884201D8012079
:1032300000E0002018B9FCF7C9FF00BFFEE770BD31
:10324000E8000020693000083F19010000E400E0B8
:10325000EC000020F000002020ED00E000F108016B
:1032600041604FF0FF31816000F10801C1600161F0
:1032700000210160704700210161704742684A6087
:1032800093688B60936859609160086103685B1C68
:103290000360704710B502460B685C1C0CB91069DE
:1032A00007E002F1080000E04068446824689C429E
:1032B000FAD944684C604C68A160886041600A613A
:1032C0001468641C146010BD01460A69D1E901301C
:1032D0009860D1E9010358605068884201D188683C
:1032E0005060002008611068401E10601068704730
:1032F00070B505460E462C461CB9FCF767FF00BFAB
:10330000FEE7FFF734FFD4E90F12206801FB02004B
:1033100060600020A0632068A060E06B401E226C0B
:10332000216800FB0210E0604FF0FF306064A06491
:1033300076B9206908B9012000E0002080B904F1C5
:10334000100001F057F901280AD1FFF706FF07E046
:1033500004F11000FFF782FF04F12400FFF77EFF65
:10336000FFF723FF012070BD2DE9F04706460D460B
:1033700091464FF000080EB1012000E0002018B97E
:10338000FCF724FF00BFFEE70DB9002702E006FBB3
:1033900005F0471C07F14C00FFF79BFD044664B1A4
:1033A0000DB9246002E004F14C002060E66325645E
:1033B00001212046FFF79CFFA046B8F1000F03D182
:1033C000FCF704FF00BFFEE74046BDE8F08710B5FC
:1033D0000446FFF7CCFE11E0606A08B9012000E066
:1033E000002038B904F1240001F004F918B101F00B
:1033F000E1F900E005E0A06C401EA064A06C00288C
:10340000EADC00BF4FF0FF30A064FFF7CEFEFFF70D
:10341000AEFE11E0206908B9012000E0002050B99B
:1034200004F1100001F0E6F808B101F0C3F9606C96
:10343000401E606400E002E0606C0028EADC00BF2F
:103440004FF0FF306064FFF7B0FE10BD70B5054669
:10345000FFF78DFEA86BE96B884201D1012400E0E3
:103460000024FFF7A2FE204670BD2DE9F04104467E
:103470000E4615460027206C40B37DB93146226CBC
:10348000A06801F00DFC216CA0680844A060D4E99C
:10349000011088421AD32068A06017E03146226CE0
:1034A000E06801F0FDFB216CE068401AE0602168F3
:1034B000E068884203D2216C6068401AE060022D07
:1034C00004D1A06B10B1A06B401EA063A06B401C88
:1034D000A0633846BDE8F0812DE9FF4383B006467E
:1034E00088461D464FF0000934461CB9FCF76EFEB5
:1034F00000BFFEE7B8F1000F01D1206C08B9012030
:1035000000E0002018B9FCF761FE00BFFEE7022DC5
:1035100002D1E06B012801D1012000E0002018B9A0
:10352000FCF754FE00BFFEE700BFFFF720FEA06BD4
:10353000E16B884201D3022D1DD12A464146204627
:10354000FFF793FF0746606A08B9012000E00020FA
:1035500040B904F1240001F04DF8012805D1FFF72E
:10356000FCFD02E00FB1FFF7F8FDFFF71EFE0120A2
:1035700007B0BDE8F083059818B9FFF716FE0020E4
:10358000F6E7B9F1000F04D101A801F0CFF84FF030
:103590000109FFF70AFE00F0E7FCFFF7E8FD606CA9
:1035A000401C08B900206064A06C401C08B90020D1
:1035B000A064FFF7FAFD05A901A801F0C5F8C0B99C
:1035C0002046FFF743FF70B104F11000059900F0A9
:1035D000A0FF2046FFF7FBFE00F01AFC0028A4D154
:1035E000FFF7BBFDA1E72046FFF7F1FE00F010FC5E
:1035F0009BE72046FFF7EBFE00F00AFC0020B7E750
:103600002DE9F0470646894617461D4634461CB943
:10361000FCF7DCFD00BFFEE7B9F1000F01D1206C23
:1036200008B9012000E0002018B9FCF7CFFD00BF69
:10363000FEE7022D02D1E06B012801D1012000E05C
:10364000002018B9FCF7C2FD00BFFEE7FFF7D0FD70
:10365000FCF7BCFD8246A06BE16B884201D3022DD2
:103660001CD12A4649462046FFF7FFFEA06C401CAD
:1036700070B9606A08B9012000E0002058B904F16F
:10368000240000F0B7FF30B12FB10120386002E014
:10369000A06C401CA0644FF0010801E04FF000084E
:1036A0005046FCF79AFD4046BDE8F0872DE9F04111
:1036B00005460E462C461CB9FCF788FD00BFFEE708
:1036C000206C08B9012000E0002018B9FCF77EFD4D
:1036D00000BFFEE7206808B9606808B9012000E073
:1036E000002018B9FCF772FD00BFFEE7FFF780FD70
:1036F000FCF76CFD8046A06BE16B884219D2A06B91
:10370000401CA063A06C401C70B9606A08B901201D
:1037100000E0002058B904F1240000F06BFF30B144
:103720002EB10120306002E0A06C401CA064012793
:1037300000E000274046FCF750FD3846BDE8F08128
:1037400070B50546FFF713FDA86B08B9012400E02A
:103750000024FFF72AFD204670BD70B504460D46D3
:10376000206C70B1216CE0680844E0606168E0683A
:10377000884201D32068E0602846226CE16801F0AD
:103780008FFA70BD2DE9FF4383B005460E461F46F4
:103790004FF000092C461CB9FCF718FD00BFFEE7EE
:1037A0000EB9206C08B9012000E0002018B9FCF720
:1037B0000DFD00BFFEE700BFFFF7D9FCA06B68B3AB
:1037C000D4F80C8031462046FFF7C7FF8FB9A06BB5
:1037D000401EA063206908B9012000E00020B8B9AC
:1037E00004F1100000F006FF012811D1FFF7B5FC2D
:1037F0000EE0C4F80C80606A08B9012000E00020E7
:1038000030B904F1240000F0F5FE08B1FFF7A5FC83
:10381000FFF7CBFC012007B0BDE8F083059818B98D
:10382000FFF7C3FC0020F6E7B9F1000F04D101A8AF
:1038300000F07CFF4FF00109FFF7B7FC00F094FBAC
:10384000FFF795FC606C401C08B900206064A06C18
:10385000401C08B90020A064FFF7A7FC05A901A837
:1038600000F072FFC0B92046FFF76AFF70B104F1A3
:103870002400059900F04DFE2046FFF7A8FD00F05A
:10388000C7FA002898D1FFF768FC95E72046FFF7B4
:103890009EFD00F0BDFA8FE72046FFF798FD00F08F
:1038A000B7FA0020B7E72DE9F047054688461646E7
:1038B0002C461CB9FCF78AFC00BFFEE7B8F1000FEC
:1038C00001D1206C08B9012000E0002018B9FCF7F4
:1038D0007DFC00BFFEE7FFF78BFCFCF777FC814621
:1038E000A06BE8B141462046FFF737FFA06B401EB2
:1038F000A063606C401C70B9206908B9012000E029
:10390000002058B904F1100000F074FE30B12EB15F
:103910000120306002E0606C401C6064012700E020
:1039200000274846FCF759FC3846BDE8F0872DE9EA
:10393000F04705460F462C461CB9FCF747FC00BF74
:10394000FEE70FB9206C08B9012000E0002018B98B
:10395000FCF73CFC00BFFEE7206C08B1012000E052
:10396000002018B9FCF732FC00BFFEE7FFF740FC6F
:10397000FCF72CFC8146A06B48B1D4F80C8039468A
:103980002046FFF7EAFEC4F80C80012600E000267E
:103990004846FCF722FC3046BDE8F08770B5044687
:1039A0001CB9FCF713FC00BFFEE7FFF7E0FBA56BBB
:1039B000FFF7FBFB284670BD70B5044625461DB9D0
:1039C000FCF704FC00BFFEE7FFF7D1FBD5E90E10C2
:1039D000461AFFF7EAFB304670BD70B504461CB9C5
:1039E000FCF7F4FB00BFFEE7A56B284670BD70B581
:1039F000044625461DB9FCF7E9FB00BFFEE7284653
:103A0000FFF7E6FA70BD70B505461DB9FCF7DEFBA1
:103A100000BFFEE7A86B08B9012400E0002420469F
:103A200070BD70B504461CB9FCF7D0FB00BFFEE7C3
:103A3000A06BE16B884201D1012500E000252846FA
:103A400070BD000010B5002407E004EB8401FD4ABE
:103A500002EB8100FFF702FC641C1E2CF5D3FA4830
:103A6000FFF7FCFBF948FFF7F9FBF948FFF7F6FB16
:103A7000F848FFF7F3FBF848FFF7F0FBF248F74987
:103A80000860F248F649086010BD2DE9F047044689
:103A90000F4616469946DDF82080002507E0795D3F
:103AA00004F134004155785D00B902E06D1C102D21
:103AB000F5D300BF0021432001551E2E00D31D2643
:103AC000E662201DFFF7D7FB04F11800FFF7D3FBD8
:103AD0002461C6F11E00A06164620020606484F865
:103AE0004800BDE8F0872DE9F04106460F461FB9B2
:103AF000B000FFF7EEF900E03846054655B14C201E
:103B0000FFF7E7F904460CB1256304E02846FFF708
:103B10005FFA00E000242046BDE8F0812DE9FF4F68
:103B200081B0804616469A46DDE90E5BB8F1000F7B
:103B300003D1FCF74BFB00BFFEE71E2D01D2012095
:103B400000E0002018B9FCF741FB00BFFEE730465B
:103B50001099FFF7C8FF0446002C5AD0701E216B45
:103B600001EB800929F0070909F0070008B90120D5
:103B700000E0002018B9FCF729FB00BFFEE7009623
:103B80002A462046119B0299FFF77FFF5246414685
:103B90004846FFF779FA2060BBF1000F01D0CBF85F
:103BA0000040FFF7E4FAAF480068401CAD490860E8
:103BB000AD48006840B9AC48046008460068012878
:103BC0000CD1FFF73FFF09E0A848006830B9A648CC
:103BD0000068C06AA84201D8A3480460A4480068ED
:103BE000401CA349086094F82C1001208840A1498A
:103BF000096808439F490860E16A01EB8101914A25
:103C000002EB8100211DFFF739FB0127FFF7CDFAF9
:103C100001E04FF0FF37012F09D19448006830B11F
:103C200091480068C06AA84201D2FFF796FA384668
:103C300005B0BDE8F08F89490968096809B9012113
:103C400000E0002121B14FF0FF318B4A116006E006
:103C500082490968C968C868874A41681160704725
:103C600070B50546FFF783FA15B97F48006800E094
:103C700028460446201DFFF727FB78B9E06A00EBD1
:103C80008000704951F8200040B994F82C100120B0
:103C9000884078490968814376480160A06A18B174
:103CA00004F11800FFF710FB211D6A48FFF7E6FA40
:103CB00072480068401C714908606D480068401CEB
:103CC0006B490860FFF771FA68480068B8B1664848
:103CD000006884420DD16A48006808B9012000E0FC
:103CE000002018B9FCF772FA00BFFEE7FFF735FABB
:103CF00005E0FFF73CFAFFF79EFFFFF756FA70BDAD
:103D00002DE9F0414FF000085D480068002872D1AD
:103D10005C480068401C5B49086008460668DEB9DC
:103D20004E480068006808B9012000E0002018B97A
:103D3000FCF74CFA00BFFEE74848076848480068AF
:103D400046490860464807604F480068401C4E4995
:103D50000860FFF770FF00BF4748006886423CD309
:103D600000BF3E480068006808B9012000E000205C
:103D700020B14FF0FF30404908602DE0374800681F
:103D8000C068C4686568AE4202D23B48056023E063
:103D9000201DFFF799FAA06A18B104F11800FFF787
:103DA00093FA94F82C10012088403249096808439E
:103DB00030490860E16A01EB8101224A02EB81008F
:103DC000211DFFF75BFA2849E06A0968C96A884241
:103DD000C7D34FF00108C4E700BF23480068C06A9A
:103DE00000EB8000174951F82000012808D94FF056
:103DF000010805E0FFE725480068401C23490860EA
:103E00002348006808B14FF001084046BDE8F08142
:103E100070B500251A48006818B9FCF7D7F900BF3B
:103E2000FEE7FFF7A4F916480068401E1449086031
:103E300008460068002874D10A480068002870D03D
:103E40004DE0000090410020E8430020FC430020AA
:103E5000104400202444002038440020F8000020B2
:103E6000FC00002004010020F400002010010020CC
:103E7000200100200C01002024010020000100206E
:103E800028010020080100201C010020140100204E
:103E900018010020FA48C068C46804F11800FFF750
:103EA00013FA201DFFF710FA94F82C100120884017
:103EB000F44909680843F3490860E16A01EB8101AC
:103EC000F14A02EB8100211DFFF7D8F9EF49E06AC2
:103ED0000968C96A884202D30120ED490860E848B0
:103EE000006808B9012000E000200028D2D0E9488D
:103EF000006878B10AE0FFF703FF10B10120E44940
:103F00000860E4480068401EE2490860E148006833
:103F10000028F0D1DE480068012802D10125FFF712
:103F20001CF9FFF742F9284670BD10B50446D74882
:103F300000684460D8480068844207D2D3480168CA
:103F4000091DD6480068FFF7A5F90CE0CF480168C5
:103F5000091DD3480068FFF79DF9D24800688442E4
:103F600001D2D048046010BDCF480068401CCE4943
:103F7000086070472DE9F04704460E464FF00009EF
:103F80001CB9FCF723F900BFFEE70EB1012000E0E9
:103F9000002018B9FCF71AF900BFFEE7C248006814
:103FA00008B9012000E0002018B9FCF70FF900BFA4
:103FB000FEE7FFF7D9FFB848D0F8008020688519E0
:103FC0002068404507D92068A8420BD9454509D942
:103FD0004FF0010906E02068A84201D8454501D903
:103FE0004FF001092560B9F1000F13D0A748006810
:103FF000001DFFF769F950B9A448006890F82C102B
:10400000012088409F49096881439E4801602846F5
:10401000FFF78BFFFFF7FCFE07460FB9FFF79DF890
:10402000BDE8F08770B50446002634B39E480068AA
:1040300008B9012000E0002018B9FCF7C7F800BF5C
:10404000FEE7FFF791FF9448006805198F48006864
:10405000001DFFF739F950B98C48006890F82C1012
:1040600001208840874909688143864801602846C5
:10407000FFF75BFFFFF7CCFE06460EB9FFF76DF8C2
:1040800070BD70B50446FFF772F814B97F48006838
:1040900000E020460646F56AFFF787F8284670BD1F
:1040A0002DE9F0410446FFF7A3F8FCF78FF8064628
:1040B00014B97648006800E020460746FD6A30469D
:1040C000FCF78BF82846BDE8F0812DE9F0478046E3
:1040D0000D464FF000091E2D01D2012000E0002006
:1040E00018B9FCF773F800BFFEE71E2D00D31D259D
:1040F000FFF73DF8B8F1000F02D16448006800E016
:1041000040460446E66AAE424BD0B5420BD95F4802
:10411000006884420DD05D480068C06AA84208D893
:104120004FF0010905E059480068844201D14FF081
:104130000109E76AE562A06900F0004010B9C5F125
:104140001E00A06107EB87014F4A02EB8101606905
:10415000884201D1012000E00020E0B1201DFFF7DE
:10416000B3F830B90120B840464909688143454851
:10417000016094F82C1001208840424909680843E6
:1041800040490860E16A01EB81013F4A02EB81008E
:10419000211DFFF773F8B9F1010F01D1FEF7DDFF23
:1041A00000BFFFF702F8BDE8F08710B53E48006891
:1041B00018B10120364908602BE00020344908601E
:1041C00030480068B0FA80F0C0F11F0404EB8400AE
:1041D0002D4951F8200008B1012000E0002018B955
:1041E000FBF7F4FF00BFFEE704EB8401264A02EB75
:1041F000810041684968416000F1080142688A42D3
:1042000002D14168496841604168C9681F4A11602C
:1042100000BF10BD70B50546FEF7A9FF15B91B48D4
:10422000006800E028460446201DFFF74DF878B9E5
:10423000E06A00EB8000144951F8200040B994F87E
:104240002C10012088400F49096881430D48016006
:10425000A06A18B104F11800FFF736F8211D1348C1
:10426000FFF70CF8FEF7A1FF08480068844237D139
:104270000F48006838B30C480068D8B901201AE02C
:10428000104400200C01002090410020F400002088
:10429000180100201401002008010020FC0000206B
:1042A000F8000020240100202801002038440020CC
:1042B00010010020002018B9FBF788FF00BFFEE7BF
:1042C000FEF74BFF15E0FE480068FE49096888428A
:1042D00003D10020FC4908600BE0FFF766FF08E00F
:1042E000FA48006828B1FEF742FFFFF7A4FCFEF78A
:1042F0005CFF70BD70B5054600262C461DB9FBF766
:1043000065FF00BFFEE7EE496069884201D10120E8
:1043100000E0002070B1EE49A06A884201D101207E
:1043200000E0002030B9A06A08B9012000E00020B8
:1043300000B10126304670BD70B505462C461DB94A
:10434000FBF744FF00BFFEE74CB3DF480068844240
:1043500025D0FEF70CFF2046FFF7CCFF01281CD12B
:10436000201DFEF7B1FF94F82C1001208840D94998
:1043700009680843D7490860E16A01EB8101D64A20
:1043800002EB8100211DFEF779FFCF49E06A096841
:10439000C96A884201D3FEF7E0FEFEF706FF70BD52
:1043A0002DE9F041054600262C461DB9FBF70EFF0E
:1043B00000BFFEE7FEF71CFFFBF708FF074620469D
:1043C000FFF798FF012824D1C4480068E0B9BE492E
:1043D000E06A0968C96A884200D30126201DFEF7F9
:1043E00073FF94F82C1001208840BA4909680843EB
:1043F000B8490860E16A01EB8101B74A02EB81002C
:10440000211DFEF73BFF04E004F11801B048FEF760
:1044100035FF3846FBF7E1FE3046BDE8F08110B5C8
:104420000446206BFEF7D4FD2046FEF7D1FD10BDFB
:1044300070B523E0FFF798FDA948006808B901208E
:1044400000E000200546FFF7E3FCBDB9FEF78FFE54
:10445000A348C068C468201DFEF736FF994800686D
:10446000401E984908609F480068401E9D490860AA
:10447000FEF79BFE2046FFF7D2FF00BF9948006879
:104480000028D7D170BD00BFFFF7D2FF9248006867
:104490000128F9D9FEF761FEF6E71FB5002000906C
:1044A00001900290034680228FA103909048FFF76D
:1044B00035FB0446012C0FD1FBF788FEA01E8D4969
:1044C000086001208149086000208B4908608B4901
:1044D0000860FEF7EDFD04E01CB9FBF777FE00BFB6
:1044E000FEE71FBD10B5FBF771FE0020774908609D
:1044F000FEF724FE10BD80490868704770B5FEF7CE
:1045000077FE00257C480468204670BD6D48006831
:10451000704770B505460C461DB9FBF757FE00BF46
:10452000FEE76948016818312846FEF7B3FE664881
:104530000068001DFEF7C8FE50B96348006890F897
:104540002C1001208840634909688143614801605B
:10455000601C30B95C480168091D5948FEF78EFEA1
:1045600005E06548006806193046FFF7DEFC70BDBF
:104570002DE9F04105460E4614461DB9FBF726FE0F
:1045800000BFFEE75548006808B1012000E00020A8
:1045900018B9FBF71BFE00BFFEE746F000404A4992
:1045A000096888614848016818312846FEF766FEA8
:1045B00045480068001DFEF787FE50B94248006874
:1045C00090F82C10012088404249096881434148F5
:1045D0000160601C30B93C480168091D3848FEF78D
:1045E0004DFE05E04448006807193846FFF79DFC7A
:1045F000BDE8F08170B50646F068C4681CB9FBF7E9
:10460000E5FD00BFFEE704F11800FEF75DFE33484C
:104610000068A8B9201DFEF757FE94F82C10012061
:1046200088402C49096808432A490860E16A01EB7F
:104630008101294A02EB8100211DFEF71FFE04E0E3
:1046400004F118012248FEF719FE1F49E06A0968C3
:10465000C96A884204D9012501202949086000E07F
:104660000025284670BD2DE9F04105460F461B4840
:10467000006808B1012000E0002018B9FBF7A6FD92
:1046800000BFFEE747F000402860EC681CB9FBF76C
:104690009DFD00BFFEE72846FEF716FE201DFEF733
:1046A00013FE94F82C10012088400A490968084339
:1046B00008490860E16A01EB8101074A22E0000035
:1046C0003844002004010020F400002010010020E4
:1046D000104400200C0100209041002028010020FF
:1046E000244400200001002049444C450000000003
:1046F0008744000824010020080100203C0000201D
:104700001801002002EB8100211DFEF7B7FDF949D9
:10471000E06A0968C96A884204D901260120F6497D
:10472000086000E000263046BDE8F08110B5044680
:104730001CB9FBF74BFD00BFFEE7F04800682060A6
:10474000EF480068606010BD2DE9F04104460D4659
:104750001CB9FBF73BFD00BFFEE71DB9FBF736FDBB
:1047600000BFFEE7FEF703FDE54807682868401C28
:1047700008B9002619E0E14920680968884204D098
:104780006068B84201D801260FE06068381A2968CD
:10479000884209D228686168791A401A2860204640
:1047A000FFF7C4FF002600E00126FEF7FEFC3046BE
:1047B000BDE8F0810120D04908607047CD49096803
:1047C0008869CC490968C96AC1F11E01C94A1268E1
:1047D000916170472DE9F04106460C46FEF7C7FC93
:1047E000C4480068406C38BB0120C249096881F8A0
:1047F00048000CB3BF480068001DFEF765FD50B9C6
:10480000BC48006890F82C1001208840BD49096818
:104810008143BC480160601C30B9B6480168091D7D
:10482000B948FEF72BFD05E0B54800680719384682
:10483000FFF77BFBFEF791FCFEF7B7FCFEF797FC5A
:10484000AC480068456C65B126B10020A9490968EB
:10485000486406E0A749096801F14400496C491E13
:1048600001600020A349096881F84800FEF79DFC1B
:104870002846BDE8F0812DE9F047074688461546F1
:104880001C46FEF774FC9B48006890F8480002281C
:104890002FD09849096801F14400496CB94301607F
:1048A00001209449096881F8480014B391480068D0
:1048B000001DFEF709FD50B98E48006890F82C10D5
:1048C000012088408F49096881438E480160601C3F
:1048D00030B988480168091D8B48FEF7CFFC06E017
:1048E0008748006800EB04094846FFF71EFBFEF707
:1048F00034FCFEF75AFCFEF73AFC1DB17D48006817
:10490000406C28607B48006890F84800012801D17D
:10491000002608E07749096801F14400496C21EA62
:1049200008010160012600207249096881F84800E9
:10493000FEF73BFC3046BDE8F0872DE9F047064620
:104940000D46174698464FF0010A1EB9FBF73EFC8C
:1049500000BFFEE73446FEF70AFCB8F1000F02D0B4
:10496000606CC8F8000094F84890022084F8480071
:10497000052F17D2DFE807F01503070B0D00606C59
:10498000284360640EE0606C401C60640AE065646B
:1049900008E0B9F1020F01D0656401E04FF0000AB0
:1049A00000E000BF00BFB9F1010F26D1201DFEF7C6
:1049B0008BFC94F82C100120884052490968084368
:1049C00050490860E16A01EB8101504A02EB810025
:1049D000211DFEF753FCA06A08B9012000E0002069
:1049E00018B9FBF7F3FB00BFFEE74249E06A09682C
:1049F000C96A884201D9FEF7B0FBFEF7D6FB5046E4
:104A0000BDE8F0872DE9F84F06460D461746984653
:104A1000DDF828A04FF0010B1EB9FBF7D7FB00BF54
:104A2000FEE7FEF7E5FB3446FBF7D0FB0090B8F15C
:104A3000000F02D0606CC8F8000094F84890022083
:104A400084F84800052F17D2DFE807F01503070B9D
:104A50000D00606C284360640EE0606C401C606474
:104A60000AE0656408E0B9F1020F01D0656401E075
:104A70004FF0000B00E000BF00BFB9F1010F33D1D0
:104A8000A06A08B9012000E0002018B9FBF79EFBDE
:104A900000BFFEE71E480068A8B9201DFEF714FC01
:104AA00094F82C10012088401649096808431549DC
:104AB0000860E16A01EB8101144A02EB8100211DCB
:104AC000FEF7DCFB04E004F118011248FEF7D6FB08
:104AD0000849E06A0968C96A884205D9BAF1000F35
:104AE00002D00120CAF800000098FBF776FB584678
:104AF000BDE8F88FF4000020180100201C01002000
:104B0000080100200C0100203844002090410020C2
:104B100028010020104400202DE9F04105460E46F2
:104B20001DB9FBF753FB00BFFEE7FEF761FB2C4608
:104B3000FBF74CFB804694F84870022084F848004C
:104B4000606C401C6064012F30D1A06A08B901205C
:104B500000E0002018B9FBF739FB00BFFEE7224850
:104B60000068A8B9201DFEF7AFFB94F82C100120B7
:104B700088401E49096808431C490860E16A01EB46
:104B800081011B4A02EB8100211DFEF777FB04E047
:104B900004F118011748FEF771FB1749E06A09682C
:104BA000C96A884202D90EB1012030604046FBF745
:104BB00014FBBDE8F08170B50446264616B90E48D0
:104BC000006800E030460646FEF7D1FA96F8480045
:104BD000022804D1002086F84800012500E00025C5
:104BE000FEF7E3FA284670BD280100200C010020E2
:104BF0009041002010440020F400002070470BE09A
:104C00000648FDF75FFB0648FDF75CFBFFF7F6FF84
:104C10004FF47A70FFF706FAF2E70000A4000020D4
:104C2000B80000200EE001210748FDF702FB0A2131
:104C30000648FDF7FEFA64210548FDF7FAFA6420FC
:104C4000FFF7F0F9EFE700004000002058000020D7
:104C5000700000208EB000BF0DE000235A1E01A995
:104C60000D480068FEF78EFD00231A4601A90B4887
:104C70000068FEF731FCF0E78EB000BF0BE00023C8
:104C80005A1E01A905480068FEF77CFD4FF0FF3170
:104C900001A8FDF7BBFCF2E734000020380000203B
:104CA00040EA01039B0703D009E008C9121F08C0AE
:104CB000042AFAD203E011F8013B00F8013B521E2E
:104CC000F9D27047421C10F8011B0029FBD1801A51
:104CD00070470000064C074D06E0E06840F0010315
:104CE00094E8070098471034AC42F6D3FBF724FA57
:104CF0006C4D00088C4D000870B58C1810F8015BE5
:104D000015F0070301D110F8013B2A1106D110F864
:104D1000012B03E010F8016B01F8016B5B1EF9D168
:104D20002B0705D40023521E0DD401F8013BFAE7EE
:104D300010F8013BCB1A921C03E013F8015B01F859
:104D4000015B521EF9D5A142D8D3002070BD02E00C
:104D500008C8121F08C1002AFAD170477047002006
:104D600001E001C1121F002AFBD170478C4D0008E1
:104D7000000000202C010000F84C0008D44D000871
:104D80002C010020244700005E4D00081184A24A37
:104D900004680901020304060708090C69100524C8
:104DA0000204060839252D0C01402040091118295C
:104DB000140A11021829140A1103186945694C399B
:104DC000A9CA08483A1005192C2975011B1AAA010D
:044DD000014000009E
:0400000508000131BD
:00000001FF
