:020000040800F2
:20000000080A0020C50E0008890F00088B0F00088F0F0008930F0008970F00080000000093
:200020000000000000000000000000009B0F00089D0F0008000000009F0F0008A10F0008EC
:20004000DF0E0008DF0E0008DF0E0008DF0E0008DF0E0008DF0E0008DF0E0008DF0E0008F8
:20006000DF0E0008DF0E0008DF0E0008DF0E0008DF0E0008DF0E0008DF0E0008DF0E0008D8
:20008000DF0E0008DF0E0008DF0E0008DF0E0008DF0E0008DF0E0008DF0E0008DF0E0008B8
:2000A000DF0E0008DF0E0008DF0E0008DF0E0008DF0E0008DF0E0008DF0E0008DF0E000898
:2000C000DF0E0008DF0E0008DF0E0008DF0E0008DF0E0008A50F0008DF0E0008DF0E0008B1
:2000E000DF0E0008DF0E0008DF0E0008DFF80CD001F076FF00480047E90E0008080A002048
:200100000CB50020019000906C48006840F480306A49086000BF6948006800F40030009036
:200120000198401C0190009818B90198B0F5A06FF1D16248006800F4003010B10120009019
:2001400001E0002000900098012843D15C48006840F010005A4908600846006820F0030019
:2001600008600846006840F00200086053484068524948600846406848600846406840F479
:20018000806048600846406820F47C1048600846406840F4E81048600846006840F08070F9
:2001A000086000BF4548006800F000700028F9D04248406820F00300404948600846406866
:2001C00040F00200486000BF3C48406800F00C000828F9D10CBD10B5FFF792FF10BD10B5BD
:2001E0003648006840F00100344908600846406834490840314948600846006832490840AD
:200200002E4908600846006820F4802008600846406820F4FE0048604FF41F008860FFF73D
:20022000DAFF4FF000602949086010BD10B5002100200022214B5B6803F00C0121B1042949
:2002400006D0082928D107E0214B224C236027E01F4B204C236023E0184B5B6803F470105A
:20026000164B5B6803F48032022303EB904022B9194B4343174C23600DE0104B5B6803F421
:20028000003323B1144B4343124C236003E0104B4343104C236003E00D4B0E4C236000BF17
:2002A00000BF064B5B68C3F303130C4CE15C094B1B68CB40074C236010BD00000010024033
:2002C000002002400000FFF8FFFFF6FE08ED00E000127A000000002000093D0004000020E8
:2002E00031490143314A1160704770B5002100230F22C47804B32D4C246804F4E064C4F516
:20030000E064210AC1F10403CA40447804FA03F18478144021430901254C0678A1550478DE
:2003200004F01F050124AC4005786D11AD0005F1E025C5F8004109E0047804F01F05012451
:20034000AC401C4D0678761145F8264070BD1A4A0A400243154B1B1F1A60704739B1134A6E
:20036000121D12680243114B1B1D1A6006E00F4A121D126882430D4B1B1D1A6070470428E7
:2003800008D14FF0E021096941F004014FF0E022116107E04FF0E021096921F004014FF0FB
:2003A000E0221161704700000000FA050CED00E000E400E080E100E080FFFF1F10B5044689
:2003C000CC48844208D10121042000F02DFB0021042000F029FB46E0C748844208D10121BD
:2003E000082000F021FB0021082000F01DFB3AE0C248844208D10121102000F015FB002142
:20040000102000F011FB2EE0BD48844208D10121202000F009FB0021202000F005FB22E055
:20042000B848844208D10121402000F0FDFA0021402000F0F9FA16E0B348844208D101219E
:20044000802000F0F1FA0021802000F0EDFA0AE0AE48844207D10121801500F0E5FA002164
:20046000A01500F0E1FA10BD10B50121084600F0DBFA0021012000F0D7FA10BD2DE9F0411E
:20048000024600250026002000230024002791F803C00CF00F0591F803C00CF0100CBCF1CE
:2004A000000F03D091F802C04CEA050591F800C0BCF1000F31D0146800202BE04FF0010CD6
:2004C0000CFA00F3B1F800C00CEA03069E4220D183004FF00F0C0CFA03F7BC4305FA03FC10
:2004E0004CEA040491F803C0BCF1280F06D14FF0010C0CFA00FCC2F814C00AE091F803C0A5
:20050000BCF1480F05D14FF0010C0CFA00FCC2F810C0401C0828D1D31460B1F800C0BCF16F
:20052000FF0F34DD546800202EE000F1080C4FF0010808FA0CF3B1F800C00CEA03069E421C
:2005400021D183004FF00F0C0CFA03F7BC4305FA03FC4CEA040491F803C0BCF1280F05D18B
:2005600000F1080C08FA0CF8C2F8148091F803C0BCF1480F07D100F1080C4FF0010808FAAB
:200580000CF8C2F81080401C0828CED35460BDE8F0814FF6FF710180022181700421C17076
:2005A00070470246002093680B400BB1012000E0002070470146886880B2704702460020BA
:2005C000D3680B400BB1012000E0002070470146C86880B2704701617047416170470AB174
:2005E000016100E041617047C16070474FF480320A438261816182618269826970470246C9
:200600000020434B18684FF68073184040EA021008433F4B186070473E49C8617047F0B5D0
:200620000A46002300240021002500F00046B6F1004F02D1364EF16901E0354E7168C0F310
:20064000034583B200F44016B6F5401F08D121F070612F4E766826F070662D4F7E6012E07B
:2006600000F48016B6F5801F06D1032606FA05F4A14341F0706106E0460D360103FA06F65E
:20068000B14341F0706122B1460D360103FA06F6314300F00046B6F1004F02D11C4EF161DF
:2006A00001E01B4E7160F0BD30B500228B071C0F0F2303FA04F2164B08338C1053F82430B2
:2006C0009343134C08348D1044F8253023468C1053F824308C07240F00FA04F423430C4C61
:2006E00008348D1044F8253030BD0A49DC3108607047000000080140000C0140001001403D
:200700000014014000180140001C0140002001400000014000002042DF48006840F001000A
:20072000DD49086008464068DC490840DA49486008460068DA490840D7490860084600689E
:2007400020F4802008600846406820F4FE0048604FF41F0088607047CF49096821F480317D
:20076000CD4A11601146096821F480211160B0F5803F03D0B0F5802F0ED106E0C649096832
:2007800041F48031C44A116007E0C349096841F4A021C14A116000E000BF00BF704710B544
:2007A00001460022002300204A11012A02D1BA4C236806E0022A02D1B74C236A01E0B64C4B
:2007C000636A01F01F02012494401C400CB1012000E0002010BD38B5002000900024002554
:2007E00000BF3120FFF7DBFF05460098401C00900098B0F5A06F01D0002DF2D03120FFF7F7
:20080000CEFF08B1012400E00024204638BD01460020A14A106820F0F80040EAC1001060A1
:200820007047A04908607047024600209A4B586820F47C1042EA01031843974B5860704770
:2008400098490866704701460020934A506820F003000843506070478F48406800F00C0056
:200860007047014600208C4A506820F0F00008435060704701460020874A506820F4E060D6
:2008800008435060704701460020834A506820F4605040EAC1005060704729B17E4A527A36
:2008A00002437D4B5A7204E07B4A527A82437A4B5A7270477B49D83108607047014600208A
:2008C000754A506820F440400843506070470021714A20321170704A82F82010012802D04D
:2008E00004280AD104E001216B4A2032117005E00521694A2032117000E000BF00BF7047BD
:200900006949086070476449096A0143624A11627047654944390860704730B5002100225A
:20092000002400235C4D6D6805F00C0121B1042905D0082923D105E05C4D056022E05B4D5A
:2009400005601FE0544D6D6805F47012524D6D6805F48034022505EB92421CB9544D554328
:2009600005600BE04C4D6D6805F400351DB1504D5543056002E04D4D5543056002E04B4D30
:20098000056000BF00BF444D6D6805F0F0010909484D6B5C0568DD4045603F4D6D6805F431
:2009A000E061090A434D6B5C4568DD4085603A4D6D6805F46051C90A3E4D6B5C4568DD40E8
:2009C000C560354D6D6805F44041890B3A4D6B5CC568B5FBF3F5056130BD29B12E4A52691A
:2009E00002432D4B5A6104E02B4A526982432A4B5A61704729B1284A92690243264B9A61C7
:200A000004E0254A92698243234B9A61704729B1214AD2690243204BDA6104E01E4AD269B1
:200A200082431D4BDA61704729B11B4AD2680243194BDA6004E0184AD2688243164BDA605B
:200A4000704729B1144A12690243134B1A6104E0114A12698243104B1A617047124940392E
:200A6000086070470F49C86470470B49C87170470948406A40F080700749486270470146C5
:200A80000020054A92680A400AB1012000E000207047014988727047001002400000FFF8CC
:200AA000FFFFF6FE000042428004424200127A0000093D00140000202400002010B504465F
:200AC000FB48844209D101218803FFF7ADFF00214FF48040FFF7A8FF32E0F648844209D133
:200AE00001214804FFF7ADFF00214FF40030FFF7A8FF25E0F048844209D101218804FFF734
:200B0000A0FF00214FF48020FFF79BFF18E0EB48844209D10121C804FFF793FF00214FF4FD
:200B20000020FFF78EFF0BE0E548844208D101210805FFF786FF00214FF48010FFF781FF47
:200B400010BD2DE9F04786B005460E460024A24600BFA1460027B08900B100BF2F462C8AF9
:200B60004CF6FF700440F08804432C82AC894EF6F3100440B088318908437189084304438A
:200B8000AC81AC8A4FF6FF400440B0890443AC8201A8FFF7C2FEC648874202D1DDF810A0EE
:200BA00001E0DDF80CA0A88900F4004040B10AEBCA0000EB0A1031684900B0FBF1F807E05C
:200BC0000AEBCA0000EB0A1031688900B0FBF1F86420B8FBF0F004012009642101FB10893C
:200BE000A88900F4004040B1322000EBC900B0FBF1F000F00700044308E0322000EB091091
:200C00006421B0FBF1F000F00F0004432C8106B0BDE8F0874FF41651016000218180C18090
:200C200001810C21418100218181704710B502460020108A4FF2FF0318400B884C8823433A
:200C40008C882343CC8823431843108210BD0021018041808180C180704721B1828942F437
:200C60000052828104E082894DF6FF731A4082817047F0B50346002400260025002040F6B4
:200C80006A17B94200D100BF1846C1F3421401F01F06012707FA06F5012C01D10C3004E087
:200CA000022C01D1103000E014301AB107682F43076002E00768AF430760F0BD1AB1838A8E
:200CC0000B43838202E0838A8B4383827047028A4FF6F0731A400282028A0A430282704722
:200CE00082894FF2FF731A40828182890A438281704721B1828942F00202828104E08289C2
:200D00004FF6FD731A4082817047028A4FF6DF731A400282028A0A430282704721B1028A97
:200D200042F48042028204E0028A4BF6FF731A4002827047C1F308028280704701468888B1
:200D4000C0F308007047818941F0010181817047028BD2B20283028B42EA0122028370477D
:200D6000028B02F47F420283028B0A430283704721B1828A42F02002828204E0828A4FF629
:200D8000DF731A408282704721B1828A42F01002828204E0828A4FF6EF731A40828270471A
:200DA00021B1828A42F00802828204E0828A4FF6F7731A408282704721B1828942F400420C
:200DC000828103E08289C2F30E028281704721B1828A42F40062828204E0828A4FF2FF7386
:200DE0001A4082827047828A4FF6FB731A408282828A0A438282704721B1828A42F0020299
:200E0000828204E0828A4FF6FD731A408282704702460020B1F5007F00D100BF13880B4011
:200E20000BB1012000E00020704701F40072B2F5007F00D100BFCA430280704770B502464E
:200E4000002400230025002040F66A16B14200D100BFC1F3421501F01F03012606FA03F392
:200E6000012D02D19689334006E0022D02D1168A334001E0968A33400C12012606FA04F433
:200E80001688344013B10CB1012000E0002070BD10B50022002340F66A14A14200D100BF40
:200EA0000A1201249440A3B2DC43048010BD0000003801400044004000480040004C004047
:200EC000005000400648804706480047FEE7FEE7FEE7FEE7FEE7FEE7FEE7FEE7FEE7FEE7E6
:200EE000DF010008ED00000808B5482000F022FD00F065FC012321A200211E2000F0D6FB89
:200F000000F05CF800F06EFD00F0DEFD01211020FFF770FD4FF42040ADF8000001208DF8C4
:200F2000020010208DF8030069461648FFF7A6FA4FF400511348FFF74EFB4FF40041114849
:200F4000FFF74BFB19E04FF400510E48FFF743FB4FF400410B48FFF740FBC82000F022FD3F
:200F60004FF400410748FFF736FB4FF400510548FFF733FBC82000F015FDE4E74E52465F78
:200F80005359000000100140704700BFFEE700BFFEE700BFFEE700BFFEE7704770477047E8
:200FA0007047704710B540F225510348FFF746FF08B100F00FFE10BD004800401CB50121D2
:200FC0000820FFF717FD4FF4F070ADF8040048208DF807001020ADF8000048208DF80300DA
:200FE00001A98A48FFF74AFA69468848FFF746FA1CBD70B504460025012C04D180218348AB
:20100000FFF7CFFA0546022C04D110217F48FFF7C8FA0546032C04D120217C48FFF7C1FA0E
:201020000546042C04D140217848FFF7BAFA0546052C05D14FF480717448FFF7B2FA054666
:20104000284670BD10B50446012C2AD17048007820B101280AD0022821D116E02046FFF74C
:20106000C8FF012801D16A49087019E02046FFF7C0FF012803D102206549087004E0002026
:2010800063490870634908700AE02046FFF7B1FF20B96048047000205D49087000E000BF40
:2010A00000BF022C2AD15C48007820B101280AD0022821D116E02046FFF79BFF012801D155
:2010C0005549087019E02046FFF793FF012803D102205149087004E000204F4908704D4938
:2010E00008700AE02046FFF784FF20B94948047000204949087000E000BF00BF032C2AD11F
:201100004648007820B101280AD0022821D116E02046FFF76EFF012801D14049087019E025
:201120002046FFF766FF012803D102203B49087004E0002039490870364908700AE020468E
:20114000FFF757FF20B93348047000203349087000E000BF00BF042C2AD13148007820B11C
:2011600001280AD0022821D116E02046FFF741FF012801D12A49087019E02046FFF739FF4B
:20118000012803D102202649087004E0002024490870204908700AE02046FFF72AFF20B937
:2011A0001C48047000201E49087000E000BF00BF052C2AD11B48007820B101280AD00228F5
:2011C00021D116E02046FFF714FF012801D11549087019E02046FFF70CFF012803D1022068
:2011E0001049087004E000200E490870094908700AE02046FFF7FDFE20B906480470002085
:201200000849087000E000BF00BF10BD000C014029000020280000202A0000202B00002067
:201220002C0000202D00002070B504460E4626B10821FE48FFF7CFF903E00821FB48FFF709
:20124000CCF91021F948FFF7C8F9002517E00121F648FFF7C2F904F0800020B10221F348D0
:20126000FFF7B9F903E00221F048FFF7B6F90121EE48FFF7B0F96006040E681CC5B2082D44
:20128000E5DB1021E948FFF7A6F90821E748FFF7A2F970BD70B504460D4605F1B001C8B29E
:2012A0000021FFF7C1FF102141EA14100021FFF7BBFF04F00F0141F001000021FFF7B4FF06
:2012C00070BD10B500218D20FFF7AEFF00211420FFF7AAFF0021AF20FFF7A6FF10BD10B59A
:2012E00000218D20FFF7A0FF00211020FFF79CFF0021AE20FFF798FF10BD70B5002419E01E
:2013000004F1B001C8B20021FFF78EFF00210846FFF78AFF00211020FFF786FF002505E045
:2013200001210020FFF780FF681CC5B2802DF7DB601CC4B2082CE3DB70BD70B500241CE026
:2013400004F1B001C8B20021FFF76EFF00210846FFF76AFF00211020FFF766FF002508E062
:20136000B34901EBC501085D0121FFF75DFF681CC5B2802DF4DB601CC4B2082CE0DB70BD61
:201380002DE9F047054688461646994600270024B9F1010F03D0B9F1020F55D120E0F6B14C
:2013A000A6F12000C7B27E2D04DD002508F1010000F0FF0841462846FFF76CFF00240AE0F7
:2013C00007EB47019B4A02EB4101085D0121FFF72BFF601CC4B2062CF2DBA81DC5B233E0D8
:2013E0008EB3A6F12000C7B2782D04DD002508F1010000F0FF0841462846FFF74BFF002487
:2014000008E004EB07118C4A505C0121FFF70CFF601CC4B2082CF4DB08F10100C1B2284668
:20142000FFF738FF002409E004EB07110831824A505C0121FFF7F8FE601CC4B2082CF3DBB8
:2014400005F10800C5B200BF00BFBDE8F08710B50246012000E050430B00A1F10104E1B2A7
:20146000F9D110BD2DE9FF5F8EB0064617469846DDE91C9B1E9C00200B90002213463846B1
:20148000414600F007FD16D223462D2230460F99FFF776FF012C05D104EB440006EB400041
:2014A000C6B202E006EB8400C6B2A9F1010000F0FF0988F000483846414600F0CBFC0D9039
:2014C00059460A20FFF7C3FF0D994843039000F0B4FCCDE9060159460A20FFF7B8FF019063
:2014E00000F0ABFC3A464346CDE9020100F033FCCDE90401DDE9062300F027FCCDE90801F8
:2015000000F0A8FC0C9000254FE0A9EB0500401EC1B20A20FFF79BFF0D99B1FBF0F00A21C6
:20152000B0FBF1F201FB120A0B9800BBA9F10100A8421CDDBAF1000F17D1012C0BD104EB8F
:201540004401490001FB0561C8B2234620220F99FFF716FF08E0A10001FB0561C8B22346F5
:2015600020220F99FFF70CFF1DE001200B90012C0DD10AF13001CAB204EB4401490001FB9B
:201580000561C8B223460F99FFF7FAFE0AE00AF13001CAB2A10001FB0561C8B223460F994C
:2015A000FFF7EEFE00BF681CC5B24D45ADDBBBF1000F78D0012C0BD104EB4401490009FBE8
:2015C0000161C8B223462E220F99FFF7D9FE08E0A10009FB0161C8B223462E220F99FFF741
:2015E000CFFE00255DE0ABEB0500401EC1B20A20FFF72DFF0C99B1FBF0F00A21B0FBF1F21A
:2016000001FB120A5D454ADABAF1000F2AD0012C19D104EB44014B0005EB0901491C03FB45
:201620000161C8B20AF13001CAB207E0000801400802002078200008A022000823460F9951
:20164000FFF79EFE2BE0A30005EB0901491C03FB0161C8B20AF13001CAB223460F99FFF762
:201660008FFE1CE0012C0ED104EB44014A0005EB0901491C02FB0161C8B2234630220F99BC
:20168000FFF77EFE0BE0A20005EB0901491C02FB0161C8B2234630220F99FFF771FE681CC7
:2016A000C5B25D459FDB12B0BDE8F09F2DE9F04104460F461546984600260FE0AA5D4346DD
:2016C00039462046FFF75CFE04F10800C4B2782C02DD0024B81CC7B2701CC6B2A85D00283D
:2016E000ECD1BDE8F0812DE9F04180460E461546002731464046FFF7CDFD00240AE08B4A94
:2017000002EB8511085D0121FFF78EFD781CC7B2601CC4B2102CF2DB701CC1B24046FFF7BB
:20172000B9FD00240CE06900491C804A02EB4111085D0121FFF778FD781CC7B2601CC4B21B
:20174000102CF0DBBDE8F0812DE9F05F06460F4690461C46DDF828A04FF0000BE11704EB60
:201760005171C910A4EBC10131B92046E11704EB5171C1F3C70506E02046E11704EB51710F
:20178000C910491CCDB23D4615E029463046FFF781FDB1460BE059460BF1010B1AF801001F
:2017A0000121FFF741FD09F1010000F0FF09C145F1DB681CC5B2A542E7DBBDE8F09F1CB565
:2017C00001210420FFF716F90F20ADF8040010208DF8070003208DF8060001A95448FEF741
:2017E0004DFE0F215248FEF7F6FE01210420FFF701F91020ADF800008DF8030003208DF8B0
:20180000020069464A48FEF739FE10214848FEF7E2FE04214648FEF7DEFE642000F0C2F811
:2018200004214348FEF7D9FE642000F0BBF804213F48FEF7D0FE0021AE20FFF7F5FC00219F
:201840000846FFF7F1FC00211020FFF7EDFC00214020FFF7E9FC00218120FFF7E5FC002111
:20186000EF20FFF7E1FC0021A120FFF7DDFC0021C820FFF7D9FC0021A620FFF7D5FC002132
:20188000A820FFF7D1FC00213F20FFF7CDFC0021D320FFF7C9FC00210846FFF7C5FC002168
:2018A000D520FFF7C1FC00218020FFF7BDFC0021D920FFF7B9FC0021F120FFF7B5FC002151
:2018C000DA20FFF7B1FC00211220FFF7ADFC0021DB20FFF7A9FC00214020FFF7A5FC002189
:2018E0002020FFF7A1FC00210220FFF79DFC00218D20FFF799FC00211420FFF795FC0021ED
:20190000A420FFF791FC0021A620FFF78DFC0021AF20FFF789FC0021AF20FFF785FCFFF752
:20192000ECFC00210846FFF7B5FC1CBD2E000020000801404FF0E021096921F004014FF032
:20194000E0221161C21700EB5272C2F3C702234B1A701946097801EB4102C2EBC1114FF642
:20196000FF7202EAC1011E4A1180704701461B4A12784A434FF0E0235A6100229A61012298
:201980001A6100BF4FF0E022106900F001021AB100F48032002AF5D000224FF0E0231A6121
:2019A0009A61704701460E4A12884A434FF0E0235A6100229A6101221A6100BF4FF0E022F7
:2019C000106900F001021AB100F48032002AF5D000224FF0E0231A619A617047EE0100209B
:2019E000F001002000B585B001210420FFF702F801218803FEF7FEFF4FF48070ADF810002F
:201A000018208DF8130003208DF8120004A92248FEF734FD4FF40070ADF8100004208DF8EE
:201A2000130004A91C48FEF729FD4FF4E13000900020ADF80400ADF80600ADF80800ADF8BD
:201A40000C000C20ADF80A0069461448FFF779F801211248FFF701F905B000BD70B50446E0
:201A60000D46E1B20D48FFF765F900BF80210B48FFF7CEF90028F9D0204670BD10B50446D4
:201A800000BF20210548FFF7C3F90028F9D00348FFF754F910BD0000000801400038014039
:201AA00008B54FF4A060FEF71BFC27208DF8000003208DF801008DF8020001208DF8030075
:201AC0006846FEF712FC08BD00B585B001210820FEF790FF01218804FEF799FF4FF480607A
:201AE000ADF8100018208DF8130003208DF8120004A94148FEF7C2FC4FF40060ADF8100066
:201B000004208DF8130004A93B48FEF7B7FCFFF7C7FF4FF4165000900020ADF80400ADF8CE
:201B20000600ADF80800ADF80C000C20ADF80A0069463248FFF705F8012240F225512F4808
:201B4000FFF797F801212D48FFF787F805B000BD70B504460D4629462046FFF7EBF800BF53
:201B600080212046FFF754F90028F9D070BD70B506460C46002500BF615D3046FFF7E8FF45
:201B80006D1C605D0028F7D100BF40213046FFF73FF90028F9D070BD2DE9F04105460C4649
:201BA000260AE7B231462846FFF7C4F800BF80212846FFF72DF90028F9D039462846FFF707
:201BC000B9F800BF80212846FFF722F90028F9D0BDE8F08110B50948FFF7B0F80849086001
:201BE000084600780749087008464078887008460078487010BD0000000C01400048004039
:201C000004020020F40100202DE9FE4F804681EA0300C00F0C46009021F0004123F0004597
:201C2000B8EB0200A94105D24046214690461C460B46024623F00040104347D0270DC7F3D5
:201C40000A00C3F30A510290401A019040286BDAC3F3130040F4801B0098924620B1002343
:201C6000D2EB030A63EB0B0B01985946C0F14002504600F027F906460D4650465946019AF6
:201C800000F03FF910EB08006141002487EA115284EAE7731A4340D0009A62B3019A012AD5
:201CA0004FEA075215DC001B61EB02014FF0004202EA0752CDE90042001C41F5801132461E
:201CC0002B4600F03FF903B0BDE8F08F40462146F9E7001B61EB0201001C41F58013001860
:201CE0005B412018A2F5001747EB030140EAD570B6196D4111E06D084FEA360645EAC07501
:201D00004FEA0752001B61EB0201001C41F5801149084FEA30000019514132462B4603B0E3
:201D2000BDE8F04F00F0FFB80098012240000023D0EB020263EBE073009821464FEAE0740E
:201D4000B8EB000061EB0401E9E783F000435BE781F0004158E72DE9FE4F81EA030404F00D
:201D6000004421F0004100944FF0000B23F0004350EA01045ED052EA03045BD0C3F30A54AA
:201D8000C1F30A552C44A4F2F3340194A0FB0254C1F3130141F48011C3F3130343F4801359
:201DA00001FB024400FB034E840A970A44EA815447EA8357A4FB076802958D0A05FB078590
:201DC0004FEA932C04FB0C542705029D4FEA065847EA1637B5EB08056EEB070C870E920E7E
:201DE00047EA811742EA8312A7FB0201B6EB0B0164EB00042B0D43EA0C335E1844EB1C50FF
:201E0000DA465146E7FB0201C5F313044FEA0B3343EA14534FEA0432019C43EA0603A4F175
:201E20000C040294009CCDE900B400F08BF803B0BDE8F08F00200146F9E70EB540F23341FC
:201E400002910021CDE900110A460B4600F07AF803B000BD70B5C1F30A5201F00045002405
:201E6000C1F3130140F2FF3341F480119A4201DA002070BD40F233439A42A2F2334203DC00
:201E8000524200F02EF800E090402C43F1D0404270BD000030B5041E71F1000404DB4FF07E
:201EA0000044404264EB0101141E73F1000405DB1C464FF00043524263EB04038B4208BF30
:201EC000824230BD202A04DB203A00FA02F1002070479140C2F1200320FA03F31943904027
:201EE0007047202A04DB203A21FA02F00021704721FA02F3D040C2F1200291400843194653
:201F00007047202A06DBCB17203A41FA02F043EAE07306E041FA02F3D040C2F1200291402A
:201F200008431946704710B5141E73F1000408DA401C41F1000192185B411A4301D120F0EB
:201F4000010010BD2DE9F04D92469B4611B1B1FA81F202E0B0FA80F220329046FFF7B2FFFA
:201F600004460F4640EA0A0041EA0B0153465A46084313D0114653EA010019D0C8F1400277
:201F80005046FFF7AEFF05460E46504659464246FFF798FF084305D0012004E02046394615
:201FA000BDE8F08D0020054346EAE0762C4337430A986305E40AA0EB08000022FD0A44EA46
:201FC00047540A3002D500200146E9E7010510196941DDE9084500196941BDE8F04DA2E704
:201FE000064C074D06E0E06840F0010394E8070098471034AC42F6D3FEF77CF89028000853
:020000040800F2
:20200000B028000870B58C1810F8015B15F0070301D110F8013B2A1106D110F8012B03E065
:2020200010F8016B01F8016B5B1EF9D12B0705D40023521E0DD401F8013BFAE710F8013BAB
:20204000CB1A921C03E013F8015B01F8015B521EF9D5A142D8D3002070BD02E008C8121F52
:2020600008C1002AFAD170477047002001E001C1121F002AFBD17047000000000000000093
:20208000002F000000000700070000147F147F1400242A7F2A1200626408132300364955E8
:2020A000225000000503000000001C224100000041221C000014083E08140008083E0808D4
:2020C000000000A06000000808080808000060600000002010080402003E5149453E00007F
:2020E000427F4000004261514946002141454B31001814127F10002745454539003C4A496E
:20210000493000017109050300364949493600064949291E000036360000000056360000A5
:2021200000081422410000141414141400004122140800020151090600324959513E007CFB
:202140001211127C007F49494936003E41414122007F4141221C007F49494941007F0909B0
:202160000901003E4149497A007F0808087F0000417F4100002040413F01007F08142241D4
:20218000007F40404040007F020C027F007F0408107F003E4141413E007F09090906003E7B
:2021A0004151215E007F091929460046494949310001017F0101003F4040403F001F20406C
:2021C000201F003F4038403F00631408146300070870080700615149454300007F41410082
:2021E00000552A552A55000041417F00000402010204004040404040000001020400002017
:2022000054545478007F4844443800384444442000384444487F00385454541800087E093D
:2022200001020018A4A4A47C007F080404780000447D4000004080847D00007F1028440057
:202240000000417F4000007C04180478007C0804047800384444443800FC24242418001892
:20226000242418FC007C0804040800485454542000043F444020003C4040207C001C20404F
:20228000201C003C4030403C004428102844001CA0A0A07C004464544C4414141414141476
:2022A00000000000000000000000000000000000000000F8000000000000003330000000C3
:2022C00000100C06100C0600000000000000000040C07840C0784000043F04043F040400F8
:2022E000007088FC08300000001820FF211E0000F008F000E018000000211C031E211E00BF
:2023000000F00888700000001E2123241927211010160E00000000000000000000000000A2
:20232000000000E018040200000000071820400000020418E00000000040201807000000A3
:20234000404080F0804040000202010F01020200000000F0000000000101011F010101005F
:20236000000000000000000080B070000000000000000000000000000001010101010101B6
:20238000000000000000000000303000000000000000000080601804006018060100000062
:2023A00000E010080810E000000F102020100F00001010F8000000000020203F20200000D8
:2023C0000070080808887000003028242221300000300888884830000018202020110E0037
:2023E0000000C02010F8000000070424243F240000F80888880808000019212020110E0086
:2024000000E0108888180000000F112020110E0000380808C83808000000003F0000000096
:202420000070880808887000001C222121221C0000E010080810E0000000312222110F0059
:20244000000000C0C00000000000003030000000000000800000000000008060000000003C
:20246000000080402010080000010204081020004040404040404000040404040404040049
:2024800000081020408000000020100804020100007048080808F0000000003036010000DE
:2024A000C030C828E810E0000718272423140B000000C038E0000000203C230202273820DE
:2024C00008F8888888700000203F202020110E00C030080808083800071820202010080037
:2024E00008F808080810E000203F202020100F0008F88888E8081000203F202023201800EC
:2025000008F88888E8081000203F200003000000C03008080838000007182020221E020048
:2025200008F808000008F808203F210101213F20000808F8080800000020203F20200000B2
:2025400000000808F8080800C08080807F00000008F888C028180800203F20012638200016
:2025600008F8080000000000203F20202020300008F8F800F8F80800203F003F003F200057
:2025800008F830C00008F808203F200007183F00E01008080810E0000F10202020100F00D0
:2025A00008F808080808F000203F210101010000E01008080810E0000F18242438504F004A
:2025C00008F8888888887000203F2000030C302000708808080838000038202121221C006D
:2025E000180808F8080818000000203F2000000008F808000008F808001F202020201F0046
:202600000878880000C83808000007380E010000F80800F80008F800033C0700073C0300D8
:20262000081868808068180820302C03032C30200838C800C83808000000203F20000000FD
:2026400010080808C83808002038262120201800000000FE020202000000007F4040400010
:20266000000C30C000000000000000010638C00000020202FE000000004040407F0000001C
:2026800000000402020204000000000000000000000000000000000080808080808080802C
:2026A0000002020400000000000000000000000000008080808000000019242222223F2010
:2026C00008F8008080000000003F112020110E000000008080800000000E1120202011003B
:2026E000000000808088F800000E112020103F200000808080800000001F222222221300D2
:20270000008080F0888888180020203F202000000000808080808000006B949494936000C0
:2027200008F8008080800000203F210000203F2000809898000000000020203F20200000AB
:20274000000000809898000000C08080807F000008F8000080808000203F24022D30200088
:20276000000808F8000000000020203F202000008080808080808000203F20003F20003FF5
:202780008080008080800000203F210000203F200000808080800000001F202020201F00FC
:2027A000808000808000000080FFA12020110E000000008080808000000E112020A0FF801C
:2027C000808080008080800020203F212000010000008080808080000033242424241900DC
:2027E000008080E0808000000000001F202000008080000000808000001F202020103F20AC
:20280000808080000080808000010E300806010080800080008080800F300C030C300F00D1
:2028200000808000808080000020312E0E312000808080000080808080818E70180601001C
:2028400000808080808080000021302C2221300000000000807C020200000000003F4040C9
:2028600000000000FF00000000000000FF0000000002027C800000000040403F000000009B
:2028800000060101020204040000000000000000B0280008000000200802000004200008EE
:2028A0008829000808020020000800006A2000081184A24A04680901020304060708090C71
:2028C000691085020406081BF010012AFF050215F01B0F04012AFF0502130F180940404033
:2028E0005F55555575041A5F0C091121080C11200F094989790909090F201F112FFE0242AE
:202900004ACA4A0304134202FE000E14FF40504C4340404F50505C40FF1BF888012AFF05E9
:202920000215F81B1F08012A7F200B109F80E23B808201000916E2A2928A8682808004183F
:2029400040807F172424A4FEA3221B22CCAA011415080601FF2B0104010511FF02020258E3
:2029600008101010FF109008C3021108080F150444827F01808040432C10284681A09167DE
:0829800059595958585800003C
:00000001FF
