:020000040800F2
:10000000803C002001120008251200082712000879
:100010002B1200082F120008331200080000000005
:100020000000000000000000000000004501000882
:10003000371200080000000089010008971B000823
:100040001B1200081B1200081B1200081B120008DC
:100050001B1200081B1200081B1200081B120008CC
:100060001B1200081B1200081B1200081B120008BC
:100070001B1200081B120008A91600081B1200081A
:100080001B1200081B1200081B1200081B1200089C
:100090001B1200081B1200081B1200081B1200088C
:1000A0001B1200081B1200081B1200081B1200087C
:1000B0001B1200081B1200081B1200081B1200086C
:1000C0001B1200081B1200081B1200081B1200085C
:1000D0001B120008C71600081B1200081B1200089C
:1000E0001B1200081B1200081B1200081B1200083C
:1000F0001B1200081B1200081B1200081B1200082C
:100100001B1200081B1200081B1200081B1200081B
:100110001B1200081B1200081B1200081B1200080B
:100120001B1200081B1200081B1200081B120008FB
:10013000DFF80CD003F088FA004800479F1200084F
:10014000803C0020204B19680868B0E8F00F80F36D
:100150000988BFF36F8F4FF0000080F311884EF0D5
:100160000D0E70470000000006480068006880F32C
:10017000088862B661B6BFF34F8FBFF36F8F00DFA1
:1001800000BF00BF08ED00E0EFF30980BFF36F8F01
:100190000D4B1A6820E9F00F106008B54FF0100001
:1001A00080F3118802F0E3FC4FF0000080F3118827
:1001B000BDE8084019680868B0E8F00F80F30988C6
:1001C000BFF36F8F704700BFE8000020EFF311808E
:1001D0004FF0100181F31188704780F31188704748
:1001E000EFF30580704700000CB5002001900090EF
:1001F0006C48006840F480306A49086000BF694874
:10020000006800F4003000900198401C01900098B4
:1002100018B90198B0F5A06FF1D16248006800F4F8
:10022000003010B10120009001E000200090009803
:10023000012843D15C48006840F010005A4908602A
:100240000846006820F0030008600846006840F097
:1002500002000860534840685249486008464068B8
:1002600048600846406840F480604860084640683E
:1002700020F47C1048600846406840F4E81048606C
:100280000846006840F08070086000BF454800687C
:1002900000F000700028F9D04248406820F00300C8
:1002A000404948600846406840F00200486000BF8E
:1002B0003C48406800F00C000828F9D10CBD10B58E
:1002C000FFF792FF10BD10B53648006840F00100FE
:1002D000344908600846406834490840314948605C
:1002E00008460068324908402E4908600846006800
:1002F00020F4802008600846406820F4FE00486032
:100300004FF41F008860FFF7DAFF4FF000602949C3
:10031000086010BD10B5002100200022214B5B6851
:1003200003F00C0121B1042906D0082928D107E0E7
:10033000214B224C236027E01F4B204C236023E0FD
:10034000184B5B6803F47010164B5B6803F4803243
:10035000022303EB904022B9194B4343174C23600F
:100360000DE0104B5B6803F4003323B1144B43439F
:10037000124C236003E0104B4343104C236003E016
:100380000D4B0E4C236000BF00BF064B5B68C3F3F0
:1003900003130C4CE15C094B1B68CB40074C2360FA
:1003A00010BD000000100240002002400000FFF8D5
:1003B000FFFFF6FE08ED00E000127A0000000020CA
:1003C00000093D000400002031490143314A116019
:1003D000704770B5002100230F22C47804B32D4C60
:1003E000246804F4E064C4F5E064210AC1F1040364
:1003F000CA40447804FA03F1847814402143090187
:10040000254C0678A155047804F01F050124AC4062
:1004100005786D11AD0005F1E025C5F8004109E052
:10042000047804F01F050124AC401C4D06787611B9
:1004300045F8264070BD1A4A0A400243154B1B1F5F
:100440001A60704739B1134A121D12680243114BEA
:100450001B1D1A6006E00F4A121D126882430D4BE5
:100460001B1D1A607047042808D14FF0E02109696C
:1004700041F004014FF0E022116107E04FF0E0216C
:10048000096921F004014FF0E0221161704700007A
:100490000000FA050CED00E000E400E080E100E07F
:1004A00080FFFF1F01684FF6FE72114001600021BE
:1004B000016041608160C1608D49884208D18C49EA
:1004C0000839496841F00F01894A083A51608AE0C9
:1004D00087491431884208D185490839496841F073
:1004E000F001834A083A51607DE081492831884211
:1004F00008D17F490839496841F470617C4A083A5B
:10050000516070E07A493C31884208D17849083915
:10051000496841F47041764A083A516063E0744991
:100520005031884208D172490839496841F4702134
:100530006F4A083A516056E06D496431884208D1EB
:100540006B490839496841F47001694A083A5160B9
:1005500049E067497831884208D1654908394968D6
:1005600041F07061624A083A51603CE0614988425A
:1005700006D1011F096841F00F01021F116032E02E
:100580005C491431884208D15A49091F096841F071
:10059000F001584A121F116025E05649283188425F
:1005A00008D15449091F096841F47061514A121F6A
:1005B000116018E04F493C31884208D14D49091F6C
:1005C000096841F470414B4A121F11600BE0494920
:1005D0005031884207D14749091F096841F4702109
:1005E000444A121F1160704710B50022026847F696
:1005F000F0739A430C6A8B6823430C6923434C695C
:1006000023438C692343CC6923434C6A23438C6A7C
:1006100023431A430260CB6843600B6883604B68D6
:10062000C36010BD0021016041608160C160016153
:1006300041618161C161016241628162704721B1A2
:10064000026842F00102026004E002684FF6FE73A5
:100650001A40026070471AB103680B43036002E05E
:1006600003688B43036070474160704701464868E8
:1006700080B2704701460020002201F080531BB178
:100680001C4B083B1A6802E0194B083B1A6802EA47
:1006900001030BB1012000E00020704700F0805101
:1006A00019B11449091F086002E01149083948606E
:1006B000704701460020002201F080531BB10D4B12
:1006C000083B1A6802E00A4B083B1A6802EA010379
:1006D0000BB1012000E00020704700F0805119B1FB
:1006E0000449091F086002E0014908394860704761
:1006F000080002400804024010B50446CC48844279
:1007000008D10121042000F02DFB0021042000F07D
:1007100029FB46E0C748844208D10121082000F0A7
:1007200021FB0021082000F01DFB3AE0C248844272
:1007300008D10121102000F015FB0021102000F04D
:1007400011FB2EE0BD48844208D10121202000F099
:1007500009FB0021202000F005FB22E0B84884427C
:1007600008D10121402000F0FDFA0021402000F0D6
:10077000F9FA16E0B348844208D10121802000F044
:10078000F1FA0021802000F0EDFA0AE0AE48844240
:1007900007D10121801500F0E5FA0021A01500F035
:1007A000E1FA10BD10B50121084600F0DBFA002186
:1007B000012000F0D7FA10BD2DE9F04102460025D6
:1007C0000026002000230024002791F803C00CF02D
:1007D0000F0591F803C00CF0100CBCF1000F03D012
:1007E00091F802C04CEA050591F800C0BCF1000F79
:1007F00031D0146800202BE04FF0010C0CFA00F30C
:10080000B1F800C00CEA03069E4220D183004FF0ED
:100810000F0C0CFA03F7BC4305FA03FC4CEA040482
:1008200091F803C0BCF1280F06D14FF0010C0CFA6F
:1008300000FCC2F814C00AE091F803C0BCF1480FF4
:1008400005D14FF0010C0CFA00FCC2F810C0401C9E
:100850000828D1D31460B1F800C0BCF1FF0F34DD1B
:10086000546800202EE000F1080C4FF0010808FA4F
:100870000CF3B1F800C00CEA03069E4221D18300BC
:100880004FF00F0C0CFA03F7BC4305FA03FC4CEADB
:10089000040491F803C0BCF1280F05D100F1080C45
:1008A00008FA0CF8C2F8148091F803C0BCF1480FA4
:1008B00007D100F1080C4FF0010808FA0CF8C2F853
:1008C0001080401C0828CED35460BDE8F0814FF65C
:1008D000FF710180022181700421C17070470246BE
:1008E000002093680B400BB1012000E0002070470E
:1008F0000146886880B2704702460020D3680B40EA
:100900000BB1012000E0002070470146C86880B2AA
:10091000704701617047416170470AB1016100E0B1
:1009200041617047C16070474FF480320A43826171
:100930008161826182698269704702460020434B6F
:1009400018684FF68073184040EA021008433F4B86
:10095000186070473E49C8617047F0B50A460023E9
:1009600000240021002500F00046B6F1004F02D11E
:10097000364EF16901E0354E7168C0F3034583B22C
:1009800000F44016B6F5401F08D121F070612F4EDB
:10099000766826F070662D4F7E6012E000F48016B7
:1009A000B6F5801F06D1032606FA05F4A14341F0EF
:1009B000706106E0460D360103FA06F6B14341F0D8
:1009C000706122B1460D360103FA06F6314300F09C
:1009D0000046B6F1004F02D11C4EF16101E01B4E02
:1009E0007160F0BD30B500228B071C0F0F2303FA96
:1009F00004F2164B08338C1053F824309343134CF5
:100A000008348D1044F8253023468C1053F82430D8
:100A10008C07240F00FA04F423430C4C08348D1087
:100A200044F8253030BD0A49DC31086070470000C9
:100A300000080140000C014000100140001401407A
:100A400000180140001C014000200140000001404E
:100A500000002042DF48006840F00100DD490860E6
:100A600008464068DC490840DA49486008460068A2
:100A7000DA490840D74908600846006820F4802019
:100A800008600846406820F4FE0048604FF41F00EC
:100A900088607047CF49096821F48031CD4A1160E0
:100AA0001146096821F480211160B0F5803F03D020
:100AB000B0F5802F0ED106E0C649096841F48031B7
:100AC000C44A116007E0C349096841F4A021C14A42
:100AD000116000E000BF00BF704710B50146002262
:100AE000002300204A11012A02D1BA4C236806E0F3
:100AF000022A02D1B74C236A01E0B64C636A01F0C6
:100B00001F02012494401C400CB1012000E0002091
:100B100010BD38B5002000900024002500BF312012
:100B2000FFF7DBFF05460098401C00900098B0F5E9
:100B3000A06F01D0002DF2D03120FFF7CEFF08B119
:100B4000012400E00024204638BD01460020A14ACF
:100B5000106820F0F80040EAC10010607047A0491A
:100B600008607047024600209A4B586820F47C10B9
:100B700042EA01031843974B58607047984908664A
:100B8000704701460020934A506820F00300084354
:100B9000506070478F48406800F00C007047014675
:100BA00000208C4A506820F0F000084350607047E5
:100BB00001460020874A506820F4E06008435060F6
:100BC000704701460020834A506820F4605040EA94
:100BD000C1005060704729B17E4A527A02437D4B72
:100BE0005A7204E07B4A527A82437A4B5A727047B7
:100BF0007B49D8310860704701460020754A50682B
:100C000020F440400843506070470021714A203270
:100C10001170704A82F82010012802D004280AD1ED
:100C200004E001216B4A2032117005E00521694A78
:100C30002032117000E000BF00BF704769490860B2
:100C400070476449096A0143624A11627047654905
:100C500044390860704730B5002100220024002389
:100C60005C4D6D6805F00C0121B1042905D00829FF
:100C700023D105E05C4D056022E05B4D05601FE07F
:100C8000544D6D6805F47012524D6D6805F4803452
:100C9000022505EB92421CB9544D554305600BE00B
:100CA0004C4D6D6805F400351DB1504D5543056040
:100CB00002E04D4D5543056002E04B4D056000BF1D
:100CC00000BF444D6D6805F0F0010909484D6B5CAB
:100CD0000568DD4045603F4D6D6805F4E061090A37
:100CE000434D6B5C4568DD4085603A4D6D6805F4A9
:100CF0006051C90A3E4D6B5C4568DD40C560354DAD
:100D00006D6805F44041890B3A4D6B5CC568B5FBD5
:100D1000F3F5056130BD29B12E4A526902432D4BCE
:100D20005A6104E02B4A526982432A4B5A61704748
:100D300029B1284A92690243264B9A6104E0254A68
:100D400092698243234B9A61704729B1214AD26943
:100D50000243204BDA6104E01E4AD26982431D4BF4
:100D6000DA61704729B11B4AD2680243194BDA6035
:100D700004E0184AD2688243164BDA60704729B102
:100D8000144A12690243134B1A6104E0114A1269B2
:100D90008243104B1A61704712494039086070470E
:100DA0000F49C86470470B49C87170470948406AC9
:100DB00040F0807007494862704701460020054AAC
:100DC00092680A400AB1012000E000207047014902
:100DD00088727047001002400000FFF8FFFFF6FE27
:100DE000000042428004424200127A0000093D00A5
:100DF000140000202400002010B50446FB48844263
:100E000009D101218803FFF7ADFF00214FF4804095
:100E1000FFF7A8FF32E0F648844209D101214804D7
:100E2000FFF7ADFF00214FF40030FFF7A8FF25E0EA
:100E3000F048844209D101218804FFF7A0FF002176
:100E40004FF48020FFF79BFF18E0EB48844209D164
:100E50000121C804FFF793FF00214FF40020FFF7A2
:100E60008EFF0BE0E548844208D101210805FFF719
:100E700086FF00214FF48010FFF781FF10BD2DE9A0
:100E8000F04786B005460E460024A24600BFA146A4
:100E90000027B08900B100BF2F462C8A4CF6FF70A6
:100EA0000440F08804432C82AC894EF6F3100440D1
:100EB000B08831890843718908430443AC81AC8A06
:100EC0004FF6FF400440B0890443AC8201A8FFF70D
:100ED000C2FEC648874202D1DDF810A001E0DDF86D
:100EE0000CA0A88900F4004040B10AEBCA0000EB56
:100EF0000A1031684900B0FBF1F807E00AEBCA00BC
:100F000000EB0A1031688900B0FBF1F86420B8FBEF
:100F1000F0F004012009642101FB1089A88900F484
:100F2000004040B1322000EBC900B0FBF1F000F00E
:100F30000700044308E0322000EB09106421B0FBF5
:100F4000F1F000F00F0004432C8106B0BDE8F087FB
:100F50004FF41651016000218180C18001810C2174
:100F6000418100218181704710B502460020108A1E
:100F70004FF2FF0318400B884C8823438C8823438F
:100F8000CC8823431843108210BD0021018041808A
:100F90008180C180704721B1828942F400528281F0
:100FA00004E082894DF6FF731A4082817047F0B5E4
:100FB0000346002400260025002040F66A17B942A7
:100FC00000D100BF1846C1F3421401F01F060127EB
:100FD00007FA06F5012C01D10C3004E0022C01D1F6
:100FE000103000E014301AB107682F43076002E0A8
:100FF0000768AF430760F0BD1AB1838A0B43838251
:1010000002E0838A8B4383827047028A4FF6F07333
:101010001A400282028A0A430282704782894FF292
:10102000FF731A40828182890A438281704721B10D
:10103000828942F00202828104E082894FF6FD73C8
:101040001A4082817047028A4FF6DF731A4002828B
:10105000028A0A430282704721B1028A42F4804226
:10106000028204E0028A4BF6FF731A400282704744
:10107000C1F308028280704701468888C0F30800E7
:101080007047818941F0010181817047028BD2B2A2
:101090000283028B42EA012202837047028B02F430
:1010A0007F420283028B0A430283704721B1828A06
:1010B00042F02002828204E0828A4FF6DF731A40F7
:1010C0008282704721B1828A42F01002828204E05B
:1010D000828A4FF6EF731A408282704721B1828A6A
:1010E00042F00802828204E0828A4FF6F7731A40C7
:1010F0008282704721B1828942F40042828103E0FA
:101100008289C2F30E028281704721B1828A42F441
:101110000062828204E0828A4FF2FF731A40828268
:101120007047828A4FF6FB731A408282828A0A4392
:101130008282704721B1828A42F00202828204E0F8
:10114000828A4FF6FD731A40828270470246002061
:10115000B1F5007F00D100BF13880B400BB1012017
:1011600000E00020704701F40072B2F5007F00D16A
:1011700000BFCA430280704770B5024600240023B6
:101180000025002040F66A16B14200D100BFC1F32D
:10119000421501F01F03012606FA03F3012D02D1C7
:1011A0009689334006E0022D02D1168A334001E0D1
:1011B000968A33400C12012606FA04F4168834404D
:1011C00013B10CB1012000E0002070BD10B5002269
:1011D000002340F66A14A14200D100BF0A12012484
:1011E0009440A3B2DC43048010BD000000380140ED
:1011F0000044004000480040004C004000500040C7
:101200000648804706480047FEE7FEE7FEE7FEE7A0
:10121000FEE7FEE7FEE7FEE7FEE7FEE7C70200089F
:1012200031010008704700BFFEE700BFFEE700BFC6
:10123000FEE700BFFEE7704710B5002250210520F1
:1012400000F074FD1D4908600846006840B11CA408
:101250001E222146224802F0E5F9502000F01AFA39
:1012600010BD1FB500201F4A1023CDE901200093B7
:10127000039003464FF400721BA11E4801F030F9A1
:1012800000201D4A0723CDE9012000930390034667
:101290004FF4007219A11C4801F022F91FBD012072
:1012A00080F3108800BF00F091F8FFF7DAFFFFF736
:1012B000C3FF01F0D4FD00BFFEE7000030000020B6
:1012C000B4B4BDA8546573745F5175657565CFFB83
:1012D000CFA2B6D3C1D0B3C9B9A6210D0A00000070
:1012E00020010020280000205461736B204C6564AD
:1012F00000000000F53500082C0000205461736BDD
:10130000204B657900000000BB35000838B5044665
:101310000121E068FFF70CFDA08A80B2ADF8000063
:1013200010208DF8030003208DF802006946206923
:10133000FFF742FA38BD10B52048FFF7E7FF204815
:10134000FFF7E4FF1F48FFF7E1FF1F48FFF7DEFF4D
:101350001A4A928A91B2194A1069FFF7DAFA184AC2
:10136000928A91B2164A1069FFF7D3FA154A928A07
:1013700091B2144A1069FFF7CCFA134A928A91B2DB
:10138000114A1069FFF7C5FA10BD19B9D0E9042355
:10139000136112E0002903DAD0E9042353610CE061
:1013A0008268521C82608A4207DB0269D268436904
:1013B0005A400369DA6000228260704734000020DE
:1013C0004C000020640000207C00002010B54FF489
:1013D0004070FEF7F9FFFFF7AEFF00F017F80520A9
:1013E00000F001F910BD000038B504460121A068E5
:1013F000FFF79EFC208A80B2ADF8000028208DF80F
:1014000003006946E068FFF7D7F938BD10B53248E8
:10141000FFF7EAFF3148FFF7E7FF10BD10B50446BC
:10142000A088401CA080607820B1012812D002283A
:101430004FD120E0228A91B2E068FFF750FA30B92C
:10144000012060700020A080A071A07001E0002049
:10145000A0803FE0228A91B2E068FFF740FA10B91D
:101460000220607006E0002060701D490870A070C6
:10147000A080A0712EE0228A91B2E068FFF72FFAD7
:10148000012819D1A088322805DA2078144908707B
:101490000120A07003E0002011490870A070E079DD
:1014A000012802D10020E07101E00120E07100205C
:1014B0006070A080A0710BE0A088322801DD0220BE
:1014C000A070A08841F28831884201DD0846A080E2
:1014D00000E000BF00BF10BD98000020AC0000205D
:1014E0009400002038B504460E208DF80000062038
:1014F0008DF8010000208DF8020001208DF8030016
:101500006846FEF766FF25208DF800008DF8014043
:1015100000208DF8020001208DF803006846FEF7D8
:1015200058FF38BD00B58BB001210846FFF7F3FB2B
:101530000021A248FFF783F8A048FEF7B3FFA048B8
:101540000090A048019010200290502003900020AD
:1015500004908020059000200690079008904FF49A
:101560004050099000200A9069469448FFF73CF8E3
:101570004FF48050FFF792F800219048FFF75FF892
:10158000012202218D48FFF766F800218B481430B4
:10159000FFF755F889481430FEF784FF884800901B
:1015A0008948019000200290502003900020049070
:1015B0008020059000200690079008904FF440503E
:1015C000099000200A9069467C481430FFF70CF817
:1015D0004FF48030FFF762F8012178481430FFF7AC
:1015E0002EF80BB000BD10B586B0044601210420D2
:1015F000FFF79EFB01218803FFF79AFB4FF4007071
:10160000ADF8140018208DF8170003208DF816008F
:1016100005A96E48FFF7D0F84FF48060ADF81400CC
:1016200004208DF8170005A96848FFF7C5F8204683
:10163000FFF758FFFFF776FF4FF4E13001900020ED
:10164000ADF80800ADF80A00ADF80C00ADF81000D8
:101650000C20ADF80E0001A95948001FFFF70FFC40
:10166000012240F224415648001FFFF7A0FC01214F
:101670005348001FFFF78FFC012280215048001FB4
:10168000FFF7BAFC012240214D48001FFFF7B4FCD0
:1016900006B010BD10B504464848443884640121A2
:1016A0004648FEF7CCFF10BD10B54FF48050FFF751
:1016B00000F838B14FF48050FEF7F0FF00213F48AA
:1016C000FEF7BDFF10BD10B5002440F224413C4898
:1016D000001FFFF751FD70B340F224413848001F4E
:1016E000FFF774FD3648001FFFF7C6FC1021344891
:1016F000001FFFF738FD002130481430FEF79FFF30
:101700004FF48030FEF7CAFF2C481430FEF7AEFFCE
:10171000C0F150002E490870502028494439C8654E
:1017200029484866012125481430FEF788FF2448DF
:10173000001FFFF7A1FC10BD70B504460D462946F9
:101740002046FFF795FC00BF80212046FFF7FEFCF6
:101750000028F9D070BD70B506460C46002500BFC4
:10176000615D3046FFF7E8FF6D1C605D0028F7D132
:1017700000BF40213046FFF7E9FC0028F9D070BDDA
:101780002DE9F04105460C46260AE7B231462846C7
:10179000FFF76EFC00BF80212846FFF7D7FC00282A
:1017A000F9D039462846FFF763FC00BF8021284660
:1017B000FFF7CCFC0028F9D0BDE8F08144000240DE
:1017C0000438014020010020700100200008014081
:1017D000C000002010B501468E4800E00068036894
:1017E0008B42FBD30246436813448B4204D14368C7
:1017F0004C682344436001460A464B68134404681E
:10180000A34211D1844C03682468A34208D04B68DA
:101810000468646823444B6003681B680B6005E040
:101820007D4B1B680B6001E003680B60884200D0B1
:10183000016010BD30B54FF44053784800F0070404
:101840002CB1C01D20F00700744C041B1B1B02466A
:10185000704C226000246F4D6C60D018083820F066
:1018600007006D4C206000246B4D2D686C606A4D44
:101870002D682C601146441A4C60674C24680C603B
:10188000674D4C682C60674D4C682C604FF00044ED
:10189000654D2C6030BD2DE9F04104464FF0000845
:1018A00001F044F85C48006808B9FFF7C3FF5E48E0
:1018B0000068204000285DD19CB1083404F0070086
:1018C00078B104F00700C0F10800044404F00700F8
:1018D00008B9012000E0002018B9FEF777FC00BF2E
:1018E000FEE7002C46D04F480068844242D8494E5B
:1018F0003046056801E02E462D686868A04202D295
:1019000028680028F7D144480068854232D0306802
:1019100000F10808286830606868001B102812D998
:101920002F1907F0070008B9012000E0002018B9BE
:10193000FEF74CFC00BFFEE76868001B78606C6037
:101940003846FFF747FF374968680968081A35497C
:1019500008600846006832490968884203D2314865
:1019600000682F4908603049686809680843686062
:101970000020286000F02EFF08F0070008B90120C1
:1019800000E0002018B9FEF721FC00BFFEE740464A
:10199000BDE8F08170B506463546002E31D0083DD1
:1019A0002C46214960680968084008B1012000E020
:1019B000002018B9FEF70AFC00BFFEE7206808B94E
:1019C000012000E0002018B9FEF700FC00BFFEE790
:1019D000154960680968084098B1206888B91249BB
:1019E000606809688843606000F0A0FF0D49606886
:1019F000096808440B4908602046FFF7EBFE00F039
:101A0000E9FE70BD074800687047054800687047E8
:101A100070470000C4000020CC000020C00100205E
:101A2000D4000020D0000020D800002075480068B5
:101A3000401C08B9012000E0002018B9FEF7C6FBE1
:101A400000BFFEE7FEF7C2FB00BFFEE7001F4FF03E
:101A500080730360001F0160001F6B4B036014382C
:101A600002602038704769484FF0E0214861072044
:101A7000086170471CB56648014609780191FF214D
:101A8000024611700146097800919DF8001001F09E
:101A90001001604A117007215F4A116009E05E4938
:101AA0000968491E5C4A11609DF800104906090E3C
:101AB00000919DF8001001F080018029EFD0564977
:101AC00009680902544A11601146098801F4E0616D
:101AD00011604F4A019911705048006840F470003D
:101AE0004E4908600846006840F070400860FFF703
:101AF000BAFF002043490860FEF736FB00201CBDFA
:101B000010B540480068B0F57A7F01D1012000E0AF
:101B1000002018B9FEF75AFB00BFFEE710BD4FF0DA
:101B200080503E491C390860BFF34F8FBFF36F8F61
:101B3000704710B5FEF74AFB32480068401C314937
:101B40000860BFF34F8FBFF36F8F0846006801280E
:101B50000CD132481C380068C0B208B9012000E03E
:101B6000002018B9FEF732FB00BFFEE710BD10B52C
:101B70002448006818B9FEF729FB00BFFEE721489A
:101B80000068401E1F4908600846006810B9002020
:101B9000FEF723FB10BD10B5FEF718FB00F092FD19
:101BA00020B14FF080501D491C3908600020FEF71D
:101BB00014FB10BD70B5FEF713FB0546102D0FD3B7
:101BC00005F1E02090F8F04312480078844201DBF0
:101BD000012000E0002018B9FEF7F8FA00BFFEE788
:101BE0000E481438006800F4E0600B490968884228
:101BF00001D8012000E0002018B9FEF7E7FA00BF85
:101C0000FEE770BDDC0000202D1A00083F1901001E
:101C100000E400E0E0000020E400002020ED00E00F
:101C200000F1080141604FF0FF31816000F10801CF
:101C3000C1600161002101607047002101617047AE
:101C400042684A6093688B6093685960916008614C
:101C500003685B1C0360704710B502460B685C1C90
:101C60000CB9106907E002F1080000E04068446820
:101C700024689C42FAD944684C604C68A160886032
:101C800041600A611468641C146010BD01460A6951
:101C9000D1E901309860D1E9010358605068884269
:101CA00001D188685060002008611068401E1060F3
:101CB0001068704770B505460E462C461CB9FEF7F5
:101CC00085FA00BFFEE7FFF734FFD4E90F12206862
:101CD00001FB020060600020A0632068A060E06B50
:101CE000401E226C216800FB0210E0604FF0FF30C4
:101CF0006064A06476B9206908B9012000E0002082
:101D000080B904F1100001F055F901280AD1FFF75C
:101D100006FF07E004F11000FFF782FF04F1240042
:101D2000FFF77EFFFFF723FF012070BD2DE9F0478D
:101D300006460D4691464FF000080EB1012000E026
:101D4000002018B9FEF742FA00BFFEE70DB90027E0
:101D500002E006FB05F0471C07F14C00FFF79BFD76
:101D6000044664B10DB9246002E004F14C00206027
:101D7000E663256401212046FFF79CFFA046B8F1E9
:101D8000000F03D1FEF722FA00BFFEE74046BDE890
:101D9000F08710B50446FFF7CCFE11E0606A08B981
:101DA000012000E0002038B904F1240001F002F91C
:101DB00018B101F0DCF900E005E0A06C401EA06461
:101DC000A06C0028EADC00BF4FF0FF30A064FFF7F2
:101DD000CEFEFFF7AEFE11E0206908B9012000E059
:101DE000002050B904F1100001F0E4F808B101F04E
:101DF000BEF9606C401E606400E002E0606C002888
:101E0000EADC00BF4FF0FF306064FFF7B0FE10BDAA
:101E100070B50546FFF78DFEA86BE96B884201D1CE
:101E2000012400E00024FFF7A2FE204670BD2DE94A
:101E3000F04104460E4615460027206C40B37DB99C
:101E40003146226CA06801F0EDFB216CA0680844CB
:101E5000A060D4E9011088421AD32068A06017E07E
:101E60003146226CE06801F0DDFB216CE068401A2D
:101E7000E0602168E068884203D2216C6068401A03
:101E8000E060022D04D1A06B10B1A06B401EA063D6
:101E9000A06B401CA0633846BDE8F0812DE9FF43EC
:101EA00083B0064688461D464FF0000934461CB9EB
:101EB000FEF78CF900BFFEE7B8F1000F01D1206CEE
:101EC00008B9012000E0002018B9FEF77FF900BF33
:101ED000FEE7022D02D1E06B012801D1012000E0D4
:101EE000002018B9FEF772F900BFFEE700BFFFF748
:101EF00020FEA06BE16B884201D3022D1DD12A4642
:101F000041462046FFF793FF0746606A08B9012063
:101F100000E0002040B904F1240001F04BF8012852
:101F200005D1FFF7FCFD02E00FB1FFF7F8FDFFF769
:101F30001EFE012007B0BDE8F083059818B9FFF731
:101F400016FE0020F6E7B9F1000F04D101A801F058
:101F5000CAF84FF00109FFF70AFE00F0E7FCFFF7AF
:101F6000E8FD606C401C08B900206064A06C401C57
:101F700008B90020A064FFF7FAFD05A901A801F047
:101F8000C0F8C0B92046FFF743FF70B104F110005C
:101F9000059900F09EFF2046FFF7FBFE00F01AFCBB
:101FA0000028A4D1FFF7BBFDA1E72046FFF7F1FE13
:101FB00000F010FC9BE72046FFF7EBFE00F00AFC68
:101FC0000020B7E72DE9F0470646894617461D462B
:101FD00034461CB9FEF7FAF800BFFEE7B9F1000F6E
:101FE00001D1206C08B9012000E0002018B9FEF7EB
:101FF000EDF800BFFEE7022D02D1E06B012801D110
:10200000012000E0002018B9FEF7E0F800BFFEE76D
:10201000FFF7D0FDFEF7DAF88246A06BE16B88424D
:1020200001D3022D1CD12A4649462046FFF7FFFE68
:10203000A06C401C70B9606A08B9012000E0002063
:1020400058B904F1240000F0B5FF30B12FB10120E0
:10205000386002E0A06C401CA0644FF0010801E071
:102060004FF000085046FEF7B8F84046BDE8F0874C
:102070002DE9F04105460E462C461CB9FEF7A6F8A0
:1020800000BFFEE7206C08B9012000E0002018B96D
:10209000FEF79CF800BFFEE7206808B9606808B941
:1020A000012000E0002018B9FEF790F800BFFEE71D
:1020B000FFF780FDFEF78AF88046A06BE16B88424F
:1020C00019D2A06B401CA063A06C401C70B9606A60
:1020D00008B9012000E0002058B904F1240000F004
:1020E00069FF30B12EB10120306002E0A06C401CCD
:1020F000A064012700E000274046FEF76EF838464E
:10210000BDE8F08170B50546FFF713FDA86B08B96F
:10211000012400E00024FFF72AFD204670BD70B5C1
:1021200004460D46206C70B1216CE0680844E06004
:102130006168E068884201D32068E0602846226C2C
:10214000E16801F06FFA70BD2DE9FF4383B00546E9
:102150000E461F464FF000092C461CB9FEF736F814
:1021600000BFFEE70EB9206C08B9012000E0002096
:1021700018B9FEF72BF800BFFEE700BFFFF7D9FC48
:10218000A06B68B3D4F80C8031462046FFF7C7FF38
:102190008FB9A06B401EA063206908B9012000E040
:1021A0000020B8B904F1100000F004FF012811D19B
:1021B000FFF7B5FC0EE0C4F80C80606A08B9012096
:1021C00000E0002030B904F1240000F0F3FE08B173
:1021D000FFF7A5FCFFF7CBFC012007B0BDE8F083BB
:1021E000059818B9FFF7C3FC0020F6E7B9F1000F16
:1021F00004D101A800F077FF4FF00109FFF7B7FC09
:1022000000F094FBFFF795FC606C401C08B90020BF
:102210006064A06C401C08B90020A064FFF7A7FC14
:1022200005A901A800F06DFFC0B92046FFF76AFFBD
:1022300070B104F12400059900F04BFE2046FFF731
:10224000A8FD00F0C7FA002898D1FFF768FC95E7D1
:102250002046FFF79EFD00F0BDFA8FE72046FFF70E
:1022600098FD00F0B7FA0020B7E72DE9F0470546E2
:10227000884616462C461CB9FDF7A8FF00BFFEE7AE
:10228000B8F1000F01D1206C08B9012000E0002056
:1022900018B9FDF79BFF00BFFEE7FFF78BFCFDF7CA
:1022A00095FF8146A06BE8B141462046FFF737FF16
:1022B000A06B401EA063606C401C70B9206908B917
:1022C000012000E0002058B904F1100000F072FE77
:1022D00030B12EB10120306002E0606C401C6064BF
:1022E000012700E000274846FDF777FF3846BDE8A4
:1022F000F0872DE9F04705460F462C461CB9FDF73F
:1023000065FF00BFFEE70FB9206C08B9012000E0AF
:10231000002018B9FDF75AFF00BFFEE7206C08B196
:10232000012000E0002018B9FDF750FF00BFFEE7D4
:10233000FFF740FCFDF74AFF8146A06B48B1D4F897
:102340000C8039462046FFF7EAFEC4F80C800126CF
:1023500000E000264846FDF740FF3046BDE8F08724
:1023600070B504461CB9FDF731FF00BFFEE7FFF76B
:10237000E0FBA56BFFF7FBFB284670BD70B504467C
:1023800025461DB9FDF722FF00BFFEE7FFF7D1FB91
:10239000D5E90E10461AFFF7EAFB304670BD70B55E
:1023A00004461CB9FDF712FF00BFFEE7A56B2846E7
:1023B00070BD70B5044625461DB9FDF707FF00BF87
:1023C000FEE72846FFF7E6FA70BD70B505461DB971
:1023D000FDF7FCFE00BFFEE7A86B08B9012400E092
:1023E0000024204670BD70B504461CB9FDF7EEFE12
:1023F00000BFFEE7A06BE16B884201D1012500E040
:102400000025284670BD000010B5002407E004EB4D
:102410008401FD4A02EB8100FFF702FC641C1E2CC4
:10242000F5D3FA48FFF7FCFBF948FFF7F9FBF94849
:10243000FFF7F6FBF848FFF7F3FBF848FFF7F0FB70
:10244000F248F7490860F248F649086010BD2DE9E6
:10245000F04704460F4616469946DDF820800025D1
:1024600007E0795D04F134004155785D00B902E080
:102470006D1C102DF5D300BF0021432001551E2EE9
:1024800000D31D26E662201DFFF7D7FB04F11800DC
:10249000FFF7D3FB2461C6F11E00A0616462002037
:1024A000606484F84800BDE8F0872DE9F0410646F5
:1024B0000F461FB9B000FFF7EEF900E038460546B9
:1024C00055B14C20FFF7E7F904460CB1256304E051
:1024D0002846FFF75FFA00E000242046BDE8F081BF
:1024E0002DE9FF4F81B0804616469A46DDE90E5B26
:1024F000B8F1000F03D1FDF769FE00BFFEE71E2D06
:1025000001D2012000E0002018B9FDF75FFE00BFF6
:10251000FEE730461099FFF7C8FF0446002C5AD05A
:10252000701E216B01EB800929F0070909F00700F3
:1025300008B9012000E0002018B9FDF747FE00BFF0
:10254000FEE700962A462046119B0299FFF77FFF7F
:10255000524641464846FFF779FA2060BBF1000F2A
:1025600001D0CBF80040FFF7E4FAAF480068401C08
:10257000AD490860AD48006840B9AC480460084601
:10258000006801280CD1FFF73FFF09E0A848006868
:1025900030B9A6480068C06AA84201D8A3480460C0
:1025A000A4480068401CA349086094F82C1001203E
:1025B0008840A149096808439F490860E16A01EB26
:1025C0008101914A02EB8100211DFFF739FB0127B0
:1025D000FFF7CDFA01E04FF0FF37012F09D1944802
:1025E000006830B191480068C06AA84201D2FFF784
:1025F00096FA384605B0BDE8F08F89490968096840
:1026000009B9012100E0002121B14FF0FF318B4ACF
:10261000116006E082490968C968C868874A41684C
:102620001160704770B50546FFF783FA15B97F480A
:10263000006800E028460446201DFFF727FB78B914
:10264000E06A00EB8000704951F8200040B994F82E
:102650002C10012088407849096881437648016040
:10266000A06A18B104F11800FFF710FB211D6A4899
:10267000FFF7E6FA72480068401C714908606D482F
:102680000068401C6B490860FFF771FA68480068F1
:10269000B8B16648006884420DD16A48006808B93C
:1026A000012000E0002018B9FDF790FD00BFFEE713
:1026B000FFF735FA05E0FFF73CFAFFF79EFFFFF75B
:1026C00056FA70BD2DE9F0414FF000085D480068F2
:1026D000002872D15C480068401C5B4908600846CD
:1026E0000668DEB94E480068006808B9012000E0BD
:1026F000002018B9FDF76AFD00BFFEE748480768EB
:102700004848006846490860464807604F480068E6
:10271000401C4E490860FFF770FF00BF4748006843
:1027200086423CD300BF3E480068006808B90120DB
:1027300000E0002020B14FF0FF30404908602DE05C
:1027400037480068C068C4686568AE4202D23B483A
:10275000056023E0201DFFF799FAA06A18B104F183
:102760001800FFF793FA94F82C10012088403249A2
:102770000968084330490860E16A01EB8101224A97
:1027800002EB8100211DFFF75BFA2849E06A096826
:10279000C96A8842C7D34FF00108C4E700BF234885
:1027A0000068C06A00EB8000174951F8200001283A
:1027B00008D94FF0010805E0FFE725480068401CF4
:1027C000234908602348006808B14FF001084046DB
:1027D000BDE8F08170B500251A48006818B9FDF70A
:1027E000F5FC00BFFEE7FFF7A4F916480068401E9D
:1027F0001449086008460068002874D10A48006837
:10280000002870D04DE00000C031002018340020B6
:102810002C34002040340020543400206834002040
:10282000EC000020F0000020F8000020E80000206C
:1028300004010020140100200001002018010020E4
:10284000F40000201C010020FC00002010010020EA
:10285000080100200C010020FA48C068C46804F197
:102860001800FFF713FA201DFFF710FA94F82C1048
:1028700001208840F44909680843F3490860E16A87
:1028800001EB8101F14A02EB8100211DFFF7D8F92C
:10289000EF49E06A0968C96A884202D30120ED491C
:1028A0000860E848006808B9012000E0002000281E
:1028B000D2D0E948006878B10AE0FFF703FF10B111
:1028C0000120E4490860E4480068401EE2490860CD
:1028D000E14800680028F0D1DE480068012802D1F4
:1028E0000125FFF71CF9FFF742F9284670BD10B526
:1028F0000446D74800684460D8480068844207D23C
:10290000D3480168091DD6480068FFF7A5F90CE017
:10291000CF480168091DD3480068FFF79DF9D248E8
:102920000068844201D2D048046010BDCF480068DE
:10293000401CCE49086070472DE9F04704460E461A
:102940004FF000091CB9FDF741FC00BFFEE70EB1D6
:10295000012000E0002018B9FDF738FC00BFFEE7B9
:10296000C248006808B9012000E0002018B9FDF74E
:102970002DFC00BFFEE7FFF7D9FFB848D0F8008074
:10298000206885192068404507D92068A8420BD9DE
:10299000454509D94FF0010906E02068A84201D851
:1029A000454501D94FF001092560B9F1000F13D059
:1029B000A7480068001DFFF769F950B9A4480068EE
:1029C00090F82C10012088409F49096881439E4857
:1029D00001602846FFF78BFFFFF7FCFE07460FB9A3
:1029E000FFF79DF8BDE8F08770B50446002634B3C4
:1029F0009E48006808B9012000E0002018B9FDF7E2
:102A0000E5FB00BFFEE7FFF791FF9448006805195A
:102A10008F480068001DFFF739F950B98C480068ED
:102A200090F82C1001208840874909688143864826
:102A300001602846FFF75BFFFFF7CCFE06460EB9A4
:102A4000FFF76DF870BD70B50446FFF772F814B962
:102A50007F48006800E020460646F56AFFF787F8E1
:102A6000284670BD2DE9F0410446FFF7A3F8FDF7B5
:102A7000ADFB064614B97648006800E020460746DC
:102A8000FD6A3046FDF7A9FB2846BDE8F0812DE937
:102A9000F04780460D464FF000091E2D01D201205F
:102AA00000E0002018B9FDF791FB00BFFEE71E2DE6
:102AB00000D31D25FFF73DF8B8F1000F02D164489F
:102AC000006800E040460446E66AAE424BD0B5429C
:102AD0000BD95F48006884420DD05D480068C06A29
:102AE000A84208D84FF0010905E05948006884421F
:102AF00001D14FF00109E76AE562A06900F00040EA
:102B000010B9C5F11E00A06107EB87014F4A02EB27
:102B100081016069884201D1012000E00020E0B11C
:102B2000201DFFF7B3F830B90120B84046490968C5
:102B300081434548016094F82C10012088404249A7
:102B40000968084340490860E16A01EB81013F4A96
:102B500002EB8100211DFFF773F8B9F1010F01D1DC
:102B6000FEF7DDFF00BFFFF702F8BDE8F08710B504
:102B70003E48006818B10120364908602BE000206B
:102B80003449086030480068B0FA80F0C0F11F0492
:102B900004EB84002D4951F8200008B1012000E029
:102BA000002018B9FDF712FB00BFFEE704EB84011B
:102BB000264A02EB810041684968416000F1080142
:102BC00042688A4202D14168496841604168C968E7
:102BD0001F4A116000BF10BD70B50546FEF7A9FF82
:102BE00015B91B48006800E028460446201DFFF781
:102BF0004DF878B9E06A00EB8000144951F82000E4
:102C000040B994F82C10012088400F49096881438D
:102C10000D480160A06A18B104F11800FFF736F8FA
:102C2000211D1348FFF70CF8FEF7A1FF08480068C4
:102C3000844237D10F48006838B30C480068D8B9CF
:102C400001201AE04034002000010020C0310020A3
:102C5000E80000200C01002008010020FC000020FA
:102C6000F0000020EC000020180100201C010020D2
:102C70006834002004010020002018B9FDF7A6FAEE
:102C800000BFFEE7FEF74BFF15E0FE480068FE4977
:102C90000968884203D10020FC4908600BE0FFF777
:102CA00066FF08E0FA48006828B1FEF742FFFFF728
:102CB000A4FCFEF75CFF70BD70B5054600262C46EF
:102CC0001DB9FDF783FA00BFFEE7EE49606988424F
:102CD00001D1012000E0002070B1EE49A06A8842D5
:102CE00001D1012000E0002030B9A06A08B901201C
:102CF00000E0002000B10126304670BD70B50546E9
:102D00002C461DB9FDF762FA00BFFEE74CB3DF4861
:102D10000068844225D0FEF70CFF2046FFF7CCFF69
:102D200001281CD1201DFEF7B1FF94F82C100120C2
:102D30008840D94909680843D7490860E16A01EB2E
:102D40008101D64A02EB8100211DFEF779FFCF49B0
:102D5000E06A0968C96A884201D3FEF7E0FEFEF71F
:102D600006FF70BD2DE9F041054600262C461DB931
:102D7000FDF72CFA00BFFEE7FEF71CFFFDF726FA71
:102D800007462046FFF798FF012824D1C448006871
:102D9000E0B9BE49E06A0968C96A884200D30126E1
:102DA000201DFEF773FF94F82C1001208840BA49CB
:102DB00009680843B8490860E16A01EB8101B74A34
:102DC00002EB8100211DFEF73BFF04E004F1180136
:102DD000B048FEF735FF3846FDF7FFF93046BDE84D
:102DE000F08110B50446206BFEF7D4FD2046FEF7B7
:102DF000D1FD10BD70B523E0FFF798FDA94800682C
:102E000008B9012000E000200546FFF7E3FCBDB94A
:102E1000FEF78FFEA348C068C468201DFEF736FF8A
:102E200099480068401E984908609F480068401E05
:102E30009D490860FEF79BFE2046FFF7D2FF00BFCA
:102E4000994800680028D7D170BD00BFFFF7D2FFB6
:102E5000924800680128F9D9FEF761FEF6E71FB530
:102E60000020009001900290034680228FA10390E1
:102E70009048FFF735FB0446012C0DD1FDF7A6F96C
:102E8000A01E8D49086001208149086000208B49FF
:102E90000860FEF7EFFD04E01CB9FDF797F900BFED
:102EA000FEE71FBD10B5FDF791F9002078490860D5
:102EB000FEF726FE10BD81490868704770B5FEF721
:102EC00079FE00257D480468204670BD6E48006884
:102ED000704770B505460C461DB9FDF777F900BF80
:102EE000FEE76A48016818312846FEF7B5FE6748D4
:102EF0000068001DFEF7CAFE50B96448006890F8EB
:102F00002C100120884064490968814362480160AF
:102F1000601C30B95D480168091D5A48FEF790FEF3
:102F200005E06648006806193046FFF7E0FC70BD12
:102F30002DE9F04105460E4614461DB9FDF746F948
:102F400000BFFEE75648006808B1012000E00020FD
:102F500018B9FDF73BF900BFFEE746F000404B49CA
:102F6000096888614948016818312846FEF768FEFB
:102F700046480068001DFEF789FE50B943480068C6
:102F800090F82C1001208840434909688143424849
:102F90000160601C30B93D480168091D3948FEF7E1
:102FA0004FFE05E04548006807193846FFF79FFCCB
:102FB000BDE8F08170B50646F068C4681CB9FDF73D
:102FC00005F900BFFEE704F11800FEF75FFE344884
:102FD0000068A8B9201DFEF759FE94F82C100120B6
:102FE00088402D49096808432B490860E16A01EBD4
:102FF00081012A4A02EB8100211DFEF721FE04E037
:1030000004F118012348FEF71BFE2049E06A096815
:10301000C96A884204D9012501202949086000E0D5
:103020000025284670BD2DE9F04105460F461C4895
:10303000006808B1012000E0002018B9FDF7C6F8CB
:1030400000BFFEE747F000402860EC681CB9FDF7C0
:10305000BDF800BFFEE72846FEF718FE201DFEF76C
:1030600015FE94F82C10012088400B49096808438C
:1030700009490860E16A01EB8101084A02EB81001D
:10308000211D1FE068340020F8000020E800002027
:10309000040100204034002000010020C031002045
:1030A0001C01002054340020F400002049444C4509
:1030B000000000004B2E000818010020FC0000203A
:1030C0000C010020FEF7BCFDF949E06A0968C96AF5
:1030D000884204D901260120F649086000E0002654
:1030E0003046BDE8F08110B504461CB9FDF76EF816
:1030F00000BFFEE7F04800682060F04800686060AC
:1031000010BD2DE9F04104460D461CB9FDF75EF8EF
:1031100000BFFEE71DB9FDF759F800BFFEE7FEF757
:1031200008FDE64807682868401C08B9002619E031
:10313000E14920680968884204D06068B84201D833
:1031400001260FE06068381A2968884209D2286889
:103150006168791A401A28602046FFF7C4FF0026EC
:1031600000E00126FEF703FD3046BDE8F0810120B6
:10317000D04908607047CE4909688869CC49096818
:10318000C96AC1F11E01CA4A1268916170472DE9EE
:10319000F04106460C46FEF7CCFCC5480068406C82
:1031A00038BB0120C249096881F848000CB3C04807
:1031B0000068001DFEF76AFD50B9BD48006890F830
:1031C0002C1001208840BE4909688143BC48016039
:1031D000601C30B9B6480168091DBA48FEF730FDD9
:1031E00005E0B648006807193846FFF780FBFEF790
:1031F00096FCFEF7BCFCFEF79CFCAD480068456CF5
:1032000065B126B10020AA490968486406E0A849CA
:10321000096801F14400496C491E01600020A4497D
:10322000096881F84800FEF7A2FC2846BDE8F08155
:103230002DE9F0470746884615461C46FEF779FCFF
:103240009B48006890F8480002282FD098490968E8
:1032500001F14400496CB9430160012094490968B7
:1032600081F8480014B392480068001DFEF70EFD77
:1032700050B98F48006890F82C1001208840904980
:10328000096881438E480160601C30B98848016834
:10329000091D8C48FEF7D4FC06E08848006800EB66
:1032A00004094846FFF723FBFEF739FCFEF75FFCF5
:1032B000FEF73FFC1DB17E480068406C28607C48EA
:1032C000006890F84800012801D1002608E07849FC
:1032D000096801F14400496C21EA080101600126F6
:1032E00000207349096881F84800FEF740FC304629
:1032F000BDE8F0872DE9F04706460D46174698468B
:103300004FF0010A1EB9FCF761FF00BFFEE734462B
:10331000FEF70FFCB8F1000F02D0606CC8F8000097
:1033200094F84890022084F84800052F17D2DFE86F
:1033300007F01503070B0D00606C284360640EE076
:10334000606C401C60640AE0656408E0B9F1020F3B
:1033500001D0656401E04FF0000A00E000BF00BF4B
:10336000B9F1010F26D1201DFEF790FC94F82C1026
:103370000120884052490968084351490860E16AC0
:1033800001EB8101504A02EB8100211DFEF758FC40
:10339000A06A08B9012000E0002018B9FCF716FF68
:1033A00000BFFEE74249E06A0968C96A884201D95C
:1033B000FEF7B5FBFEF7DBFB5046BDE8F0872DE9D5
:1033C000F84F06460D4617469846DDF828A04FF000
:1033D000010B1EB9FCF7FAFE00BFFEE7FEF7EAFBA1
:1033E0003446FCF7F3FE0090B8F1000F02D0606C99
:1033F000C8F8000094F84890022084F84800052F8F
:1034000017D2DFE807F01503070B0D00606C2843A7
:1034100060640EE0606C401C60640AE0656408E073
:10342000B9F1020F01D0656401E04FF0000B00E03C
:1034300000BF00BFB9F1010F33D1A06A08B9012064
:1034400000E0002018B9FCF7C1FE00BFFEE71F48EE
:103450000068A8B9201DFEF719FC94F82C10012073
:10346000884017490968084315490860E16A01EB7B
:103470008101154A02EB8100211DFEF7E1FB04E00A
:1034800004F118011248FEF7DBFB0949E06A0968FC
:10349000C96A884205D9BAF1000F02D00120CAF8E2
:1034A00000000098FCF799FE5846BDE8F88F000030
:1034B000E80000200C01002010010020FC0000208A
:1034C0000001002068340020C03100201C010020D1
:1034D000403400202DE9F04105460E461DB9FCF7A9
:1034E00075FE00BFFEE7FEF765FB2C46FCF76EFE9F
:1034F000804694F84870022084F84800606C401CB4
:103500006064012F30D1A06A08B9012000E00020DA
:1035100018B9FCF75BFE00BFFEE722480068A8B9B7
:10352000201DFEF7B3FB94F82C10012088401E49A3
:10353000096808431C490860E16A01EB81011B4AE4
:1035400002EB8100211DFEF77BFB04E004F1180172
:103550001748FEF775FB1749E06A0968C96A88428F
:1035600002D90EB1012030604046FCF736FEBDE8BE
:10357000F08170B50446264616B90E48006800E092
:1035800030460646FEF7D5FA96F84800022804D1E0
:10359000002086F84800012500E00025FEF7E7FA44
:1035A000284670BD1C01002000010020C031002011
:1035B00040340020E8000020704708B5012000904A
:1035C00011E00948FDF72AFF0848FDF727FFFFF73C
:1035D000F3FF00231A46694605480068FEF75EFCC3
:1035E0000A20FFF701FAECE798000020AC00002069
:1035F0003000002008B500BF0FE000235A1E6946C6
:1036000006480068FEF7A0FD2146641C0448FDF74B
:10361000BCFE6420FFF7E8F900BFEEE730000020B1
:103620003400002040EA01039B0703D009E008C9E9
:10363000121F08C0042AFAD203E011F8013B00F877
:10364000013B521EF9D27047064C074D06E0E06878
:1036500040F0010394E8070098471034AC42F6D3D9
:10366000FCF76AFD8C360008AC36000802E008C89A
:10367000121F08C1002AFAD170477047002001E0EC
:1036800001C1121F002AFBD170470000AC360008B0
:1036900000000020200100006C360008CC37000834
:1036A00020010020603B00007C36000800A24A0494
:1036B00000000000000000000102030406070809E2
:1036C00000000000010203040102030406070809C8
:1036D00002040608000000000000000000000000D6
:1036E00000000000000000000000000008000000D2
:1036F000000C01402000000001000000000000005C
:103700000000000008000000000C01400100000063
:10371000020000000000000000000000080000009F
:10372000000C014002000000030000000000000047
:103730000000000008000000000C01400001000033
:103740000000000001000000000000000400000074
:10375000000801400100000002000000000000001D
:1037600010000000001001400020000000000000D8
:103770000000000000000000000000000000000049
:103780000000000000000000AAAAAAAA0000000091
:103790000000000000000000000000000000000029
:1037A0000000000000000000000000000000000019
:1037B0000000000000000000000000000000000009
:0C37C000000000000000000000000000FD
:0400000508000131BD
:00000001FF
